{
  "_format": "hh-sol-artifact-1",
  "contractName": "HealthToken",
  "sourceName": "contracts/HealthToken.sol",
  "abi": [
    {
      "inputs": [],
      "stateMutability": "nonpayable",
      "type": "constructor"
    },
    {
      "inputs": [
        {
          "internalType": "address",
          "name": "spender",
          "type": "address"
        },
        {
          "internalType": "uint256",
          "name": "allowance",
          "type": "uint256"
        },
        {
          "internalType": "uint256",
          "name": "needed",
          "type": "uint256"
        }
      ],
      "name": "ERC20InsufficientAllowance",
      "type": "error"
    },
    {
      "inputs": [
        {
          "internalType": "address",
          "name": "sender",
          "type": "address"
        },
        {
          "internalType": "uint256",
          "name": "balance",
          "type": "uint256"
        },
        {
          "internalType": "uint256",
          "name": "needed",
          "type": "uint256"
        }
      ],
      "name": "ERC20InsufficientBalance",
      "type": "error"
    },
    {
      "inputs": [
        {
          "internalType": "address",
          "name": "approver",
          "type": "address"
        }
      ],
      "name": "ERC20InvalidApprover",
      "type": "error"
    },
    {
      "inputs": [
        {
          "internalType": "address",
          "name": "receiver",
          "type": "address"
        }
      ],
      "name": "ERC20InvalidReceiver",
      "type": "error"
    },
    {
      "inputs": [
        {
          "internalType": "address",
          "name": "sender",
          "type": "address"
        }
      ],
      "name": "ERC20InvalidSender",
      "type": "error"
    },
    {
      "inputs": [
        {
          "internalType": "address",
          "name": "spender",
          "type": "address"
        }
      ],
      "name": "ERC20InvalidSpender",
      "type": "error"
    },
    {
      "inputs": [],
      "name": "EnforcedPause",
      "type": "error"
    },
    {
      "inputs": [],
      "name": "ExpectedPause",
      "type": "error"
    },
    {
      "inputs": [
        {
          "internalType": "address",
          "name": "owner",
          "type": "address"
        }
      ],
      "name": "OwnableInvalidOwner",
      "type": "error"
    },
    {
      "inputs": [
        {
          "internalType": "address",
          "name": "account",
          "type": "address"
        }
      ],
      "name": "OwnableUnauthorizedAccount",
      "type": "error"
    },
    {
      "anonymous": false,
      "inputs": [
        {
          "indexed": true,
          "internalType": "address",
          "name": "owner",
          "type": "address"
        },
        {
          "indexed": true,
          "internalType": "address",
          "name": "spender",
          "type": "address"
        },
        {
          "indexed": false,
          "internalType": "uint256",
          "name": "value",
          "type": "uint256"
        }
      ],
      "name": "Approval",
      "type": "event"
    },
    {
      "anonymous": false,
      "inputs": [
        {
          "indexed": true,
          "internalType": "address",
          "name": "user",
          "type": "address"
        },
        {
          "indexed": false,
          "internalType": "uint256",
          "name": "amount",
          "type": "uint256"
        }
      ],
      "name": "InitialAllocationGranted",
      "type": "event"
    },
    {
      "anonymous": false,
      "inputs": [
        {
          "indexed": false,
          "internalType": "uint256",
          "name": "newMax",
          "type": "uint256"
        }
      ],
      "name": "MaxInitialAllocationsUpdated",
      "type": "event"
    },
    {
      "anonymous": false,
      "inputs": [
        {
          "indexed": true,
          "internalType": "address",
          "name": "previousOwner",
          "type": "address"
        },
        {
          "indexed": true,
          "internalType": "address",
          "name": "newOwner",
          "type": "address"
        }
      ],
      "name": "OwnershipTransferred",
      "type": "event"
    },
    {
      "anonymous": false,
      "inputs": [
        {
          "indexed": false,
          "internalType": "address",
          "name": "account",
          "type": "address"
        }
      ],
      "name": "Paused",
      "type": "event"
    },
    {
      "anonymous": false,
      "inputs": [
        {
          "indexed": true,
          "internalType": "address",
          "name": "from",
          "type": "address"
        },
        {
          "indexed": true,
          "internalType": "address",
          "name": "to",
          "type": "address"
        },
        {
          "indexed": false,
          "internalType": "uint256",
          "name": "value",
          "type": "uint256"
        }
      ],
      "name": "Transfer",
      "type": "event"
    },
    {
      "anonymous": false,
      "inputs": [
        {
          "indexed": false,
          "internalType": "address",
          "name": "account",
          "type": "address"
        }
      ],
      "name": "Unpaused",
      "type": "event"
    },
    {
      "inputs": [],
      "name": "INITIAL_SUPPLY",
      "outputs": [
        {
          "internalType": "uint256",
          "name": "",
          "type": "uint256"
        }
      ],
      "stateMutability": "view",
      "type": "function"
    },
    {
      "inputs": [],
      "name": "MAX_SUPPLY",
      "outputs": [
        {
          "internalType": "uint256",
          "name": "",
          "type": "uint256"
        }
      ],
      "stateMutability": "view",
      "type": "function"
    },
    {
      "inputs": [
        {
          "internalType": "address",
          "name": "owner",
          "type": "address"
        },
        {
          "internalType": "address",
          "name": "spender",
          "type": "address"
        }
      ],
      "name": "allowance",
      "outputs": [
        {
          "internalType": "uint256",
          "name": "",
          "type": "uint256"
        }
      ],
      "stateMutability": "view",
      "type": "function"
    },
    {
      "inputs": [
        {
          "internalType": "address",
          "name": "spender",
          "type": "address"
        },
        {
          "internalType": "uint256",
          "name": "value",
          "type": "uint256"
        }
      ],
      "name": "approve",
      "outputs": [
        {
          "internalType": "bool",
          "name": "",
          "type": "bool"
        }
      ],
      "stateMutability": "nonpayable",
      "type": "function"
    },
    {
      "inputs": [
        {
          "internalType": "address",
          "name": "account",
          "type": "address"
        }
      ],
      "name": "balanceOf",
      "outputs": [
        {
          "internalType": "uint256",
          "name": "",
          "type": "uint256"
        }
      ],
      "stateMutability": "view",
      "type": "function"
    },
    {
      "inputs": [
        {
          "internalType": "uint256",
          "name": "value",
          "type": "uint256"
        }
      ],
      "name": "burn",
      "outputs": [],
      "stateMutability": "nonpayable",
      "type": "function"
    },
    {
      "inputs": [
        {
          "internalType": "address",
          "name": "account",
          "type": "address"
        },
        {
          "internalType": "uint256",
          "name": "value",
          "type": "uint256"
        }
      ],
      "name": "burnFrom",
      "outputs": [],
      "stateMutability": "nonpayable",
      "type": "function"
    },
    {
      "inputs": [],
      "name": "decimals",
      "outputs": [
        {
          "internalType": "uint8",
          "name": "",
          "type": "uint8"
        }
      ],
      "stateMutability": "view",
      "type": "function"
    },
    {
      "inputs": [],
      "name": "getRemainingInitialAllocations",
      "outputs": [
        {
          "internalType": "uint256",
          "name": "remaining",
          "type": "uint256"
        }
      ],
      "stateMutability": "view",
      "type": "function"
    },
    {
      "inputs": [
        {
          "internalType": "address",
          "name": "user",
          "type": "address"
        },
        {
          "internalType": "uint256",
          "name": "amount",
          "type": "uint256"
        }
      ],
      "name": "grantInitialAllocation",
      "outputs": [],
      "stateMutability": "nonpayable",
      "type": "function"
    },
    {
      "inputs": [
        {
          "internalType": "address",
          "name": "",
          "type": "address"
        }
      ],
      "name": "hasReceivedInitialAllocation",
      "outputs": [
        {
          "internalType": "bool",
          "name": "",
          "type": "bool"
        }
      ],
      "stateMutability": "view",
      "type": "function"
    },
    {
      "inputs": [
        {
          "internalType": "address",
          "name": "user",
          "type": "address"
        }
      ],
      "name": "hasUserReceivedInitialAllocation",
      "outputs": [
        {
          "internalType": "bool",
          "name": "hasAllocation",
          "type": "bool"
        }
      ],
      "stateMutability": "view",
      "type": "function"
    },
    {
      "inputs": [],
      "name": "maxInitialAllocations",
      "outputs": [
        {
          "internalType": "uint256",
          "name": "",
          "type": "uint256"
        }
      ],
      "stateMutability": "view",
      "type": "function"
    },
    {
      "inputs": [
        {
          "internalType": "address",
          "name": "to",
          "type": "address"
        },
        {
          "internalType": "uint256",
          "name": "amount",
          "type": "uint256"
        }
      ],
      "name": "mint",
      "outputs": [],
      "stateMutability": "nonpayable",
      "type": "function"
    },
    {
      "inputs": [],
      "name": "name",
      "outputs": [
        {
          "internalType": "string",
          "name": "",
          "type": "string"
        }
      ],
      "stateMutability": "view",
      "type": "function"
    },
    {
      "inputs": [],
      "name": "owner",
      "outputs": [
        {
          "internalType": "address",
          "name": "",
          "type": "address"
        }
      ],
      "stateMutability": "view",
      "type": "function"
    },
    {
      "inputs": [],
      "name": "pause",
      "outputs": [],
      "stateMutability": "nonpayable",
      "type": "function"
    },
    {
      "inputs": [],
      "name": "paused",
      "outputs": [
        {
          "internalType": "bool",
          "name": "",
          "type": "bool"
        }
      ],
      "stateMutability": "view",
      "type": "function"
    },
    {
      "inputs": [],
      "name": "renounceOwnership",
      "outputs": [],
      "stateMutability": "nonpayable",
      "type": "function"
    },
    {
      "inputs": [],
      "name": "symbol",
      "outputs": [
        {
          "internalType": "string",
          "name": "",
          "type": "string"
        }
      ],
      "stateMutability": "view",
      "type": "function"
    },
    {
      "inputs": [],
      "name": "totalInitialAllocations",
      "outputs": [
        {
          "internalType": "uint256",
          "name": "",
          "type": "uint256"
        }
      ],
      "stateMutability": "view",
      "type": "function"
    },
    {
      "inputs": [],
      "name": "totalSupply",
      "outputs": [
        {
          "internalType": "uint256",
          "name": "",
          "type": "uint256"
        }
      ],
      "stateMutability": "view",
      "type": "function"
    },
    {
      "inputs": [
        {
          "internalType": "address",
          "name": "to",
          "type": "address"
        },
        {
          "internalType": "uint256",
          "name": "value",
          "type": "uint256"
        }
      ],
      "name": "transfer",
      "outputs": [
        {
          "internalType": "bool",
          "name": "",
          "type": "bool"
        }
      ],
      "stateMutability": "nonpayable",
      "type": "function"
    },
    {
      "inputs": [
        {
          "internalType": "address",
          "name": "from",
          "type": "address"
        },
        {
          "internalType": "address",
          "name": "to",
          "type": "address"
        },
        {
          "internalType": "uint256",
          "name": "value",
          "type": "uint256"
        }
      ],
      "name": "transferFrom",
      "outputs": [
        {
          "internalType": "bool",
          "name": "",
          "type": "bool"
        }
      ],
      "stateMutability": "nonpayable",
      "type": "function"
    },
    {
      "inputs": [
        {
          "internalType": "address",
          "name": "newOwner",
          "type": "address"
        }
      ],
      "name": "transferOwnership",
      "outputs": [],
      "stateMutability": "nonpayable",
      "type": "function"
    },
    {
      "inputs": [],
      "name": "unpause",
      "outputs": [],
      "stateMutability": "nonpayable",
      "type": "function"
    },
    {
      "inputs": [
        {
          "internalType": "uint256",
          "name": "newMax",
          "type": "uint256"
        }
      ],
      "name": "updateMaxInitialAllocations",
      "outputs": [],
      "stateMutability": "nonpayable",
      "type": "function"
    }
  ],
  "bytecode": "0x60806040526113886008553480156200001757600080fd5b50336040518060400160405280601581526020017f416d616368204865616c74682050726f746f636f6c00000000000000000000008152506040518060400160405280600381526020016204148560ec1b81525081600390816200007c9190620003ad565b5060046200008b8282620003ad565b5050506001600160a01b038116620000be57604051631e4fbdf760e01b8152600060048201526024015b60405180910390fd5b620000c981620000e8565b50620000e2336b019d971e4fe8401e740000006200013a565b620004a1565b600580546001600160a01b038381166001600160a01b0319831681179093556040519116919082907f8be0079c531659141344cd1fd0a4f28419497f9722a3daafe3b4186f6b6457e090600090a35050565b6001600160a01b038216620001665760405163ec442f0560e01b815260006004820152602401620000b5565b620001746000838362000178565b5050565b620001858383836200018a565b505050565b62000194620001a1565b62000185838383620001d6565b620001b5600554600160a01b900460ff1690565b15620001d45760405163d93c066560e01b815260040160405180910390fd5b565b6001600160a01b03831662000205578060026000828254620001f9919062000479565b90915550620002799050565b6001600160a01b038316600090815260208190526040902054818110156200025a5760405163391434e360e21b81526001600160a01b03851660048201526024810182905260448101839052606401620000b5565b6001600160a01b03841660009081526020819052604090209082900390555b6001600160a01b0382166200029757600280548290039055620002b6565b6001600160a01b03821660009081526020819052604090208054820190555b816001600160a01b0316836001600160a01b03167fddf252ad1be2c89b69c2b068fc378daa952ba7f163c4a11628f55a4df523b3ef83604051620002fc91815260200190565b60405180910390a3505050565b634e487b7160e01b600052604160045260246000fd5b600181811c908216806200033457607f821691505b6020821081036200035557634e487b7160e01b600052602260045260246000fd5b50919050565b601f8211156200018557600081815260208120601f850160051c81016020861015620003845750805b601f850160051c820191505b81811015620003a55782815560010162000390565b505050505050565b81516001600160401b03811115620003c957620003c962000309565b620003e181620003da84546200031f565b846200035b565b602080601f831160018114620004195760008415620004005750858301515b600019600386901b1c1916600185901b178555620003a5565b600085815260208120601f198616915b828110156200044a5788860151825594840194600190910190840162000429565b5085821015620004695787850151600019600388901b60f8161c191681555b5050505050600190811b01905550565b808201808211156200049b57634e487b7160e01b600052601160045260246000fd5b92915050565b610f3d80620004b16000396000f3fe608060405234801561001057600080fd5b50600436106101a95760003560e01c806342966c68116100f95780638456cb5911610097578063a0422ef611610071578063a0422ef614610376578063a9059cbb14610389578063dd62ed3e1461039c578063f2fde38b146103d557600080fd5b80638456cb591461034b5780638da5cb5b1461035357806395d89b411461036e57600080fd5b806366ec590e116100d357806366ec590e146102fe57806370a0823114610307578063715018a61461033057806379cc67901461033857600080fd5b806342966c68146102d05780634492122b146102e35780635c975abb146102ec57600080fd5b806323b872dd1161016657806332cb6b0c1161014057806332cb6b0c1461029a5780633f4ba83a146102ad5780633f7bb8c1146102b557806340c10f19146102bd57600080fd5b806323b872dd146102655780632ff2e9dc14610278578063313ce5671461028b57600080fd5b8063042438e8146101ae57806306fdde03146101c3578063095ea7b3146101e1578063118b8ba41461020457806318160ddd146102305780631eca649514610242575b600080fd5b6101c16101bc366004610d3a565b6103e8565b005b6101cb610492565b6040516101d89190610d53565b60405180910390f35b6101f46101ef366004610dbd565b610524565b60405190151581526020016101d8565b6101f4610212366004610de7565b6001600160a01b031660009081526006602052604090205460ff1690565b6002545b6040519081526020016101d8565b6101f4610250366004610de7565b60066020526000908152604090205460ff1681565b6101f4610273366004610e09565b61053e565b6102346b019d971e4fe8401e7400000081565b604051601281526020016101d8565b6102346b033b2e3c9fd0803ce800000081565b6101c1610562565b610234610574565b6101c16102cb366004610dbd565b61058b565b6101c16102de366004610d3a565b61060a565b61023460075481565b600554600160a01b900460ff166101f4565b61023460085481565b610234610315366004610de7565b6001600160a01b031660009081526020819052604090205490565b6101c1610617565b6101c1610346366004610dbd565b610629565b6101c161063e565b6005546040516001600160a01b0390911681526020016101d8565b6101cb61064e565b6101c1610384366004610dbd565b61065d565b6101f4610397366004610dbd565b610811565b6102346103aa366004610e45565b6001600160a01b03918216600090815260016020908152604080832093909416825291909152205490565b6101c16103e3366004610de7565b61081f565b6103f061085a565b6007548110156104575760405162461bcd60e51b815260206004820152602760248201527f43616e6e6f74207265647563652062656c6f772063757272656e7420616c6c6f604482015266636174696f6e7360c81b60648201526084015b60405180910390fd5b60088190556040518181527f1a3f6d95af27c086684166820317a17674828dcbaeaf4c5a17c23875ad802b3a9060200160405180910390a150565b6060600380546104a190610e78565b80601f01602080910402602001604051908101604052809291908181526020018280546104cd90610e78565b801561051a5780601f106104ef5761010080835404028352916020019161051a565b820191906000526020600020905b8154815290600101906020018083116104fd57829003601f168201915b5050505050905090565b600033610532818585610887565b60019150505b92915050565b60003361054c858285610899565b610557858585610918565b506001949350505050565b61056a61085a565b610572610977565b565b60006007546008546105869190610ec8565b905090565b61059361085a565b6b033b2e3c9fd0803ce8000000816105aa60025490565b6105b49190610edb565b11156105fc5760405162461bcd60e51b8152602060048201526017602482015276576f756c6420657863656564206d617820737570706c7960481b604482015260640161044e565b61060682826109cc565b5050565b6106143382610a02565b50565b61061f61085a565b6105726000610a38565b610634823383610899565b6106068282610a02565b61064661085a565b610572610a8a565b6060600480546104a190610e78565b61066561085a565b600854600754106106b85760405162461bcd60e51b815260206004820152601f60248201527f4d617820696e697469616c20616c6c6f636174696f6e73207265616368656400604482015260640161044e565b6001600160a01b03821660009081526006602052604090205460ff16156107215760405162461bcd60e51b815260206004820181905260248201527f5573657220616c726561647920726563656976656420616c6c6f636174696f6e604482015260640161044e565b6b033b2e3c9fd0803ce80000008161073860025490565b6107429190610edb565b111561078a5760405162461bcd60e51b8152602060048201526017602482015276576f756c6420657863656564206d617820737570706c7960481b604482015260640161044e565b6001600160a01b0382166000908152600660205260408120805460ff1916600117905560078054916107bb83610eee565b91905055506107ca82826109cc565b816001600160a01b03167f40a3511cee0cd9e68eeac331ab798a8efb9b5f7f76cc8efb5392e96e4d25c7ef8260405161080591815260200190565b60405180910390a25050565b600033610532818585610918565b61082761085a565b6001600160a01b03811661085157604051631e4fbdf760e01b81526000600482015260240161044e565b61061481610a38565b6005546001600160a01b031633146105725760405163118cdaa760e01b815233600482015260240161044e565b6108948383836001610acd565b505050565b6001600160a01b03838116600090815260016020908152604080832093861683529290522054600019811015610912578181101561090357604051637dc7a0d960e11b81526001600160a01b0384166004820152602481018290526044810183905260640161044e565b61091284848484036000610acd565b50505050565b6001600160a01b03831661094257604051634b637e8f60e11b81526000600482015260240161044e565b6001600160a01b03821661096c5760405163ec442f0560e01b81526000600482015260240161044e565b610894838383610ba2565b61097f610bad565b6005805460ff60a01b191690557f5db9ee0a495bf2e6ff9c91a7834c1ba4fdd244a5e8aa4e537bd38aeae4b073aa335b6040516001600160a01b03909116815260200160405180910390a1565b6001600160a01b0382166109f65760405163ec442f0560e01b81526000600482015260240161044e565b61060660008383610ba2565b6001600160a01b038216610a2c57604051634b637e8f60e11b81526000600482015260240161044e565b61060682600083610ba2565b600580546001600160a01b038381166001600160a01b0319831681179093556040519116919082907f8be0079c531659141344cd1fd0a4f28419497f9722a3daafe3b4186f6b6457e090600090a35050565b610a92610bd7565b6005805460ff60a01b1916600160a01b1790557f62e78cea01bee320cd4e420270b5ea74000d11b0c9f74754ebdbfc544b05a2586109af3390565b6001600160a01b038416610af75760405163e602df0560e01b81526000600482015260240161044e565b6001600160a01b038316610b2157604051634a1406b160e11b81526000600482015260240161044e565b6001600160a01b038085166000908152600160209081526040808320938716835292905220829055801561091257826001600160a01b0316846001600160a01b03167f8c5be1e5ebec7d5bd14f71427d1e84f3dd0314c0f7b2291e5b200ac8c7c3b92584604051610b9491815260200190565b60405180910390a350505050565b610894838383610c02565b600554600160a01b900460ff1661057257604051638dfc202b60e01b815260040160405180910390fd5b600554600160a01b900460ff16156105725760405163d93c066560e01b815260040160405180910390fd5b610c0a610bd7565b6108948383836001600160a01b038316610c3b578060026000828254610c309190610edb565b90915550610cad9050565b6001600160a01b03831660009081526020819052604090205481811015610c8e5760405163391434e360e21b81526001600160a01b0385166004820152602481018290526044810183905260640161044e565b6001600160a01b03841660009081526020819052604090209082900390555b6001600160a01b038216610cc957600280548290039055610ce8565b6001600160a01b03821660009081526020819052604090208054820190555b816001600160a01b0316836001600160a01b03167fddf252ad1be2c89b69c2b068fc378daa952ba7f163c4a11628f55a4df523b3ef83604051610d2d91815260200190565b60405180910390a3505050565b600060208284031215610d4c57600080fd5b5035919050565b600060208083528351808285015260005b81811015610d8057858101830151858201604001528201610d64565b506000604082860101526040601f19601f8301168501019250505092915050565b80356001600160a01b0381168114610db857600080fd5b919050565b60008060408385031215610dd057600080fd5b610dd983610da1565b946020939093013593505050565b600060208284031215610df957600080fd5b610e0282610da1565b9392505050565b600080600060608486031215610e1e57600080fd5b610e2784610da1565b9250610e3560208501610da1565b9150604084013590509250925092565b60008060408385031215610e5857600080fd5b610e6183610da1565b9150610e6f60208401610da1565b90509250929050565b600181811c90821680610e8c57607f821691505b602082108103610eac57634e487b7160e01b600052602260045260246000fd5b50919050565b634e487b7160e01b600052601160045260246000fd5b8181038181111561053857610538610eb2565b8082018082111561053857610538610eb2565b600060018201610f0057610f00610eb2565b506001019056fea26469706673582212208ff1a92c53012888eb196aa47a91eb877288811da7b0188448bd26be46f7feec64736f6c63430008140033",
  "linkReferences": {},
  "deployedLinkReferences": {}
}