{
  "contracts/ProfileVerification.sol": {
    "ProfileVerification": {
      "abi": [
        {
          "inputs": [],
          "stateMutability": "nonpayable",
          "type": "constructor"
        },
        {
          "inputs": [],
          "name": "ECDSAInvalidSignature",
          "type": "error"
        },
        {
          "inputs": [
            {
              "internalType": "uint256",
              "name": "length",
              "type": "uint256"
            }
          ],
          "name": "ECDSAInvalidSignatureLength",
          "type": "error"
        },
        {
          "inputs": [
            {
              "internalType": "bytes32",
              "name": "s",
              "type": "bytes32"
            }
          ],
          "name": "ECDSAInvalidSignatureS",
          "type": "error"
        },
        {
          "inputs": [
            {
              "internalType": "address",
              "name": "owner",
              "type": "address"
            }
          ],
          "name": "OwnableInvalidOwner",
          "type": "error"
        },
        {
          "inputs": [
            {
              "internalType": "address",
              "name": "account",
              "type": "address"
            }
          ],
          "name": "OwnableUnauthorizedAccount",
          "type": "error"
        },
        {
          "inputs": [],
          "name": "ReentrancyGuardReentrantCall",
          "type": "error"
        },
        {
          "anonymous": false,
          "inputs": [
            {
              "indexed": true,
              "internalType": "address",
              "name": "user",
              "type": "address"
            },
            {
              "indexed": false,
              "internalType": "uint256",
              "name": "amount",
              "type": "uint256"
            },
            {
              "indexed": false,
              "internalType": "uint256",
              "name": "allocationId",
              "type": "uint256"
            },
            {
              "indexed": false,
              "internalType": "uint256",
              "name": "timestamp",
              "type": "uint256"
            }
          ],
          "name": "AllocationRecorded",
          "type": "event"
        },
        {
          "anonymous": false,
          "inputs": [
            {
              "indexed": true,
              "internalType": "string",
              "name": "email",
              "type": "string"
            },
            {
              "indexed": true,
              "internalType": "address",
              "name": "admin",
              "type": "address"
            },
            {
              "indexed": false,
              "internalType": "uint256",
              "name": "timestamp",
              "type": "uint256"
            }
          ],
          "name": "EmailRemovedFromWhitelist",
          "type": "event"
        },
        {
          "anonymous": false,
          "inputs": [
            {
              "indexed": true,
              "internalType": "string",
              "name": "email",
              "type": "string"
            },
            {
              "indexed": true,
              "internalType": "address",
              "name": "admin",
              "type": "address"
            },
            {
              "indexed": false,
              "internalType": "uint256",
              "name": "timestamp",
              "type": "uint256"
            }
          ],
          "name": "EmailWhitelisted",
          "type": "event"
        },
        {
          "anonymous": false,
          "inputs": [
            {
              "indexed": true,
              "internalType": "address",
              "name": "previousOwner",
              "type": "address"
            },
            {
              "indexed": true,
              "internalType": "address",
              "name": "newOwner",
              "type": "address"
            }
          ],
          "name": "OwnershipTransferred",
          "type": "event"
        },
        {
          "anonymous": false,
          "inputs": [
            {
              "indexed": true,
              "internalType": "address",
              "name": "user",
              "type": "address"
            },
            {
              "indexed": false,
              "internalType": "uint256",
              "name": "amount",
              "type": "uint256"
            },
            {
              "indexed": false,
              "internalType": "uint256",
              "name": "timestamp",
              "type": "uint256"
            }
          ],
          "name": "TokensClaimed",
          "type": "event"
        },
        {
          "anonymous": false,
          "inputs": [
            {
              "indexed": true,
              "internalType": "string",
              "name": "email",
              "type": "string"
            },
            {
              "indexed": true,
              "internalType": "address",
              "name": "wallet",
              "type": "address"
            },
            {
              "indexed": true,
              "internalType": "uint256",
              "name": "userId",
              "type": "uint256"
            },
            {
              "indexed": false,
              "internalType": "uint256",
              "name": "timestamp",
              "type": "uint256"
            }
          ],
          "name": "UserVerified",
          "type": "event"
        },
        {
          "anonymous": false,
          "inputs": [
            {
              "indexed": true,
              "internalType": "string",
              "name": "email",
              "type": "string"
            },
            {
              "indexed": true,
              "internalType": "address",
              "name": "wallet",
              "type": "address"
            },
            {
              "indexed": false,
              "internalType": "uint256",
              "name": "timestamp",
              "type": "uint256"
            }
          ],
          "name": "WalletLinked",
          "type": "event"
        },
        {
          "anonymous": false,
          "inputs": [
            {
              "indexed": true,
              "internalType": "string",
              "name": "email",
              "type": "string"
            },
            {
              "indexed": true,
              "internalType": "address",
              "name": "wallet",
              "type": "address"
            },
            {
              "indexed": false,
              "internalType": "uint256",
              "name": "timestamp",
              "type": "uint256"
            }
          ],
          "name": "WalletUnlinked",
          "type": "event"
        },
        {
          "inputs": [
            {
              "internalType": "string",
              "name": "email",
              "type": "string"
            }
          ],
          "name": "addEmailToWhitelist",
          "outputs": [],
          "stateMutability": "nonpayable",
          "type": "function"
        },
        {
          "inputs": [
            {
              "internalType": "string[]",
              "name": "emails",
              "type": "string[]"
            }
          ],
          "name": "addEmailsToWhitelist",
          "outputs": [],
          "stateMutability": "nonpayable",
          "type": "function"
        },
        {
          "inputs": [],
          "name": "allocationConfig",
          "outputs": [
            {
              "internalType": "uint256",
              "name": "totalAllocated",
              "type": "uint256"
            },
            {
              "internalType": "uint256",
              "name": "maxAllocations",
              "type": "uint256"
            },
            {
              "internalType": "uint256",
              "name": "allocationPerUser",
              "type": "uint256"
            },
            {
              "internalType": "bool",
              "name": "isActive",
              "type": "bool"
            }
          ],
          "stateMutability": "view",
          "type": "function"
        },
        {
          "inputs": [],
          "name": "claimAllocation",
          "outputs": [],
          "stateMutability": "nonpayable",
          "type": "function"
        },
        {
          "inputs": [
            {
              "internalType": "address",
              "name": "user",
              "type": "address"
            }
          ],
          "name": "deactivateUser",
          "outputs": [],
          "stateMutability": "nonpayable",
          "type": "function"
        },
        {
          "inputs": [
            {
              "internalType": "bytes32",
              "name": "",
              "type": "bytes32"
            }
          ],
          "name": "emailHashWhitelist",
          "outputs": [
            {
              "internalType": "bool",
              "name": "",
              "type": "bool"
            }
          ],
          "stateMutability": "view",
          "type": "function"
        },
        {
          "inputs": [
            {
              "internalType": "string",
              "name": "",
              "type": "string"
            }
          ],
          "name": "emailToWallet",
          "outputs": [
            {
              "internalType": "address",
              "name": "",
              "type": "address"
            }
          ],
          "stateMutability": "view",
          "type": "function"
        },
        {
          "inputs": [
            {
              "internalType": "address",
              "name": "user",
              "type": "address"
            },
            {
              "internalType": "bytes",
              "name": "signature",
              "type": "bytes"
            }
          ],
          "name": "generateMigrationProof",
          "outputs": [
            {
              "internalType": "bytes32",
              "name": "migrationHash",
              "type": "bytes32"
            }
          ],
          "stateMutability": "nonpayable",
          "type": "function"
        },
        {
          "inputs": [],
          "name": "getAllocationConfig",
          "outputs": [
            {
              "components": [
                {
                  "internalType": "uint256",
                  "name": "totalAllocated",
                  "type": "uint256"
                },
                {
                  "internalType": "uint256",
                  "name": "maxAllocations",
                  "type": "uint256"
                },
                {
                  "internalType": "uint256",
                  "name": "allocationPerUser",
                  "type": "uint256"
                },
                {
                  "internalType": "bool",
                  "name": "isActive",
                  "type": "bool"
                }
              ],
              "internalType": "struct ProfileVerification.AllocationConfig",
              "name": "config",
              "type": "tuple"
            }
          ],
          "stateMutability": "view",
          "type": "function"
        },
        {
          "inputs": [],
          "name": "getTotalVerifiedUsers",
          "outputs": [
            {
              "internalType": "uint256",
              "name": "count",
              "type": "uint256"
            }
          ],
          "stateMutability": "view",
          "type": "function"
        },
        {
          "inputs": [
            {
              "internalType": "address",
              "name": "user",
              "type": "address"
            }
          ],
          "name": "getUserVerification",
          "outputs": [
            {
              "components": [
                {
                  "internalType": "string",
                  "name": "email",
                  "type": "string"
                },
                {
                  "internalType": "address",
                  "name": "wallet",
                  "type": "address"
                },
                {
                  "internalType": "uint256",
                  "name": "userId",
                  "type": "uint256"
                },
                {
                  "internalType": "uint256",
                  "name": "timestamp",
                  "type": "uint256"
                },
                {
                  "internalType": "bool",
                  "name": "isActive",
                  "type": "bool"
                },
                {
                  "internalType": "bool",
                  "name": "hasReceivedTokens",
                  "type": "bool"
                },
                {
                  "internalType": "uint256",
                  "name": "tokenAllocation",
                  "type": "uint256"
                }
              ],
              "internalType": "struct ProfileVerification.UserVerification",
              "name": "verification",
              "type": "tuple"
            }
          ],
          "stateMutability": "view",
          "type": "function"
        },
        {
          "inputs": [
            {
              "internalType": "string",
              "name": "email",
              "type": "string"
            }
          ],
          "name": "getVerificationByEmail",
          "outputs": [
            {
              "components": [
                {
                  "internalType": "string",
                  "name": "email",
                  "type": "string"
                },
                {
                  "internalType": "address",
                  "name": "wallet",
                  "type": "address"
                },
                {
                  "internalType": "uint256",
                  "name": "userId",
                  "type": "uint256"
                },
                {
                  "internalType": "uint256",
                  "name": "timestamp",
                  "type": "uint256"
                },
                {
                  "internalType": "bool",
                  "name": "isActive",
                  "type": "bool"
                },
                {
                  "internalType": "bool",
                  "name": "hasReceivedTokens",
                  "type": "bool"
                },
                {
                  "internalType": "uint256",
                  "name": "tokenAllocation",
                  "type": "uint256"
                }
              ],
              "internalType": "struct ProfileVerification.UserVerification",
              "name": "verification",
              "type": "tuple"
            }
          ],
          "stateMutability": "view",
          "type": "function"
        },
        {
          "inputs": [],
          "name": "healthToken",
          "outputs": [
            {
              "internalType": "contract IERC20",
              "name": "",
              "type": "address"
            }
          ],
          "stateMutability": "view",
          "type": "function"
        },
        {
          "inputs": [
            {
              "internalType": "bytes32",
              "name": "emailHash",
              "type": "bytes32"
            }
          ],
          "name": "isEmailHashWhitelisted",
          "outputs": [
            {
              "internalType": "bool",
              "name": "isWhitelisted",
              "type": "bool"
            }
          ],
          "stateMutability": "view",
          "type": "function"
        },
        {
          "inputs": [
            {
              "internalType": "string",
              "name": "email",
              "type": "string"
            }
          ],
          "name": "isEmailInUse",
          "outputs": [
            {
              "internalType": "bool",
              "name": "isInUse",
              "type": "bool"
            }
          ],
          "stateMutability": "view",
          "type": "function"
        },
        {
          "inputs": [
            {
              "internalType": "string",
              "name": "email",
              "type": "string"
            }
          ],
          "name": "isEmailWhitelisted",
          "outputs": [
            {
              "internalType": "bool",
              "name": "isWhitelisted",
              "type": "bool"
            }
          ],
          "stateMutability": "view",
          "type": "function"
        },
        {
          "inputs": [
            {
              "internalType": "address",
              "name": "user",
              "type": "address"
            }
          ],
          "name": "isUserVerified",
          "outputs": [
            {
              "internalType": "bool",
              "name": "isVerified",
              "type": "bool"
            }
          ],
          "stateMutability": "view",
          "type": "function"
        },
        {
          "inputs": [
            {
              "internalType": "address",
              "name": "wallet",
              "type": "address"
            }
          ],
          "name": "isWalletInUse",
          "outputs": [
            {
              "internalType": "bool",
              "name": "isInUse",
              "type": "bool"
            }
          ],
          "stateMutability": "view",
          "type": "function"
        },
        {
          "inputs": [],
          "name": "mainnetMigrationContract",
          "outputs": [
            {
              "internalType": "address",
              "name": "",
              "type": "address"
            }
          ],
          "stateMutability": "view",
          "type": "function"
        },
        {
          "inputs": [],
          "name": "nextUserId",
          "outputs": [
            {
              "internalType": "uint256",
              "name": "",
              "type": "uint256"
            }
          ],
          "stateMutability": "view",
          "type": "function"
        },
        {
          "inputs": [],
          "name": "owner",
          "outputs": [
            {
              "internalType": "address",
              "name": "",
              "type": "address"
            }
          ],
          "stateMutability": "view",
          "type": "function"
        },
        {
          "inputs": [
            {
              "internalType": "string",
              "name": "email",
              "type": "string"
            }
          ],
          "name": "removeEmailFromWhitelist",
          "outputs": [],
          "stateMutability": "nonpayable",
          "type": "function"
        },
        {
          "inputs": [],
          "name": "renounceOwnership",
          "outputs": [],
          "stateMutability": "nonpayable",
          "type": "function"
        },
        {
          "inputs": [
            {
              "internalType": "address",
              "name": "_healthToken",
              "type": "address"
            }
          ],
          "name": "setHealthToken",
          "outputs": [],
          "stateMutability": "nonpayable",
          "type": "function"
        },
        {
          "inputs": [
            {
              "internalType": "address",
              "name": "_mainnetMigrationContract",
              "type": "address"
            }
          ],
          "name": "setMainnetMigrationContract",
          "outputs": [],
          "stateMutability": "nonpayable",
          "type": "function"
        },
        {
          "inputs": [
            {
              "internalType": "bool",
              "name": "enabled",
              "type": "bool"
            }
          ],
          "name": "setVerificationEnabled",
          "outputs": [],
          "stateMutability": "nonpayable",
          "type": "function"
        },
        {
          "inputs": [],
          "name": "totalVerifiedUsers",
          "outputs": [
            {
              "internalType": "uint256",
              "name": "",
              "type": "uint256"
            }
          ],
          "stateMutability": "view",
          "type": "function"
        },
        {
          "inputs": [
            {
              "internalType": "address",
              "name": "newOwner",
              "type": "address"
            }
          ],
          "name": "transferOwnership",
          "outputs": [],
          "stateMutability": "nonpayable",
          "type": "function"
        },
        {
          "inputs": [
            {
              "internalType": "uint256",
              "name": "maxAllocations",
              "type": "uint256"
            },
            {
              "internalType": "uint256",
              "name": "allocationPerUser",
              "type": "uint256"
            },
            {
              "internalType": "bool",
              "name": "isActive",
              "type": "bool"
            }
          ],
          "name": "updateAllocationConfig",
          "outputs": [],
          "stateMutability": "nonpayable",
          "type": "function"
        },
        {
          "inputs": [
            {
              "internalType": "uint256",
              "name": "",
              "type": "uint256"
            }
          ],
          "name": "userIdToVerification",
          "outputs": [
            {
              "internalType": "string",
              "name": "email",
              "type": "string"
            },
            {
              "internalType": "address",
              "name": "wallet",
              "type": "address"
            },
            {
              "internalType": "uint256",
              "name": "userId",
              "type": "uint256"
            },
            {
              "internalType": "uint256",
              "name": "timestamp",
              "type": "uint256"
            },
            {
              "internalType": "bool",
              "name": "isActive",
              "type": "bool"
            },
            {
              "internalType": "bool",
              "name": "hasReceivedTokens",
              "type": "bool"
            },
            {
              "internalType": "uint256",
              "name": "tokenAllocation",
              "type": "uint256"
            }
          ],
          "stateMutability": "view",
          "type": "function"
        },
        {
          "inputs": [
            {
              "internalType": "address",
              "name": "",
              "type": "address"
            }
          ],
          "name": "userVerifications",
          "outputs": [
            {
              "internalType": "string",
              "name": "email",
              "type": "string"
            },
            {
              "internalType": "address",
              "name": "wallet",
              "type": "address"
            },
            {
              "internalType": "uint256",
              "name": "userId",
              "type": "uint256"
            },
            {
              "internalType": "uint256",
              "name": "timestamp",
              "type": "uint256"
            },
            {
              "internalType": "bool",
              "name": "isActive",
              "type": "bool"
            },
            {
              "internalType": "bool",
              "name": "hasReceivedTokens",
              "type": "bool"
            },
            {
              "internalType": "uint256",
              "name": "tokenAllocation",
              "type": "uint256"
            }
          ],
          "stateMutability": "view",
          "type": "function"
        },
        {
          "inputs": [],
          "name": "verificationEnabled",
          "outputs": [
            {
              "internalType": "bool",
              "name": "",
              "type": "bool"
            }
          ],
          "stateMutability": "view",
          "type": "function"
        },
        {
          "inputs": [
            {
              "internalType": "string",
              "name": "email",
              "type": "string"
            },
            {
              "internalType": "bytes",
              "name": "signature",
              "type": "bytes"
            }
          ],
          "name": "verifyProfile",
          "outputs": [],
          "stateMutability": "nonpayable",
          "type": "function"
        },
        {
          "inputs": [
            {
              "internalType": "string",
              "name": "email",
              "type": "string"
            }
          ],
          "name": "verifyProfileZKsync",
          "outputs": [],
          "stateMutability": "nonpayable",
          "type": "function"
        },
        {
          "inputs": [
            {
              "internalType": "address",
              "name": "",
              "type": "address"
            }
          ],
          "name": "walletToEmail",
          "outputs": [
            {
              "internalType": "string",
              "name": "",
              "type": "string"
            }
          ],
          "stateMutability": "view",
          "type": "function"
        }
      ],
      "evm": {
        "bytecode": {
          "linkReferences": {},
          "object": "6080604052600f805460ff1916600117905534801561001d57600080fd5b50338061004457604051631e4fbdf760e01b81526000600482015260240160405180910390fd5b61004d8161009f565b50600180805560408051608081018252600080825261138860208301819052683635c9adc5dea000009383018490526060909201849052600755600855600955600a805460ff191690911790556100ef565b600080546001600160a01b038381166001600160a01b0319831681178455604051919092169283917f8be0079c531659141344cd1fd0a4f28419497f9722a3daafe3b4186f6b6457e09190a35050565b612a2c80620000ff6000396000f3fe608060405234801561001057600080fd5b50600436106102115760003560e01c8063739709b611610125578063b36c6d1f116100ad578063c9dbabe91161007c578063c9dbabe914610511578063d2d1fb251461051e578063e792b12414610526578063efa4ae0014610549578063f2fde38b1461055c57600080fd5b8063b36c6d1f146104c5578063b5856eac146104d8578063bf9c1b1b146104eb578063c6b0ac85146104fe57600080fd5b80638da5cb5b116100f45780638da5cb5b146104725780639d139d7d14610483578063a1e6a25514610496578063ace417e01461049f578063ad5aea4c146104b257600080fd5b8063739709b61461042457806385db9d2c1461043757806385f3683b1461044a5780638c1f3a8c1461046a57600080fd5b806334627dea116101a8578063466162681161017757806346616268146103b05780634737a250146103c357806359d61e45146103d65780635a1420df14610409578063715018a61461041c57600080fd5b806334627dea14610364578063372dfc49146103775780633793438d1461038a5780633f5f2acd1461039d57600080fd5b80631a47767b116101e45780631a47767b146102d057806321918829146102e357806321c01deb146103035780632b0999941461033e57600080fd5b8063018763e91461021657806307bb4ee31461022b5780630b2369531461027c5780630b3d0887146102b9575b600080fd5b61022961022436600461232b565b61056f565b005b61025f6102393660046123ee565b80516020818301810180516004825292820191909301209152546001600160a01b031681565b6040516001600160a01b0390911681526020015b60405180910390f35b610284610656565b604051610273919081518152602080830151908201526040808301519082015260609182015115159181019190915260800190565b6102c2600d5481565b604051908152602001610273565b6102296102de366004612447565b6106b5565b6102f66102f13660046123ee565b610891565b60405161027391906124b9565b600754600854600954600a5461031c9392919060ff1684565b6040805194855260208501939093529183015215156060820152608001610273565b61035161034c36600461252a565b610a14565b6040516102739796959493929190612543565b600b5461025f906001600160a01b031681565b6102296103853660046123ee565b610ae8565b6102296103983660046123ee565b610bc5565b6102296103ab366004612447565b610d0c565b6103516103be366004612447565b610d36565b6102296103d13660046125a0565b610d51565b6103f96103e436600461252a565b60026020526000908152604090205460ff1681565b6040519015158152602001610273565b6102296104173660046125bd565b610d6c565b610229610d90565b6102296104323660046125f6565b610da4565b6103f96104453660046123ee565b611030565b61045d610458366004612447565b611055565b604051610273919061265a565b600d546102c2565b6000546001600160a01b031661025f565b6103f96104913660046123ee565b6110ef565b6102c2600e5481565b6103f96104ad366004612447565b61112c565b6102c26104c036600461266d565b611179565b6102f66104d3366004612447565b611345565b6102296104e6366004612447565b611458565b6103f96104f9366004612447565b611482565b600c5461025f906001600160a01b031681565b600f546103f99060ff1681565b6102296114b2565b6103f961053436600461252a565b60009081526002602052604090205460ff1690565b6102296105573660046123ee565b61187d565b61022961056a366004612447565b611947565b610577611982565b60005b81518110156106525760006105a783838151811061059a5761059a6126b1565b60200260200101516119af565b60008181526002602052604090205490915060ff1661063f576000818152600260205260409020805460ff19166001179055825133908490849081106105ef576105ef6126b1565b602002602001015160405161060491906126c7565b604051908190038120428252907f7fe370a25dc2a72737d82c7b84942440b8d587d9ff700505d16c1abe20ada9809060200160405180910390a35b508061064a816126f9565b91505061057a565b5050565b61068360405180608001604052806000815260200160008152602001600081526020016000151581525090565b50604080516080810182526007548152600854602082015260095491810191909152600a5460ff161515606082015290565b6106bd611982565b6001600160a01b03811660009081526005602052604090206004015460ff1661071f5760405162461bcd60e51b815260206004820152600f60248201526e55736572206e6f742061637469766560881b60448201526064015b60405180910390fd5b6001600160a01b038116600090815260056020526040812060048101805460ff191690558054909190829061075390612712565b80601f016020809104026020016040519081016040528092919081815260200182805461077f90612712565b80156107cc5780601f106107a1576101008083540402835291602001916107cc565b820191906000526020600020905b8154815290600101906020018083116107af57829003601f168201915b5050604080516020808201835260008083526001600160a01b038b1681526003909152919091209495506108059350915083905061279b565b50600060048260405161081891906126c7565b90815260405190819003602001812080546001600160a01b039384166001600160a01b0319909116179055908416906108529083906126c7565b604051908190038120428252907f22a19fd46d17f548b3dd51bc0e67e4d62ef6dbb21a3a825788a80b1cdcada8f89060200160405180910390a3505050565b61089961222a565b60006004836040516108ab91906126c7565b908152604051908190036020019020546001600160a01b03169050806109085760405162461bcd60e51b8152602060048201526012602482015271115b585a5b081b9bdd081d995c9a599a595960721b6044820152606401610716565b6001600160a01b03811660009081526005602052604090819020815160e0810190925280548290829061093a90612712565b80601f016020809104026020016040519081016040528092919081815260200182805461096690612712565b80156109b35780601f10610988576101008083540402835291602001916109b3565b820191906000526020600020905b81548152906001019060200180831161099657829003601f168201915b505050918352505060018201546001600160a01b031660208201526002820154604082015260038201546060820152600482015460ff8082161515608084015261010090910416151560a082015260059091015460c0909101529392505050565b600660205260009081526040902080548190610a2f90612712565b80601f0160208091040260200160405190810160405280929190818152602001828054610a5b90612712565b8015610aa85780601f10610a7d57610100808354040283529160200191610aa8565b820191906000526020600020905b815481529060010190602001808311610a8b57829003601f168201915b505050600184015460028501546003860154600487015460059097015495966001600160a01b0390931695919450925060ff808316926101009004169087565b610af0611982565b6000610afb826119af565b60008181526002602052604090205490915060ff1615610b5d5760405162461bcd60e51b815260206004820152601960248201527f456d61696c20616c72656164792077686974656c6973746564000000000000006044820152606401610716565b60008181526002602052604090819020805460ff19166001179055513390610b869084906126c7565b604051908190038120428252907f7fe370a25dc2a72737d82c7b84942440b8d587d9ff700505d16c1abe20ada980906020015b60405180910390a35050565b610bcd6119e7565b600f5460ff16610c1a5760405162461bcd60e51b815260206004820152601860248201527715995c9a599a58d85d1a5bdb881a5cc8191a5cd8589b195960421b6044820152606401610716565b8060006001600160a01b0316600482604051610c3691906126c7565b908152604051908190036020019020546001600160a01b031614610c935760405162461bcd60e51b8152602060048201526014602482015273456d61696c20616c726561647920696e2075736560601b6044820152606401610716565b3360008181526003602052604090208054610cad90612712565b159050610cf45760405162461bcd60e51b815260206004820152601560248201527457616c6c657420616c726561647920696e2075736560581b6044820152606401610716565b610cfe8333611a11565b5050610d0960018055565b50565b610d14611982565b600b80546001600160a01b0319166001600160a01b0392909216919091179055565b600560205260009081526040902080548190610a2f90612712565b610d59611982565b600f805460ff1916911515919091179055565b610d74611982565b600892909255600955600a805460ff1916911515919091179055565b610d98611982565b610da26000611e78565b565b610dac6119e7565b600f5460ff16610df95760405162461bcd60e51b815260206004820152601860248201527715995c9a599a58d85d1a5bdb881a5cc8191a5cd8589b195960421b6044820152606401610716565b816000610e05826119af565b60008181526002602052604090205490915060ff16610e5e5760405162461bcd60e51b8152602060048201526015602482015274115b585a5b081b9bdd081dda1a5d195b1a5cdd1959605a1b6044820152606401610716565b8360006001600160a01b0316600482604051610e7a91906126c7565b908152604051908190036020019020546001600160a01b031614610ed75760405162461bcd60e51b8152602060048201526014602482015273456d61696c20616c726561647920696e2075736560601b6044820152606401610716565b3360008181526003602052604090208054610ef190612712565b159050610f385760405162461bcd60e51b815260206004820152601560248201527457616c6c657420616c726561647920696e2075736560581b6044820152606401610716565b60008633604051602001610f4d92919061285b565b604051602081830303815290604052805190602001209050600081604051602001610fa491907f19457468657265756d205369676e6564204d6573736167653a0a3332000000008152601c810191909152603c0190565b6040516020818303038152906040528051906020012090506000610fc88289611ec8565b90506001600160a01b03811633146110165760405162461bcd60e51b8152602060048201526011602482015270496e76616c6964207369676e617475726560781b6044820152606401610716565b6110208933611a11565b5050505050505061065260018055565b60008061103c836119af565b60009081526002602052604090205460ff169392505050565b6003602052600090815260409020805461106e90612712565b80601f016020809104026020016040519081016040528092919081815260200182805461109a90612712565b80156110e75780601f106110bc576101008083540402835291602001916110e7565b820191906000526020600020905b8154815290600101906020018083116110ca57829003601f168201915b505050505081565b6000806001600160a01b031660048360405161110b91906126c7565b908152604051908190036020019020546001600160a01b0316141592915050565b6001600160a01b03811660009081526005602052604081206004015460ff16801561117357506001600160a01b038281166000908152600560205260409020600101541615155b92915050565b6001600160a01b03821660009081526005602052604081206004015460ff166111d85760405162461bcd60e51b8152602060048201526011602482015270155cd95c881b9bdd081d995c9a599a5959607a1b6044820152606401610716565b600b546001600160a01b03166112305760405162461bcd60e51b815260206004820152601a60248201527f4d6967726174696f6e20636f6e7472616374206e6f74207365740000000000006044820152606401610716565b600b5460405160009182916001600160a01b03909116906112579087908790602401612892565b60408051601f198184030181529181526020820180516001600160e01b0316632b56ba9360e21b1790525161128c91906126c7565b600060405180830381855af49150503d80600081146112c7576040519150601f19603f3d011682016040523d82523d6000602084013e6112cc565b606091505b5091509150816113285760405162461bcd60e51b815260206004820152602160248201527f4d6967726174696f6e2070726f6f662067656e65726174696f6e206661696c656044820152601960fa1b6064820152608401610716565b8080602001905181019061133c91906128b6565b95945050505050565b61134d61222a565b6001600160a01b03821660009081526005602052604090819020815160e0810190925280548290829061137f90612712565b80601f01602080910402602001604051908101604052809291908181526020018280546113ab90612712565b80156113f85780601f106113cd576101008083540402835291602001916113f8565b820191906000526020600020905b8154815290600101906020018083116113db57829003601f168201915b505050918352505060018201546001600160a01b031660208201526002820154604082015260038201546060820152600482015460ff8082161515608084015261010090910416151560a082015260059091015460c09091015292915050565b611460611982565b600c80546001600160a01b0319166001600160a01b0392909216919091179055565b6001600160a01b038116600090815260036020526040812080548291906114a890612712565b9050119050919050565b6114ba6119e7565b336000818152600560205260409020600481015460ff166115115760405162461bcd60e51b8152602060048201526011602482015270155cd95c881b9bdd081d995c9a599a5959607a1b6044820152606401610716565b60008160050154116115655760405162461bcd60e51b815260206004820152601760248201527f4e6f20616c6c6f636174696f6e20617661696c61626c650000000000000000006044820152606401610716565b6004810154610100900460ff16156115b85760405162461bcd60e51b8152602060048201526016602482015275151bdad95b9cc8185b1c9958591e4818db185a5b595960521b6044820152606401610716565b600c546001600160a01b03166116075760405162461bcd60e51b81526020600482015260146024820152731219585b1d1a081d1bdad95b881b9bdd081cd95d60621b6044820152606401610716565b60058082015460048301805461ff0019166101001790556001600160a01b0384166000908152602092909252604090912082908061164583826128cf565b5060018281015490820180546001600160a01b0319166001600160a01b03909216919091179055600280830154818301556003808401549083015560048084018054918401805460ff938416151560ff19821681178355925461010090819004909416151590930261ff001990921661ffff1990931692909217179055600592830154929091019190915582015460009081526006602052604090208290806116ee83826128cf565b5060018281015490820180546001600160a01b039283166001600160a01b0319909116179055600280840154908301556003808401549083015560048084018054828501805460ff19811660ff93841615159081178355935461ffff1990911661ff0019909416939093176101009384900490921615159092021790556005938401549390920192909255600c5460405163a9059cbb60e01b815286841692810192909252602482018490529091169063a9059cbb906044016020604051808303816000875af11580156117c6573d6000803e3d6000fd5b505050506040513d601f19601f820116820180604052508101906117ea91906129aa565b61182e5760405162461bcd60e51b8152602060048201526015602482015274151bdad95b881d1c985b9cd9995c8819985a5b1959605a1b6044820152606401610716565b604080518281524260208201526001600160a01b038516917f9923b4306c6c030f2bdfbf156517d5983b87e15b96176da122cd4f2effa4ba7b910160405180910390a2505050610da260018055565b611885611982565b6000611890826119af565b60008181526002602052604090205490915060ff166118ea5760405162461bcd60e51b8152602060048201526016602482015275115b585a5b081b9bdd081a5b881dda1a5d195b1a5cdd60521b6044820152606401610716565b60008181526002602052604090819020805460ff191690555133906119109084906126c7565b604051908190038120428252907f8514a3441f6e99c8150799dac43140a550e8ae54631e6bb831a24667a64677fb90602001610bb9565b61194f611982565b6001600160a01b03811661197957604051631e4fbdf760e01b815260006004820152602401610716565b610d0981611e78565b6000546001600160a01b03163314610da25760405163118cdaa760e01b8152336004820152602401610716565b60006119ba82611ef2565b6040516020016119ca91906126c7565b604051602081830303815290604052805190602001209050919050565b600260015403611a0a57604051633ee5aeb560e01b815260040160405180910390fd5b6002600155565b600e805460009182611a22836126f9565b909155506040805160e0810182528581526001600160a01b038516602080830182905282840185905242606084015260016080840152600060a0840181905260c084018190529182526005905291909120815192935090918291908190611a89908261279b565b506020828101516001830180546001600160a01b039092166001600160a01b0319909216919091179055604080840151600284015560608401516003840155608084015160048401805460a087015115156101000261ff00199315159390931661ffff199091161791909117905560c090930151600590920191909155600084815260069091522081518291908190611b22908261279b565b506020828101516001830180546001600160a01b039283166001600160a01b031990911617905560408085015160028501556060850151600380860191909155608086015160048601805460a089015115156101000261ff00199315159390931661ffff199091161791909117905560c090950151600590940193909355861660009081529290529020611bb6858261279b565b5082600485604051611bc891906126c7565b90815260405190819003602001902080546001600160a01b03929092166001600160a01b0319909216919091179055600a5460ff168015611c0c5750600854600754105b15611db85760095460c08201819052600060a083018190526007805491611c32836126f9565b90915550506001600160a01b038416600090815260056020526040902082518391908190611c60908261279b565b506020828101516001830180546001600160a01b039092166001600160a01b0319909216919091179055604080840151600284015560608401516003840155608084015160048401805460a087015115156101000261ff00199315159390931661ffff199091161791909117905560c090930151600590920191909155600085815260069091522082518391908190611cf9908261279b565b506020828101516001830180546001600160a01b039283166001600160a01b031990911617905560408085015160028501556060808601516003860155608086015160048601805460a089015115156101000261ff00199315159390931661ffff199091161791909117905560c09095015160059094019390935582518581529182018790524292820192909252908616917f6265c4408ac5b7c9b18d37b72535be33a793f145417cbbf3fd5ad07aa2184cc1910160405180910390a2505b600d8054906000611dc8836126f9565b919050555081836001600160a01b031685604051611de691906126c7565b604051908190038120428252907f13f42ee0de0ac9236ad9fd1edd06fb6b07f3e2423a2c0b6cb6dc732822fec14c9060200160405180910390a4826001600160a01b031684604051611e3891906126c7565b604051908190038120428252907f90dec1f4ffcc94b09eb3739c1c9d43f199bb65196004104dfb39a3da25c9afd99060200160405180910390a350505050565b600080546001600160a01b038381166001600160a01b0319831681178455604051919092169283917f8be0079c531659141344cd1fd0a4f28419497f9722a3daafe3b4186f6b6457e09190a35050565b600080600080611ed88686612055565b925092509250611ee882826120a2565b5090949350505050565b606060008290506000815167ffffffffffffffff811115611f1557611f15612274565b6040519080825280601f01601f191660200182016040528015611f3f576020820181803683370190505b50905060005b825181101561204d576041838281518110611f6257611f626126b1565b016020015160f81c10801590611f925750605a838281518110611f8757611f876126b1565b016020015160f81c11155b15611ff457828181518110611fa957611fa96126b1565b602001015160f81c60f81b60f81c6020611fc391906129c7565b60f81b828281518110611fd857611fd86126b1565b60200101906001600160f81b031916908160001a90535061203b565b828181518110612006576120066126b1565b602001015160f81c60f81b828281518110612023576120236126b1565b60200101906001600160f81b031916908160001a9053505b80612045816126f9565b915050611f45565b509392505050565b6000806000835160410361208f5760208401516040850151606086015160001a6120818882858561215b565b95509550955050505061209b565b50508151600091506002905b9250925092565b60008260038111156120b6576120b66129e0565b036120bf575050565b60018260038111156120d3576120d36129e0565b036120f15760405163f645eedf60e01b815260040160405180910390fd5b6002826003811115612105576121056129e0565b036121265760405163fce698f760e01b815260048101829052602401610716565b600382600381111561213a5761213a6129e0565b03610652576040516335e2f38360e21b815260048101829052602401610716565b600080807f7fffffffffffffffffffffffffffffff5d576e7357a4501ddfe92f46681b20a08411156121965750600091506003905082612220565b604080516000808252602082018084528a905260ff891692820192909252606081018790526080810186905260019060a0016020604051602081039080840390855afa1580156121ea573d6000803e3d6000fd5b5050604051601f1901519150506001600160a01b03811661221657506000925060019150829050612220565b9250600091508190505b9450945094915050565b6040518060e001604052806060815260200160006001600160a01b031681526020016000815260200160008152602001600015158152602001600015158152602001600081525090565b634e487b7160e01b600052604160045260246000fd5b604051601f8201601f1916810167ffffffffffffffff811182821017156122b3576122b3612274565b604052919050565b600082601f8301126122cc57600080fd5b813567ffffffffffffffff8111156122e6576122e6612274565b6122f9601f8201601f191660200161228a565b81815284602083860101111561230e57600080fd5b816020850160208301376000918101602001919091529392505050565b6000602080838503121561233e57600080fd5b823567ffffffffffffffff8082111561235657600080fd5b818501915085601f83011261236a57600080fd5b81358181111561237c5761237c612274565b8060051b61238b85820161228a565b91825283810185019185810190898411156123a557600080fd5b86860192505b838310156123e1578235858111156123c35760008081fd5b6123d18b89838a01016122bb565b83525091860191908601906123ab565b9998505050505050505050565b60006020828403121561240057600080fd5b813567ffffffffffffffff81111561241757600080fd5b612423848285016122bb565b949350505050565b80356001600160a01b038116811461244257600080fd5b919050565b60006020828403121561245957600080fd5b6124628261242b565b9392505050565b60005b8381101561248457818101518382015260200161246c565b50506000910152565b600081518084526124a5816020860160208601612469565b601f01601f19169290920160200192915050565b602081526000825160e060208401526124d661010084018261248d565b905060018060a01b03602085015116604084015260408401516060840152606084015160808401526080840151151560a084015260a0840151151560c084015260c084015160e08401528091505092915050565b60006020828403121561253c57600080fd5b5035919050565b60e08152600061255660e083018a61248d565b6001600160a01b0398909816602083015250604081019590955260608501939093529015156080840152151560a083015260c090910152919050565b8015158114610d0957600080fd5b6000602082840312156125b257600080fd5b813561246281612592565b6000806000606084860312156125d257600080fd5b833592506020840135915060408401356125eb81612592565b809150509250925092565b6000806040838503121561260957600080fd5b823567ffffffffffffffff8082111561262157600080fd5b61262d868387016122bb565b9350602085013591508082111561264357600080fd5b50612650858286016122bb565b9150509250929050565b602081526000612462602083018461248d565b6000806040838503121561268057600080fd5b6126898361242b565b9150602083013567ffffffffffffffff8111156126a557600080fd5b612650858286016122bb565b634e487b7160e01b600052603260045260246000fd5b600082516126d9818460208701612469565b9190910192915050565b634e487b7160e01b600052601160045260246000fd5b60006001820161270b5761270b6126e3565b5060010190565b600181811c9082168061272657607f821691505b60208210810361274657634e487b7160e01b600052602260045260246000fd5b50919050565b601f82111561279657600081815260208120601f850160051c810160208610156127735750805b601f850160051c820191505b818110156127925782815560010161277f565b5050505b505050565b815167ffffffffffffffff8111156127b5576127b5612274565b6127c9816127c38454612712565b8461274c565b602080601f8311600181146127fe57600084156127e65750858301515b600019600386901b1c1916600185901b178555612792565b600085815260208120601f198616915b8281101561282d5788860151825594840194600190910190840161280e565b508582101561284b5787850151600019600388901b60f8161c191681555b5050505050600190811b01905550565b6000835161286d818460208801612469565b60609390931b6bffffffffffffffffffffffff19169190920190815260140192915050565b6001600160a01b03831681526040602082018190526000906124239083018461248d565b6000602082840312156128c857600080fd5b5051919050565b8181036128da575050565b6128e48254612712565b67ffffffffffffffff8111156128fc576128fc612274565b61290a816127c38454612712565b6000601f82116001811461293e57600083156129265750848201545b600019600385901b1c1916600184901b1784556129a3565b600085815260209020601f19841690600086815260209020845b838110156129785782860154825560019586019590910190602001612958565b50858310156129965781850154600019600388901b60f8161c191681555b50505060018360011b0184555b5050505050565b6000602082840312156129bc57600080fd5b815161246281612592565b60ff8181168382160190811115611173576111736126e3565b634e487b7160e01b600052602160045260246000fdfea2646970667358221220765cc520889c270fdf7c6a1702e115c7fb12cc77b9573fb7f5262abcbb3b36c964736f6c63430008140033",
          "opcodes": "PUSH1 0x80 PUSH1 0x40 MSTORE PUSH1 0xF DUP1 SLOAD PUSH1 0xFF NOT AND PUSH1 0x1 OR SWAP1 SSTORE CALLVALUE DUP1 ISZERO PUSH2 0x1D JUMPI PUSH1 0x0 DUP1 REVERT JUMPDEST POP CALLER DUP1 PUSH2 0x44 JUMPI PUSH1 0x40 MLOAD PUSH4 0x1E4FBDF7 PUSH1 0xE0 SHL DUP2 MSTORE PUSH1 0x0 PUSH1 0x4 DUP3 ADD MSTORE PUSH1 0x24 ADD PUSH1 0x40 MLOAD DUP1 SWAP2 SUB SWAP1 REVERT JUMPDEST PUSH2 0x4D DUP2 PUSH2 0x9F JUMP JUMPDEST POP PUSH1 0x1 DUP1 DUP1 SSTORE PUSH1 0x40 DUP1 MLOAD PUSH1 0x80 DUP2 ADD DUP3 MSTORE PUSH1 0x0 DUP1 DUP3 MSTORE PUSH2 0x1388 PUSH1 0x20 DUP4 ADD DUP2 SWAP1 MSTORE PUSH9 0x3635C9ADC5DEA00000 SWAP4 DUP4 ADD DUP5 SWAP1 MSTORE PUSH1 0x60 SWAP1 SWAP3 ADD DUP5 SWAP1 MSTORE PUSH1 0x7 SSTORE PUSH1 0x8 SSTORE PUSH1 0x9 SSTORE PUSH1 0xA DUP1 SLOAD PUSH1 0xFF NOT AND SWAP1 SWAP2 OR SWAP1 SSTORE PUSH2 0xEF JUMP JUMPDEST PUSH1 0x0 DUP1 SLOAD PUSH1 0x1 PUSH1 0x1 PUSH1 0xA0 SHL SUB DUP4 DUP2 AND PUSH1 0x1 PUSH1 0x1 PUSH1 0xA0 SHL SUB NOT DUP4 AND DUP2 OR DUP5 SSTORE PUSH1 0x40 MLOAD SWAP2 SWAP1 SWAP3 AND SWAP3 DUP4 SWAP2 PUSH32 0x8BE0079C531659141344CD1FD0A4F28419497F9722A3DAAFE3B4186F6B6457E0 SWAP2 SWAP1 LOG3 POP POP JUMP JUMPDEST PUSH2 0x2A2C DUP1 PUSH3 0xFF PUSH1 0x0 CODECOPY PUSH1 0x0 RETURN INVALID PUSH1 0x80 PUSH1 0x40 MSTORE CALLVALUE DUP1 ISZERO PUSH2 0x10 JUMPI PUSH1 0x0 DUP1 REVERT JUMPDEST POP PUSH1 0x4 CALLDATASIZE LT PUSH2 0x211 JUMPI PUSH1 0x0 CALLDATALOAD PUSH1 0xE0 SHR DUP1 PUSH4 0x739709B6 GT PUSH2 0x125 JUMPI DUP1 PUSH4 0xB36C6D1F GT PUSH2 0xAD JUMPI DUP1 PUSH4 0xC9DBABE9 GT PUSH2 0x7C JUMPI DUP1 PUSH4 0xC9DBABE9 EQ PUSH2 0x511 JUMPI DUP1 PUSH4 0xD2D1FB25 EQ PUSH2 0x51E JUMPI DUP1 PUSH4 0xE792B124 EQ PUSH2 0x526 JUMPI DUP1 PUSH4 0xEFA4AE00 EQ PUSH2 0x549 JUMPI DUP1 PUSH4 0xF2FDE38B EQ PUSH2 0x55C JUMPI PUSH1 0x0 DUP1 REVERT JUMPDEST DUP1 PUSH4 0xB36C6D1F EQ PUSH2 0x4C5 JUMPI DUP1 PUSH4 0xB5856EAC EQ PUSH2 0x4D8 JUMPI DUP1 PUSH4 0xBF9C1B1B EQ PUSH2 0x4EB JUMPI DUP1 PUSH4 0xC6B0AC85 EQ PUSH2 0x4FE JUMPI PUSH1 0x0 DUP1 REVERT JUMPDEST DUP1 PUSH4 0x8DA5CB5B GT PUSH2 0xF4 JUMPI DUP1 PUSH4 0x8DA5CB5B EQ PUSH2 0x472 JUMPI DUP1 PUSH4 0x9D139D7D EQ PUSH2 0x483 JUMPI DUP1 PUSH4 0xA1E6A255 EQ PUSH2 0x496 JUMPI DUP1 PUSH4 0xACE417E0 EQ PUSH2 0x49F JUMPI DUP1 PUSH4 0xAD5AEA4C EQ PUSH2 0x4B2 JUMPI PUSH1 0x0 DUP1 REVERT JUMPDEST DUP1 PUSH4 0x739709B6 EQ PUSH2 0x424 JUMPI DUP1 PUSH4 0x85DB9D2C EQ PUSH2 0x437 JUMPI DUP1 PUSH4 0x85F3683B EQ PUSH2 0x44A JUMPI DUP1 PUSH4 0x8C1F3A8C EQ PUSH2 0x46A JUMPI PUSH1 0x0 DUP1 REVERT JUMPDEST DUP1 PUSH4 0x34627DEA GT PUSH2 0x1A8 JUMPI DUP1 PUSH4 0x46616268 GT PUSH2 0x177 JUMPI DUP1 PUSH4 0x46616268 EQ PUSH2 0x3B0 JUMPI DUP1 PUSH4 0x4737A250 EQ PUSH2 0x3C3 JUMPI DUP1 PUSH4 0x59D61E45 EQ PUSH2 0x3D6 JUMPI DUP1 PUSH4 0x5A1420DF EQ PUSH2 0x409 JUMPI DUP1 PUSH4 0x715018A6 EQ PUSH2 0x41C JUMPI PUSH1 0x0 DUP1 REVERT JUMPDEST DUP1 PUSH4 0x34627DEA EQ PUSH2 0x364 JUMPI DUP1 PUSH4 0x372DFC49 EQ PUSH2 0x377 JUMPI DUP1 PUSH4 0x3793438D EQ PUSH2 0x38A JUMPI DUP1 PUSH4 0x3F5F2ACD EQ PUSH2 0x39D JUMPI PUSH1 0x0 DUP1 REVERT JUMPDEST DUP1 PUSH4 0x1A47767B GT PUSH2 0x1E4 JUMPI DUP1 PUSH4 0x1A47767B EQ PUSH2 0x2D0 JUMPI DUP1 PUSH4 0x21918829 EQ PUSH2 0x2E3 JUMPI DUP1 PUSH4 0x21C01DEB EQ PUSH2 0x303 JUMPI DUP1 PUSH4 0x2B099994 EQ PUSH2 0x33E JUMPI PUSH1 0x0 DUP1 REVERT JUMPDEST DUP1 PUSH4 0x18763E9 EQ PUSH2 0x216 JUMPI DUP1 PUSH4 0x7BB4EE3 EQ PUSH2 0x22B JUMPI DUP1 PUSH4 0xB236953 EQ PUSH2 0x27C JUMPI DUP1 PUSH4 0xB3D0887 EQ PUSH2 0x2B9 JUMPI JUMPDEST PUSH1 0x0 DUP1 REVERT JUMPDEST PUSH2 0x229 PUSH2 0x224 CALLDATASIZE PUSH1 0x4 PUSH2 0x232B JUMP JUMPDEST PUSH2 0x56F JUMP JUMPDEST STOP JUMPDEST PUSH2 0x25F PUSH2 0x239 CALLDATASIZE PUSH1 0x4 PUSH2 0x23EE JUMP JUMPDEST DUP1 MLOAD PUSH1 0x20 DUP2 DUP4 ADD DUP2 ADD DUP1 MLOAD PUSH1 0x4 DUP3 MSTORE SWAP3 DUP3 ADD SWAP2 SWAP1 SWAP4 ADD KECCAK256 SWAP2 MSTORE SLOAD PUSH1 0x1 PUSH1 0x1 PUSH1 0xA0 SHL SUB AND DUP2 JUMP JUMPDEST PUSH1 0x40 MLOAD PUSH1 0x1 PUSH1 0x1 PUSH1 0xA0 SHL SUB SWAP1 SWAP2 AND DUP2 MSTORE PUSH1 0x20 ADD JUMPDEST PUSH1 0x40 MLOAD DUP1 SWAP2 SUB SWAP1 RETURN JUMPDEST PUSH2 0x284 PUSH2 0x656 JUMP JUMPDEST PUSH1 0x40 MLOAD PUSH2 0x273 SWAP2 SWAP1 DUP2 MLOAD DUP2 MSTORE PUSH1 0x20 DUP1 DUP4 ADD MLOAD SWAP1 DUP3 ADD MSTORE PUSH1 0x40 DUP1 DUP4 ADD MLOAD SWAP1 DUP3 ADD MSTORE PUSH1 0x60 SWAP2 DUP3 ADD MLOAD ISZERO ISZERO SWAP2 DUP2 ADD SWAP2 SWAP1 SWAP2 MSTORE PUSH1 0x80 ADD SWAP1 JUMP JUMPDEST PUSH2 0x2C2 PUSH1 0xD SLOAD DUP2 JUMP JUMPDEST PUSH1 0x40 MLOAD SWAP1 DUP2 MSTORE PUSH1 0x20 ADD PUSH2 0x273 JUMP JUMPDEST PUSH2 0x229 PUSH2 0x2DE CALLDATASIZE PUSH1 0x4 PUSH2 0x2447 JUMP JUMPDEST PUSH2 0x6B5 JUMP JUMPDEST PUSH2 0x2F6 PUSH2 0x2F1 CALLDATASIZE PUSH1 0x4 PUSH2 0x23EE JUMP JUMPDEST PUSH2 0x891 JUMP JUMPDEST PUSH1 0x40 MLOAD PUSH2 0x273 SWAP2 SWAP1 PUSH2 0x24B9 JUMP JUMPDEST PUSH1 0x7 SLOAD PUSH1 0x8 SLOAD PUSH1 0x9 SLOAD PUSH1 0xA SLOAD PUSH2 0x31C SWAP4 SWAP3 SWAP2 SWAP1 PUSH1 0xFF AND DUP5 JUMP JUMPDEST PUSH1 0x40 DUP1 MLOAD SWAP5 DUP6 MSTORE PUSH1 0x20 DUP6 ADD SWAP4 SWAP1 SWAP4 MSTORE SWAP2 DUP4 ADD MSTORE ISZERO ISZERO PUSH1 0x60 DUP3 ADD MSTORE PUSH1 0x80 ADD PUSH2 0x273 JUMP JUMPDEST PUSH2 0x351 PUSH2 0x34C CALLDATASIZE PUSH1 0x4 PUSH2 0x252A JUMP JUMPDEST PUSH2 0xA14 JUMP JUMPDEST PUSH1 0x40 MLOAD PUSH2 0x273 SWAP8 SWAP7 SWAP6 SWAP5 SWAP4 SWAP3 SWAP2 SWAP1 PUSH2 0x2543 JUMP JUMPDEST PUSH1 0xB SLOAD PUSH2 0x25F SWAP1 PUSH1 0x1 PUSH1 0x1 PUSH1 0xA0 SHL SUB AND DUP2 JUMP JUMPDEST PUSH2 0x229 PUSH2 0x385 CALLDATASIZE PUSH1 0x4 PUSH2 0x23EE JUMP JUMPDEST PUSH2 0xAE8 JUMP JUMPDEST PUSH2 0x229 PUSH2 0x398 CALLDATASIZE PUSH1 0x4 PUSH2 0x23EE JUMP JUMPDEST PUSH2 0xBC5 JUMP JUMPDEST PUSH2 0x229 PUSH2 0x3AB CALLDATASIZE PUSH1 0x4 PUSH2 0x2447 JUMP JUMPDEST PUSH2 0xD0C JUMP JUMPDEST PUSH2 0x351 PUSH2 0x3BE CALLDATASIZE PUSH1 0x4 PUSH2 0x2447 JUMP JUMPDEST PUSH2 0xD36 JUMP JUMPDEST PUSH2 0x229 PUSH2 0x3D1 CALLDATASIZE PUSH1 0x4 PUSH2 0x25A0 JUMP JUMPDEST PUSH2 0xD51 JUMP JUMPDEST PUSH2 0x3F9 PUSH2 0x3E4 CALLDATASIZE PUSH1 0x4 PUSH2 0x252A JUMP JUMPDEST PUSH1 0x2 PUSH1 0x20 MSTORE PUSH1 0x0 SWAP1 DUP2 MSTORE PUSH1 0x40 SWAP1 KECCAK256 SLOAD PUSH1 0xFF AND DUP2 JUMP JUMPDEST PUSH1 0x40 MLOAD SWAP1 ISZERO ISZERO DUP2 MSTORE PUSH1 0x20 ADD PUSH2 0x273 JUMP JUMPDEST PUSH2 0x229 PUSH2 0x417 CALLDATASIZE PUSH1 0x4 PUSH2 0x25BD JUMP JUMPDEST PUSH2 0xD6C JUMP JUMPDEST PUSH2 0x229 PUSH2 0xD90 JUMP JUMPDEST PUSH2 0x229 PUSH2 0x432 CALLDATASIZE PUSH1 0x4 PUSH2 0x25F6 JUMP JUMPDEST PUSH2 0xDA4 JUMP JUMPDEST PUSH2 0x3F9 PUSH2 0x445 CALLDATASIZE PUSH1 0x4 PUSH2 0x23EE JUMP JUMPDEST PUSH2 0x1030 JUMP JUMPDEST PUSH2 0x45D PUSH2 0x458 CALLDATASIZE PUSH1 0x4 PUSH2 0x2447 JUMP JUMPDEST PUSH2 0x1055 JUMP JUMPDEST PUSH1 0x40 MLOAD PUSH2 0x273 SWAP2 SWAP1 PUSH2 0x265A JUMP JUMPDEST PUSH1 0xD SLOAD PUSH2 0x2C2 JUMP JUMPDEST PUSH1 0x0 SLOAD PUSH1 0x1 PUSH1 0x1 PUSH1 0xA0 SHL SUB AND PUSH2 0x25F JUMP JUMPDEST PUSH2 0x3F9 PUSH2 0x491 CALLDATASIZE PUSH1 0x4 PUSH2 0x23EE JUMP JUMPDEST PUSH2 0x10EF JUMP JUMPDEST PUSH2 0x2C2 PUSH1 0xE SLOAD DUP2 JUMP JUMPDEST PUSH2 0x3F9 PUSH2 0x4AD CALLDATASIZE PUSH1 0x4 PUSH2 0x2447 JUMP JUMPDEST PUSH2 0x112C JUMP JUMPDEST PUSH2 0x2C2 PUSH2 0x4C0 CALLDATASIZE PUSH1 0x4 PUSH2 0x266D JUMP JUMPDEST PUSH2 0x1179 JUMP JUMPDEST PUSH2 0x2F6 PUSH2 0x4D3 CALLDATASIZE PUSH1 0x4 PUSH2 0x2447 JUMP JUMPDEST PUSH2 0x1345 JUMP JUMPDEST PUSH2 0x229 PUSH2 0x4E6 CALLDATASIZE PUSH1 0x4 PUSH2 0x2447 JUMP JUMPDEST PUSH2 0x1458 JUMP JUMPDEST PUSH2 0x3F9 PUSH2 0x4F9 CALLDATASIZE PUSH1 0x4 PUSH2 0x2447 JUMP JUMPDEST PUSH2 0x1482 JUMP JUMPDEST PUSH1 0xC SLOAD PUSH2 0x25F SWAP1 PUSH1 0x1 PUSH1 0x1 PUSH1 0xA0 SHL SUB AND DUP2 JUMP JUMPDEST PUSH1 0xF SLOAD PUSH2 0x3F9 SWAP1 PUSH1 0xFF AND DUP2 JUMP JUMPDEST PUSH2 0x229 PUSH2 0x14B2 JUMP JUMPDEST PUSH2 0x3F9 PUSH2 0x534 CALLDATASIZE PUSH1 0x4 PUSH2 0x252A JUMP JUMPDEST PUSH1 0x0 SWAP1 DUP2 MSTORE PUSH1 0x2 PUSH1 0x20 MSTORE PUSH1 0x40 SWAP1 KECCAK256 SLOAD PUSH1 0xFF AND SWAP1 JUMP JUMPDEST PUSH2 0x229 PUSH2 0x557 CALLDATASIZE PUSH1 0x4 PUSH2 0x23EE JUMP JUMPDEST PUSH2 0x187D JUMP JUMPDEST PUSH2 0x229 PUSH2 0x56A CALLDATASIZE PUSH1 0x4 PUSH2 0x2447 JUMP JUMPDEST PUSH2 0x1947 JUMP JUMPDEST PUSH2 0x577 PUSH2 0x1982 JUMP JUMPDEST PUSH1 0x0 JUMPDEST DUP2 MLOAD DUP2 LT ISZERO PUSH2 0x652 JUMPI PUSH1 0x0 PUSH2 0x5A7 DUP4 DUP4 DUP2 MLOAD DUP2 LT PUSH2 0x59A JUMPI PUSH2 0x59A PUSH2 0x26B1 JUMP JUMPDEST PUSH1 0x20 MUL PUSH1 0x20 ADD ADD MLOAD PUSH2 0x19AF JUMP JUMPDEST PUSH1 0x0 DUP2 DUP2 MSTORE PUSH1 0x2 PUSH1 0x20 MSTORE PUSH1 0x40 SWAP1 KECCAK256 SLOAD SWAP1 SWAP2 POP PUSH1 0xFF AND PUSH2 0x63F JUMPI PUSH1 0x0 DUP2 DUP2 MSTORE PUSH1 0x2 PUSH1 0x20 MSTORE PUSH1 0x40 SWAP1 KECCAK256 DUP1 SLOAD PUSH1 0xFF NOT AND PUSH1 0x1 OR SWAP1 SSTORE DUP3 MLOAD CALLER SWAP1 DUP5 SWAP1 DUP5 SWAP1 DUP2 LT PUSH2 0x5EF JUMPI PUSH2 0x5EF PUSH2 0x26B1 JUMP JUMPDEST PUSH1 0x20 MUL PUSH1 0x20 ADD ADD MLOAD PUSH1 0x40 MLOAD PUSH2 0x604 SWAP2 SWAP1 PUSH2 0x26C7 JUMP JUMPDEST PUSH1 0x40 MLOAD SWAP1 DUP2 SWAP1 SUB DUP2 KECCAK256 TIMESTAMP DUP3 MSTORE SWAP1 PUSH32 0x7FE370A25DC2A72737D82C7B84942440B8D587D9FF700505D16C1ABE20ADA980 SWAP1 PUSH1 0x20 ADD PUSH1 0x40 MLOAD DUP1 SWAP2 SUB SWAP1 LOG3 JUMPDEST POP DUP1 PUSH2 0x64A DUP2 PUSH2 0x26F9 JUMP JUMPDEST SWAP2 POP POP PUSH2 0x57A JUMP JUMPDEST POP POP JUMP JUMPDEST PUSH2 0x683 PUSH1 0x40 MLOAD DUP1 PUSH1 0x80 ADD PUSH1 0x40 MSTORE DUP1 PUSH1 0x0 DUP2 MSTORE PUSH1 0x20 ADD PUSH1 0x0 DUP2 MSTORE PUSH1 0x20 ADD PUSH1 0x0 DUP2 MSTORE PUSH1 0x20 ADD PUSH1 0x0 ISZERO ISZERO DUP2 MSTORE POP SWAP1 JUMP JUMPDEST POP PUSH1 0x40 DUP1 MLOAD PUSH1 0x80 DUP2 ADD DUP3 MSTORE PUSH1 0x7 SLOAD DUP2 MSTORE PUSH1 0x8 SLOAD PUSH1 0x20 DUP3 ADD MSTORE PUSH1 0x9 SLOAD SWAP2 DUP2 ADD SWAP2 SWAP1 SWAP2 MSTORE PUSH1 0xA SLOAD PUSH1 0xFF AND ISZERO ISZERO PUSH1 0x60 DUP3 ADD MSTORE SWAP1 JUMP JUMPDEST PUSH2 0x6BD PUSH2 0x1982 JUMP JUMPDEST PUSH1 0x1 PUSH1 0x1 PUSH1 0xA0 SHL SUB DUP2 AND PUSH1 0x0 SWAP1 DUP2 MSTORE PUSH1 0x5 PUSH1 0x20 MSTORE PUSH1 0x40 SWAP1 KECCAK256 PUSH1 0x4 ADD SLOAD PUSH1 0xFF AND PUSH2 0x71F JUMPI PUSH1 0x40 MLOAD PUSH3 0x461BCD PUSH1 0xE5 SHL DUP2 MSTORE PUSH1 0x20 PUSH1 0x4 DUP3 ADD MSTORE PUSH1 0xF PUSH1 0x24 DUP3 ADD MSTORE PUSH15 0x55736572206E6F7420616374697665 PUSH1 0x88 SHL PUSH1 0x44 DUP3 ADD MSTORE PUSH1 0x64 ADD JUMPDEST PUSH1 0x40 MLOAD DUP1 SWAP2 SUB SWAP1 REVERT JUMPDEST PUSH1 0x1 PUSH1 0x1 PUSH1 0xA0 SHL SUB DUP2 AND PUSH1 0x0 SWAP1 DUP2 MSTORE PUSH1 0x5 PUSH1 0x20 MSTORE PUSH1 0x40 DUP2 KECCAK256 PUSH1 0x4 DUP2 ADD DUP1 SLOAD PUSH1 0xFF NOT AND SWAP1 SSTORE DUP1 SLOAD SWAP1 SWAP2 SWAP1 DUP3 SWAP1 PUSH2 0x753 SWAP1 PUSH2 0x2712 JUMP JUMPDEST DUP1 PUSH1 0x1F ADD PUSH1 0x20 DUP1 SWAP2 DIV MUL PUSH1 0x20 ADD PUSH1 0x40 MLOAD SWAP1 DUP2 ADD PUSH1 0x40 MSTORE DUP1 SWAP3 SWAP2 SWAP1 DUP2 DUP2 MSTORE PUSH1 0x20 ADD DUP3 DUP1 SLOAD PUSH2 0x77F SWAP1 PUSH2 0x2712 JUMP JUMPDEST DUP1 ISZERO PUSH2 0x7CC JUMPI DUP1 PUSH1 0x1F LT PUSH2 0x7A1 JUMPI PUSH2 0x100 DUP1 DUP4 SLOAD DIV MUL DUP4 MSTORE SWAP2 PUSH1 0x20 ADD SWAP2 PUSH2 0x7CC JUMP JUMPDEST DUP3 ADD SWAP2 SWAP1 PUSH1 0x0 MSTORE PUSH1 0x20 PUSH1 0x0 KECCAK256 SWAP1 JUMPDEST DUP2 SLOAD DUP2 MSTORE SWAP1 PUSH1 0x1 ADD SWAP1 PUSH1 0x20 ADD DUP1 DUP4 GT PUSH2 0x7AF JUMPI DUP3 SWAP1 SUB PUSH1 0x1F AND DUP3 ADD SWAP2 JUMPDEST POP POP PUSH1 0x40 DUP1 MLOAD PUSH1 0x20 DUP1 DUP3 ADD DUP4 MSTORE PUSH1 0x0 DUP1 DUP4 MSTORE PUSH1 0x1 PUSH1 0x1 PUSH1 0xA0 SHL SUB DUP12 AND DUP2 MSTORE PUSH1 0x3 SWAP1 SWAP2 MSTORE SWAP2 SWAP1 SWAP2 KECCAK256 SWAP5 SWAP6 POP PUSH2 0x805 SWAP4 POP SWAP2 POP DUP4 SWAP1 POP PUSH2 0x279B JUMP JUMPDEST POP PUSH1 0x0 PUSH1 0x4 DUP3 PUSH1 0x40 MLOAD PUSH2 0x818 SWAP2 SWAP1 PUSH2 0x26C7 JUMP JUMPDEST SWAP1 DUP2 MSTORE PUSH1 0x40 MLOAD SWAP1 DUP2 SWAP1 SUB PUSH1 0x20 ADD DUP2 KECCAK256 DUP1 SLOAD PUSH1 0x1 PUSH1 0x1 PUSH1 0xA0 SHL SUB SWAP4 DUP5 AND PUSH1 0x1 PUSH1 0x1 PUSH1 0xA0 SHL SUB NOT SWAP1 SWAP2 AND OR SWAP1 SSTORE SWAP1 DUP5 AND SWAP1 PUSH2 0x852 SWAP1 DUP4 SWAP1 PUSH2 0x26C7 JUMP JUMPDEST PUSH1 0x40 MLOAD SWAP1 DUP2 SWAP1 SUB DUP2 KECCAK256 TIMESTAMP DUP3 MSTORE SWAP1 PUSH32 0x22A19FD46D17F548B3DD51BC0E67E4D62EF6DBB21A3A825788A80B1CDCADA8F8 SWAP1 PUSH1 0x20 ADD PUSH1 0x40 MLOAD DUP1 SWAP2 SUB SWAP1 LOG3 POP POP POP JUMP JUMPDEST PUSH2 0x899 PUSH2 0x222A JUMP JUMPDEST PUSH1 0x0 PUSH1 0x4 DUP4 PUSH1 0x40 MLOAD PUSH2 0x8AB SWAP2 SWAP1 PUSH2 0x26C7 JUMP JUMPDEST SWAP1 DUP2 MSTORE PUSH1 0x40 MLOAD SWAP1 DUP2 SWAP1 SUB PUSH1 0x20 ADD SWAP1 KECCAK256 SLOAD PUSH1 0x1 PUSH1 0x1 PUSH1 0xA0 SHL SUB AND SWAP1 POP DUP1 PUSH2 0x908 JUMPI PUSH1 0x40 MLOAD PUSH3 0x461BCD PUSH1 0xE5 SHL DUP2 MSTORE PUSH1 0x20 PUSH1 0x4 DUP3 ADD MSTORE PUSH1 0x12 PUSH1 0x24 DUP3 ADD MSTORE PUSH18 0x115B585A5B081B9BDD081D995C9A599A5959 PUSH1 0x72 SHL PUSH1 0x44 DUP3 ADD MSTORE PUSH1 0x64 ADD PUSH2 0x716 JUMP JUMPDEST PUSH1 0x1 PUSH1 0x1 PUSH1 0xA0 SHL SUB DUP2 AND PUSH1 0x0 SWAP1 DUP2 MSTORE PUSH1 0x5 PUSH1 0x20 MSTORE PUSH1 0x40 SWAP1 DUP2 SWAP1 KECCAK256 DUP2 MLOAD PUSH1 0xE0 DUP2 ADD SWAP1 SWAP3 MSTORE DUP1 SLOAD DUP3 SWAP1 DUP3 SWAP1 PUSH2 0x93A SWAP1 PUSH2 0x2712 JUMP JUMPDEST DUP1 PUSH1 0x1F ADD PUSH1 0x20 DUP1 SWAP2 DIV MUL PUSH1 0x20 ADD PUSH1 0x40 MLOAD SWAP1 DUP2 ADD PUSH1 0x40 MSTORE DUP1 SWAP3 SWAP2 SWAP1 DUP2 DUP2 MSTORE PUSH1 0x20 ADD DUP3 DUP1 SLOAD PUSH2 0x966 SWAP1 PUSH2 0x2712 JUMP JUMPDEST DUP1 ISZERO PUSH2 0x9B3 JUMPI DUP1 PUSH1 0x1F LT PUSH2 0x988 JUMPI PUSH2 0x100 DUP1 DUP4 SLOAD DIV MUL DUP4 MSTORE SWAP2 PUSH1 0x20 ADD SWAP2 PUSH2 0x9B3 JUMP JUMPDEST DUP3 ADD SWAP2 SWAP1 PUSH1 0x0 MSTORE PUSH1 0x20 PUSH1 0x0 KECCAK256 SWAP1 JUMPDEST DUP2 SLOAD DUP2 MSTORE SWAP1 PUSH1 0x1 ADD SWAP1 PUSH1 0x20 ADD DUP1 DUP4 GT PUSH2 0x996 JUMPI DUP3 SWAP1 SUB PUSH1 0x1F AND DUP3 ADD SWAP2 JUMPDEST POP POP POP SWAP2 DUP4 MSTORE POP POP PUSH1 0x1 DUP3 ADD SLOAD PUSH1 0x1 PUSH1 0x1 PUSH1 0xA0 SHL SUB AND PUSH1 0x20 DUP3 ADD MSTORE PUSH1 0x2 DUP3 ADD SLOAD PUSH1 0x40 DUP3 ADD MSTORE PUSH1 0x3 DUP3 ADD SLOAD PUSH1 0x60 DUP3 ADD MSTORE PUSH1 0x4 DUP3 ADD SLOAD PUSH1 0xFF DUP1 DUP3 AND ISZERO ISZERO PUSH1 0x80 DUP5 ADD MSTORE PUSH2 0x100 SWAP1 SWAP2 DIV AND ISZERO ISZERO PUSH1 0xA0 DUP3 ADD MSTORE PUSH1 0x5 SWAP1 SWAP2 ADD SLOAD PUSH1 0xC0 SWAP1 SWAP2 ADD MSTORE SWAP4 SWAP3 POP POP POP JUMP JUMPDEST PUSH1 0x6 PUSH1 0x20 MSTORE PUSH1 0x0 SWAP1 DUP2 MSTORE PUSH1 0x40 SWAP1 KECCAK256 DUP1 SLOAD DUP2 SWAP1 PUSH2 0xA2F SWAP1 PUSH2 0x2712 JUMP JUMPDEST DUP1 PUSH1 0x1F ADD PUSH1 0x20 DUP1 SWAP2 DIV MUL PUSH1 0x20 ADD PUSH1 0x40 MLOAD SWAP1 DUP2 ADD PUSH1 0x40 MSTORE DUP1 SWAP3 SWAP2 SWAP1 DUP2 DUP2 MSTORE PUSH1 0x20 ADD DUP3 DUP1 SLOAD PUSH2 0xA5B SWAP1 PUSH2 0x2712 JUMP JUMPDEST DUP1 ISZERO PUSH2 0xAA8 JUMPI DUP1 PUSH1 0x1F LT PUSH2 0xA7D JUMPI PUSH2 0x100 DUP1 DUP4 SLOAD DIV MUL DUP4 MSTORE SWAP2 PUSH1 0x20 ADD SWAP2 PUSH2 0xAA8 JUMP JUMPDEST DUP3 ADD SWAP2 SWAP1 PUSH1 0x0 MSTORE PUSH1 0x20 PUSH1 0x0 KECCAK256 SWAP1 JUMPDEST DUP2 SLOAD DUP2 MSTORE SWAP1 PUSH1 0x1 ADD SWAP1 PUSH1 0x20 ADD DUP1 DUP4 GT PUSH2 0xA8B JUMPI DUP3 SWAP1 SUB PUSH1 0x1F AND DUP3 ADD SWAP2 JUMPDEST POP POP POP PUSH1 0x1 DUP5 ADD SLOAD PUSH1 0x2 DUP6 ADD SLOAD PUSH1 0x3 DUP7 ADD SLOAD PUSH1 0x4 DUP8 ADD SLOAD PUSH1 0x5 SWAP1 SWAP8 ADD SLOAD SWAP6 SWAP7 PUSH1 0x1 PUSH1 0x1 PUSH1 0xA0 SHL SUB SWAP1 SWAP4 AND SWAP6 SWAP2 SWAP5 POP SWAP3 POP PUSH1 0xFF DUP1 DUP4 AND SWAP3 PUSH2 0x100 SWAP1 DIV AND SWAP1 DUP8 JUMP JUMPDEST PUSH2 0xAF0 PUSH2 0x1982 JUMP JUMPDEST PUSH1 0x0 PUSH2 0xAFB DUP3 PUSH2 0x19AF JUMP JUMPDEST PUSH1 0x0 DUP2 DUP2 MSTORE PUSH1 0x2 PUSH1 0x20 MSTORE PUSH1 0x40 SWAP1 KECCAK256 SLOAD SWAP1 SWAP2 POP PUSH1 0xFF AND ISZERO PUSH2 0xB5D JUMPI PUSH1 0x40 MLOAD PUSH3 0x461BCD PUSH1 0xE5 SHL DUP2 MSTORE PUSH1 0x20 PUSH1 0x4 DUP3 ADD MSTORE PUSH1 0x19 PUSH1 0x24 DUP3 ADD MSTORE PUSH32 0x456D61696C20616C72656164792077686974656C697374656400000000000000 PUSH1 0x44 DUP3 ADD MSTORE PUSH1 0x64 ADD PUSH2 0x716 JUMP JUMPDEST PUSH1 0x0 DUP2 DUP2 MSTORE PUSH1 0x2 PUSH1 0x20 MSTORE PUSH1 0x40 SWAP1 DUP2 SWAP1 KECCAK256 DUP1 SLOAD PUSH1 0xFF NOT AND PUSH1 0x1 OR SWAP1 SSTORE MLOAD CALLER SWAP1 PUSH2 0xB86 SWAP1 DUP5 SWAP1 PUSH2 0x26C7 JUMP JUMPDEST PUSH1 0x40 MLOAD SWAP1 DUP2 SWAP1 SUB DUP2 KECCAK256 TIMESTAMP DUP3 MSTORE SWAP1 PUSH32 0x7FE370A25DC2A72737D82C7B84942440B8D587D9FF700505D16C1ABE20ADA980 SWAP1 PUSH1 0x20 ADD JUMPDEST PUSH1 0x40 MLOAD DUP1 SWAP2 SUB SWAP1 LOG3 POP POP JUMP JUMPDEST PUSH2 0xBCD PUSH2 0x19E7 JUMP JUMPDEST PUSH1 0xF SLOAD PUSH1 0xFF AND PUSH2 0xC1A JUMPI PUSH1 0x40 MLOAD PUSH3 0x461BCD PUSH1 0xE5 SHL DUP2 MSTORE PUSH1 0x20 PUSH1 0x4 DUP3 ADD MSTORE PUSH1 0x18 PUSH1 0x24 DUP3 ADD MSTORE PUSH24 0x15995C9A599A58D85D1A5BDB881A5CC8191A5CD8589B1959 PUSH1 0x42 SHL PUSH1 0x44 DUP3 ADD MSTORE PUSH1 0x64 ADD PUSH2 0x716 JUMP JUMPDEST DUP1 PUSH1 0x0 PUSH1 0x1 PUSH1 0x1 PUSH1 0xA0 SHL SUB AND PUSH1 0x4 DUP3 PUSH1 0x40 MLOAD PUSH2 0xC36 SWAP2 SWAP1 PUSH2 0x26C7 JUMP JUMPDEST SWAP1 DUP2 MSTORE PUSH1 0x40 MLOAD SWAP1 DUP2 SWAP1 SUB PUSH1 0x20 ADD SWAP1 KECCAK256 SLOAD PUSH1 0x1 PUSH1 0x1 PUSH1 0xA0 SHL SUB AND EQ PUSH2 0xC93 JUMPI PUSH1 0x40 MLOAD PUSH3 0x461BCD PUSH1 0xE5 SHL DUP2 MSTORE PUSH1 0x20 PUSH1 0x4 DUP3 ADD MSTORE PUSH1 0x14 PUSH1 0x24 DUP3 ADD MSTORE PUSH20 0x456D61696C20616C726561647920696E20757365 PUSH1 0x60 SHL PUSH1 0x44 DUP3 ADD MSTORE PUSH1 0x64 ADD PUSH2 0x716 JUMP JUMPDEST CALLER PUSH1 0x0 DUP2 DUP2 MSTORE PUSH1 0x3 PUSH1 0x20 MSTORE PUSH1 0x40 SWAP1 KECCAK256 DUP1 SLOAD PUSH2 0xCAD SWAP1 PUSH2 0x2712 JUMP JUMPDEST ISZERO SWAP1 POP PUSH2 0xCF4 JUMPI PUSH1 0x40 MLOAD PUSH3 0x461BCD PUSH1 0xE5 SHL DUP2 MSTORE PUSH1 0x20 PUSH1 0x4 DUP3 ADD MSTORE PUSH1 0x15 PUSH1 0x24 DUP3 ADD MSTORE PUSH21 0x57616C6C657420616C726561647920696E20757365 PUSH1 0x58 SHL PUSH1 0x44 DUP3 ADD MSTORE PUSH1 0x64 ADD PUSH2 0x716 JUMP JUMPDEST PUSH2 0xCFE DUP4 CALLER PUSH2 0x1A11 JUMP JUMPDEST POP POP PUSH2 0xD09 PUSH1 0x1 DUP1 SSTORE JUMP JUMPDEST POP JUMP JUMPDEST PUSH2 0xD14 PUSH2 0x1982 JUMP JUMPDEST PUSH1 0xB DUP1 SLOAD PUSH1 0x1 PUSH1 0x1 PUSH1 0xA0 SHL SUB NOT AND PUSH1 0x1 PUSH1 0x1 PUSH1 0xA0 SHL SUB SWAP3 SWAP1 SWAP3 AND SWAP2 SWAP1 SWAP2 OR SWAP1 SSTORE JUMP JUMPDEST PUSH1 0x5 PUSH1 0x20 MSTORE PUSH1 0x0 SWAP1 DUP2 MSTORE PUSH1 0x40 SWAP1 KECCAK256 DUP1 SLOAD DUP2 SWAP1 PUSH2 0xA2F SWAP1 PUSH2 0x2712 JUMP JUMPDEST PUSH2 0xD59 PUSH2 0x1982 JUMP JUMPDEST PUSH1 0xF DUP1 SLOAD PUSH1 0xFF NOT AND SWAP2 ISZERO ISZERO SWAP2 SWAP1 SWAP2 OR SWAP1 SSTORE JUMP JUMPDEST PUSH2 0xD74 PUSH2 0x1982 JUMP JUMPDEST PUSH1 0x8 SWAP3 SWAP1 SWAP3 SSTORE PUSH1 0x9 SSTORE PUSH1 0xA DUP1 SLOAD PUSH1 0xFF NOT AND SWAP2 ISZERO ISZERO SWAP2 SWAP1 SWAP2 OR SWAP1 SSTORE JUMP JUMPDEST PUSH2 0xD98 PUSH2 0x1982 JUMP JUMPDEST PUSH2 0xDA2 PUSH1 0x0 PUSH2 0x1E78 JUMP JUMPDEST JUMP JUMPDEST PUSH2 0xDAC PUSH2 0x19E7 JUMP JUMPDEST PUSH1 0xF SLOAD PUSH1 0xFF AND PUSH2 0xDF9 JUMPI PUSH1 0x40 MLOAD PUSH3 0x461BCD PUSH1 0xE5 SHL DUP2 MSTORE PUSH1 0x20 PUSH1 0x4 DUP3 ADD MSTORE PUSH1 0x18 PUSH1 0x24 DUP3 ADD MSTORE PUSH24 0x15995C9A599A58D85D1A5BDB881A5CC8191A5CD8589B1959 PUSH1 0x42 SHL PUSH1 0x44 DUP3 ADD MSTORE PUSH1 0x64 ADD PUSH2 0x716 JUMP JUMPDEST DUP2 PUSH1 0x0 PUSH2 0xE05 DUP3 PUSH2 0x19AF JUMP JUMPDEST PUSH1 0x0 DUP2 DUP2 MSTORE PUSH1 0x2 PUSH1 0x20 MSTORE PUSH1 0x40 SWAP1 KECCAK256 SLOAD SWAP1 SWAP2 POP PUSH1 0xFF AND PUSH2 0xE5E JUMPI PUSH1 0x40 MLOAD PUSH3 0x461BCD PUSH1 0xE5 SHL DUP2 MSTORE PUSH1 0x20 PUSH1 0x4 DUP3 ADD MSTORE PUSH1 0x15 PUSH1 0x24 DUP3 ADD MSTORE PUSH21 0x115B585A5B081B9BDD081DDA1A5D195B1A5CDD1959 PUSH1 0x5A SHL PUSH1 0x44 DUP3 ADD MSTORE PUSH1 0x64 ADD PUSH2 0x716 JUMP JUMPDEST DUP4 PUSH1 0x0 PUSH1 0x1 PUSH1 0x1 PUSH1 0xA0 SHL SUB AND PUSH1 0x4 DUP3 PUSH1 0x40 MLOAD PUSH2 0xE7A SWAP2 SWAP1 PUSH2 0x26C7 JUMP JUMPDEST SWAP1 DUP2 MSTORE PUSH1 0x40 MLOAD SWAP1 DUP2 SWAP1 SUB PUSH1 0x20 ADD SWAP1 KECCAK256 SLOAD PUSH1 0x1 PUSH1 0x1 PUSH1 0xA0 SHL SUB AND EQ PUSH2 0xED7 JUMPI PUSH1 0x40 MLOAD PUSH3 0x461BCD PUSH1 0xE5 SHL DUP2 MSTORE PUSH1 0x20 PUSH1 0x4 DUP3 ADD MSTORE PUSH1 0x14 PUSH1 0x24 DUP3 ADD MSTORE PUSH20 0x456D61696C20616C726561647920696E20757365 PUSH1 0x60 SHL PUSH1 0x44 DUP3 ADD MSTORE PUSH1 0x64 ADD PUSH2 0x716 JUMP JUMPDEST CALLER PUSH1 0x0 DUP2 DUP2 MSTORE PUSH1 0x3 PUSH1 0x20 MSTORE PUSH1 0x40 SWAP1 KECCAK256 DUP1 SLOAD PUSH2 0xEF1 SWAP1 PUSH2 0x2712 JUMP JUMPDEST ISZERO SWAP1 POP PUSH2 0xF38 JUMPI PUSH1 0x40 MLOAD PUSH3 0x461BCD PUSH1 0xE5 SHL DUP2 MSTORE PUSH1 0x20 PUSH1 0x4 DUP3 ADD MSTORE PUSH1 0x15 PUSH1 0x24 DUP3 ADD MSTORE PUSH21 0x57616C6C657420616C726561647920696E20757365 PUSH1 0x58 SHL PUSH1 0x44 DUP3 ADD MSTORE PUSH1 0x64 ADD PUSH2 0x716 JUMP JUMPDEST PUSH1 0x0 DUP7 CALLER PUSH1 0x40 MLOAD PUSH1 0x20 ADD PUSH2 0xF4D SWAP3 SWAP2 SWAP1 PUSH2 0x285B JUMP JUMPDEST PUSH1 0x40 MLOAD PUSH1 0x20 DUP2 DUP4 SUB SUB DUP2 MSTORE SWAP1 PUSH1 0x40 MSTORE DUP1 MLOAD SWAP1 PUSH1 0x20 ADD KECCAK256 SWAP1 POP PUSH1 0x0 DUP2 PUSH1 0x40 MLOAD PUSH1 0x20 ADD PUSH2 0xFA4 SWAP2 SWAP1 PUSH32 0x19457468657265756D205369676E6564204D6573736167653A0A333200000000 DUP2 MSTORE PUSH1 0x1C DUP2 ADD SWAP2 SWAP1 SWAP2 MSTORE PUSH1 0x3C ADD SWAP1 JUMP JUMPDEST PUSH1 0x40 MLOAD PUSH1 0x20 DUP2 DUP4 SUB SUB DUP2 MSTORE SWAP1 PUSH1 0x40 MSTORE DUP1 MLOAD SWAP1 PUSH1 0x20 ADD KECCAK256 SWAP1 POP PUSH1 0x0 PUSH2 0xFC8 DUP3 DUP10 PUSH2 0x1EC8 JUMP JUMPDEST SWAP1 POP PUSH1 0x1 PUSH1 0x1 PUSH1 0xA0 SHL SUB DUP2 AND CALLER EQ PUSH2 0x1016 JUMPI PUSH1 0x40 MLOAD PUSH3 0x461BCD PUSH1 0xE5 SHL DUP2 MSTORE PUSH1 0x20 PUSH1 0x4 DUP3 ADD MSTORE PUSH1 0x11 PUSH1 0x24 DUP3 ADD MSTORE PUSH17 0x496E76616C6964207369676E6174757265 PUSH1 0x78 SHL PUSH1 0x44 DUP3 ADD MSTORE PUSH1 0x64 ADD PUSH2 0x716 JUMP JUMPDEST PUSH2 0x1020 DUP10 CALLER PUSH2 0x1A11 JUMP JUMPDEST POP POP POP POP POP POP POP PUSH2 0x652 PUSH1 0x1 DUP1 SSTORE JUMP JUMPDEST PUSH1 0x0 DUP1 PUSH2 0x103C DUP4 PUSH2 0x19AF JUMP JUMPDEST PUSH1 0x0 SWAP1 DUP2 MSTORE PUSH1 0x2 PUSH1 0x20 MSTORE PUSH1 0x40 SWAP1 KECCAK256 SLOAD PUSH1 0xFF AND SWAP4 SWAP3 POP POP POP JUMP JUMPDEST PUSH1 0x3 PUSH1 0x20 MSTORE PUSH1 0x0 SWAP1 DUP2 MSTORE PUSH1 0x40 SWAP1 KECCAK256 DUP1 SLOAD PUSH2 0x106E SWAP1 PUSH2 0x2712 JUMP JUMPDEST DUP1 PUSH1 0x1F ADD PUSH1 0x20 DUP1 SWAP2 DIV MUL PUSH1 0x20 ADD PUSH1 0x40 MLOAD SWAP1 DUP2 ADD PUSH1 0x40 MSTORE DUP1 SWAP3 SWAP2 SWAP1 DUP2 DUP2 MSTORE PUSH1 0x20 ADD DUP3 DUP1 SLOAD PUSH2 0x109A SWAP1 PUSH2 0x2712 JUMP JUMPDEST DUP1 ISZERO PUSH2 0x10E7 JUMPI DUP1 PUSH1 0x1F LT PUSH2 0x10BC JUMPI PUSH2 0x100 DUP1 DUP4 SLOAD DIV MUL DUP4 MSTORE SWAP2 PUSH1 0x20 ADD SWAP2 PUSH2 0x10E7 JUMP JUMPDEST DUP3 ADD SWAP2 SWAP1 PUSH1 0x0 MSTORE PUSH1 0x20 PUSH1 0x0 KECCAK256 SWAP1 JUMPDEST DUP2 SLOAD DUP2 MSTORE SWAP1 PUSH1 0x1 ADD SWAP1 PUSH1 0x20 ADD DUP1 DUP4 GT PUSH2 0x10CA JUMPI DUP3 SWAP1 SUB PUSH1 0x1F AND DUP3 ADD SWAP2 JUMPDEST POP POP POP POP POP DUP2 JUMP JUMPDEST PUSH1 0x0 DUP1 PUSH1 0x1 PUSH1 0x1 PUSH1 0xA0 SHL SUB AND PUSH1 0x4 DUP4 PUSH1 0x40 MLOAD PUSH2 0x110B SWAP2 SWAP1 PUSH2 0x26C7 JUMP JUMPDEST SWAP1 DUP2 MSTORE PUSH1 0x40 MLOAD SWAP1 DUP2 SWAP1 SUB PUSH1 0x20 ADD SWAP1 KECCAK256 SLOAD PUSH1 0x1 PUSH1 0x1 PUSH1 0xA0 SHL SUB AND EQ ISZERO SWAP3 SWAP2 POP POP JUMP JUMPDEST PUSH1 0x1 PUSH1 0x1 PUSH1 0xA0 SHL SUB DUP2 AND PUSH1 0x0 SWAP1 DUP2 MSTORE PUSH1 0x5 PUSH1 0x20 MSTORE PUSH1 0x40 DUP2 KECCAK256 PUSH1 0x4 ADD SLOAD PUSH1 0xFF AND DUP1 ISZERO PUSH2 0x1173 JUMPI POP PUSH1 0x1 PUSH1 0x1 PUSH1 0xA0 SHL SUB DUP3 DUP2 AND PUSH1 0x0 SWAP1 DUP2 MSTORE PUSH1 0x5 PUSH1 0x20 MSTORE PUSH1 0x40 SWAP1 KECCAK256 PUSH1 0x1 ADD SLOAD AND ISZERO ISZERO JUMPDEST SWAP3 SWAP2 POP POP JUMP JUMPDEST PUSH1 0x1 PUSH1 0x1 PUSH1 0xA0 SHL SUB DUP3 AND PUSH1 0x0 SWAP1 DUP2 MSTORE PUSH1 0x5 PUSH1 0x20 MSTORE PUSH1 0x40 DUP2 KECCAK256 PUSH1 0x4 ADD SLOAD PUSH1 0xFF AND PUSH2 0x11D8 JUMPI PUSH1 0x40 MLOAD PUSH3 0x461BCD PUSH1 0xE5 SHL DUP2 MSTORE PUSH1 0x20 PUSH1 0x4 DUP3 ADD MSTORE PUSH1 0x11 PUSH1 0x24 DUP3 ADD MSTORE PUSH17 0x155CD95C881B9BDD081D995C9A599A5959 PUSH1 0x7A SHL PUSH1 0x44 DUP3 ADD MSTORE PUSH1 0x64 ADD PUSH2 0x716 JUMP JUMPDEST PUSH1 0xB SLOAD PUSH1 0x1 PUSH1 0x1 PUSH1 0xA0 SHL SUB AND PUSH2 0x1230 JUMPI PUSH1 0x40 MLOAD PUSH3 0x461BCD PUSH1 0xE5 SHL DUP2 MSTORE PUSH1 0x20 PUSH1 0x4 DUP3 ADD MSTORE PUSH1 0x1A PUSH1 0x24 DUP3 ADD MSTORE PUSH32 0x4D6967726174696F6E20636F6E7472616374206E6F7420736574000000000000 PUSH1 0x44 DUP3 ADD MSTORE PUSH1 0x64 ADD PUSH2 0x716 JUMP JUMPDEST PUSH1 0xB SLOAD PUSH1 0x40 MLOAD PUSH1 0x0 SWAP2 DUP3 SWAP2 PUSH1 0x1 PUSH1 0x1 PUSH1 0xA0 SHL SUB SWAP1 SWAP2 AND SWAP1 PUSH2 0x1257 SWAP1 DUP8 SWAP1 DUP8 SWAP1 PUSH1 0x24 ADD PUSH2 0x2892 JUMP JUMPDEST PUSH1 0x40 DUP1 MLOAD PUSH1 0x1F NOT DUP2 DUP5 SUB ADD DUP2 MSTORE SWAP2 DUP2 MSTORE PUSH1 0x20 DUP3 ADD DUP1 MLOAD PUSH1 0x1 PUSH1 0x1 PUSH1 0xE0 SHL SUB AND PUSH4 0x2B56BA93 PUSH1 0xE2 SHL OR SWAP1 MSTORE MLOAD PUSH2 0x128C SWAP2 SWAP1 PUSH2 0x26C7 JUMP JUMPDEST PUSH1 0x0 PUSH1 0x40 MLOAD DUP1 DUP4 SUB DUP2 DUP6 GAS DELEGATECALL SWAP2 POP POP RETURNDATASIZE DUP1 PUSH1 0x0 DUP2 EQ PUSH2 0x12C7 JUMPI PUSH1 0x40 MLOAD SWAP2 POP PUSH1 0x1F NOT PUSH1 0x3F RETURNDATASIZE ADD AND DUP3 ADD PUSH1 0x40 MSTORE RETURNDATASIZE DUP3 MSTORE RETURNDATASIZE PUSH1 0x0 PUSH1 0x20 DUP5 ADD RETURNDATACOPY PUSH2 0x12CC JUMP JUMPDEST PUSH1 0x60 SWAP2 POP JUMPDEST POP SWAP2 POP SWAP2 POP DUP2 PUSH2 0x1328 JUMPI PUSH1 0x40 MLOAD PUSH3 0x461BCD PUSH1 0xE5 SHL DUP2 MSTORE PUSH1 0x20 PUSH1 0x4 DUP3 ADD MSTORE PUSH1 0x21 PUSH1 0x24 DUP3 ADD MSTORE PUSH32 0x4D6967726174696F6E2070726F6F662067656E65726174696F6E206661696C65 PUSH1 0x44 DUP3 ADD MSTORE PUSH1 0x19 PUSH1 0xFA SHL PUSH1 0x64 DUP3 ADD MSTORE PUSH1 0x84 ADD PUSH2 0x716 JUMP JUMPDEST DUP1 DUP1 PUSH1 0x20 ADD SWAP1 MLOAD DUP2 ADD SWAP1 PUSH2 0x133C SWAP2 SWAP1 PUSH2 0x28B6 JUMP JUMPDEST SWAP6 SWAP5 POP POP POP POP POP JUMP JUMPDEST PUSH2 0x134D PUSH2 0x222A JUMP JUMPDEST PUSH1 0x1 PUSH1 0x1 PUSH1 0xA0 SHL SUB DUP3 AND PUSH1 0x0 SWAP1 DUP2 MSTORE PUSH1 0x5 PUSH1 0x20 MSTORE PUSH1 0x40 SWAP1 DUP2 SWAP1 KECCAK256 DUP2 MLOAD PUSH1 0xE0 DUP2 ADD SWAP1 SWAP3 MSTORE DUP1 SLOAD DUP3 SWAP1 DUP3 SWAP1 PUSH2 0x137F SWAP1 PUSH2 0x2712 JUMP JUMPDEST DUP1 PUSH1 0x1F ADD PUSH1 0x20 DUP1 SWAP2 DIV MUL PUSH1 0x20 ADD PUSH1 0x40 MLOAD SWAP1 DUP2 ADD PUSH1 0x40 MSTORE DUP1 SWAP3 SWAP2 SWAP1 DUP2 DUP2 MSTORE PUSH1 0x20 ADD DUP3 DUP1 SLOAD PUSH2 0x13AB SWAP1 PUSH2 0x2712 JUMP JUMPDEST DUP1 ISZERO PUSH2 0x13F8 JUMPI DUP1 PUSH1 0x1F LT PUSH2 0x13CD JUMPI PUSH2 0x100 DUP1 DUP4 SLOAD DIV MUL DUP4 MSTORE SWAP2 PUSH1 0x20 ADD SWAP2 PUSH2 0x13F8 JUMP JUMPDEST DUP3 ADD SWAP2 SWAP1 PUSH1 0x0 MSTORE PUSH1 0x20 PUSH1 0x0 KECCAK256 SWAP1 JUMPDEST DUP2 SLOAD DUP2 MSTORE SWAP1 PUSH1 0x1 ADD SWAP1 PUSH1 0x20 ADD DUP1 DUP4 GT PUSH2 0x13DB JUMPI DUP3 SWAP1 SUB PUSH1 0x1F AND DUP3 ADD SWAP2 JUMPDEST POP POP POP SWAP2 DUP4 MSTORE POP POP PUSH1 0x1 DUP3 ADD SLOAD PUSH1 0x1 PUSH1 0x1 PUSH1 0xA0 SHL SUB AND PUSH1 0x20 DUP3 ADD MSTORE PUSH1 0x2 DUP3 ADD SLOAD PUSH1 0x40 DUP3 ADD MSTORE PUSH1 0x3 DUP3 ADD SLOAD PUSH1 0x60 DUP3 ADD MSTORE PUSH1 0x4 DUP3 ADD SLOAD PUSH1 0xFF DUP1 DUP3 AND ISZERO ISZERO PUSH1 0x80 DUP5 ADD MSTORE PUSH2 0x100 SWAP1 SWAP2 DIV AND ISZERO ISZERO PUSH1 0xA0 DUP3 ADD MSTORE PUSH1 0x5 SWAP1 SWAP2 ADD SLOAD PUSH1 0xC0 SWAP1 SWAP2 ADD MSTORE SWAP3 SWAP2 POP POP JUMP JUMPDEST PUSH2 0x1460 PUSH2 0x1982 JUMP JUMPDEST PUSH1 0xC DUP1 SLOAD PUSH1 0x1 PUSH1 0x1 PUSH1 0xA0 SHL SUB NOT AND PUSH1 0x1 PUSH1 0x1 PUSH1 0xA0 SHL SUB SWAP3 SWAP1 SWAP3 AND SWAP2 SWAP1 SWAP2 OR SWAP1 SSTORE JUMP JUMPDEST PUSH1 0x1 PUSH1 0x1 PUSH1 0xA0 SHL SUB DUP2 AND PUSH1 0x0 SWAP1 DUP2 MSTORE PUSH1 0x3 PUSH1 0x20 MSTORE PUSH1 0x40 DUP2 KECCAK256 DUP1 SLOAD DUP3 SWAP2 SWAP1 PUSH2 0x14A8 SWAP1 PUSH2 0x2712 JUMP JUMPDEST SWAP1 POP GT SWAP1 POP SWAP2 SWAP1 POP JUMP JUMPDEST PUSH2 0x14BA PUSH2 0x19E7 JUMP JUMPDEST CALLER PUSH1 0x0 DUP2 DUP2 MSTORE PUSH1 0x5 PUSH1 0x20 MSTORE PUSH1 0x40 SWAP1 KECCAK256 PUSH1 0x4 DUP2 ADD SLOAD PUSH1 0xFF AND PUSH2 0x1511 JUMPI PUSH1 0x40 MLOAD PUSH3 0x461BCD PUSH1 0xE5 SHL DUP2 MSTORE PUSH1 0x20 PUSH1 0x4 DUP3 ADD MSTORE PUSH1 0x11 PUSH1 0x24 DUP3 ADD MSTORE PUSH17 0x155CD95C881B9BDD081D995C9A599A5959 PUSH1 0x7A SHL PUSH1 0x44 DUP3 ADD MSTORE PUSH1 0x64 ADD PUSH2 0x716 JUMP JUMPDEST PUSH1 0x0 DUP2 PUSH1 0x5 ADD SLOAD GT PUSH2 0x1565 JUMPI PUSH1 0x40 MLOAD PUSH3 0x461BCD PUSH1 0xE5 SHL DUP2 MSTORE PUSH1 0x20 PUSH1 0x4 DUP3 ADD MSTORE PUSH1 0x17 PUSH1 0x24 DUP3 ADD MSTORE PUSH32 0x4E6F20616C6C6F636174696F6E20617661696C61626C65000000000000000000 PUSH1 0x44 DUP3 ADD MSTORE PUSH1 0x64 ADD PUSH2 0x716 JUMP JUMPDEST PUSH1 0x4 DUP2 ADD SLOAD PUSH2 0x100 SWAP1 DIV PUSH1 0xFF AND ISZERO PUSH2 0x15B8 JUMPI PUSH1 0x40 MLOAD PUSH3 0x461BCD PUSH1 0xE5 SHL DUP2 MSTORE PUSH1 0x20 PUSH1 0x4 DUP3 ADD MSTORE PUSH1 0x16 PUSH1 0x24 DUP3 ADD MSTORE PUSH22 0x151BDAD95B9CC8185B1C9958591E4818DB185A5B5959 PUSH1 0x52 SHL PUSH1 0x44 DUP3 ADD MSTORE PUSH1 0x64 ADD PUSH2 0x716 JUMP JUMPDEST PUSH1 0xC SLOAD PUSH1 0x1 PUSH1 0x1 PUSH1 0xA0 SHL SUB AND PUSH2 0x1607 JUMPI PUSH1 0x40 MLOAD PUSH3 0x461BCD PUSH1 0xE5 SHL DUP2 MSTORE PUSH1 0x20 PUSH1 0x4 DUP3 ADD MSTORE PUSH1 0x14 PUSH1 0x24 DUP3 ADD MSTORE PUSH20 0x1219585B1D1A081D1BDAD95B881B9BDD081CD95D PUSH1 0x62 SHL PUSH1 0x44 DUP3 ADD MSTORE PUSH1 0x64 ADD PUSH2 0x716 JUMP JUMPDEST PUSH1 0x5 DUP1 DUP3 ADD SLOAD PUSH1 0x4 DUP4 ADD DUP1 SLOAD PUSH2 0xFF00 NOT AND PUSH2 0x100 OR SWAP1 SSTORE PUSH1 0x1 PUSH1 0x1 PUSH1 0xA0 SHL SUB DUP5 AND PUSH1 0x0 SWAP1 DUP2 MSTORE PUSH1 0x20 SWAP3 SWAP1 SWAP3 MSTORE PUSH1 0x40 SWAP1 SWAP2 KECCAK256 DUP3 SWAP1 DUP1 PUSH2 0x1645 DUP4 DUP3 PUSH2 0x28CF JUMP JUMPDEST POP PUSH1 0x1 DUP3 DUP2 ADD SLOAD SWAP1 DUP3 ADD DUP1 SLOAD PUSH1 0x1 PUSH1 0x1 PUSH1 0xA0 SHL SUB NOT AND PUSH1 0x1 PUSH1 0x1 PUSH1 0xA0 SHL SUB SWAP1 SWAP3 AND SWAP2 SWAP1 SWAP2 OR SWAP1 SSTORE PUSH1 0x2 DUP1 DUP4 ADD SLOAD DUP2 DUP4 ADD SSTORE PUSH1 0x3 DUP1 DUP5 ADD SLOAD SWAP1 DUP4 ADD SSTORE PUSH1 0x4 DUP1 DUP5 ADD DUP1 SLOAD SWAP2 DUP5 ADD DUP1 SLOAD PUSH1 0xFF SWAP4 DUP5 AND ISZERO ISZERO PUSH1 0xFF NOT DUP3 AND DUP2 OR DUP4 SSTORE SWAP3 SLOAD PUSH2 0x100 SWAP1 DUP2 SWAP1 DIV SWAP1 SWAP5 AND ISZERO ISZERO SWAP1 SWAP4 MUL PUSH2 0xFF00 NOT SWAP1 SWAP3 AND PUSH2 0xFFFF NOT SWAP1 SWAP4 AND SWAP3 SWAP1 SWAP3 OR OR SWAP1 SSTORE PUSH1 0x5 SWAP3 DUP4 ADD SLOAD SWAP3 SWAP1 SWAP2 ADD SWAP2 SWAP1 SWAP2 SSTORE DUP3 ADD SLOAD PUSH1 0x0 SWAP1 DUP2 MSTORE PUSH1 0x6 PUSH1 0x20 MSTORE PUSH1 0x40 SWAP1 KECCAK256 DUP3 SWAP1 DUP1 PUSH2 0x16EE DUP4 DUP3 PUSH2 0x28CF JUMP JUMPDEST POP PUSH1 0x1 DUP3 DUP2 ADD SLOAD SWAP1 DUP3 ADD DUP1 SLOAD PUSH1 0x1 PUSH1 0x1 PUSH1 0xA0 SHL SUB SWAP3 DUP4 AND PUSH1 0x1 PUSH1 0x1 PUSH1 0xA0 SHL SUB NOT SWAP1 SWAP2 AND OR SWAP1 SSTORE PUSH1 0x2 DUP1 DUP5 ADD SLOAD SWAP1 DUP4 ADD SSTORE PUSH1 0x3 DUP1 DUP5 ADD SLOAD SWAP1 DUP4 ADD SSTORE PUSH1 0x4 DUP1 DUP5 ADD DUP1 SLOAD DUP3 DUP6 ADD DUP1 SLOAD PUSH1 0xFF NOT DUP2 AND PUSH1 0xFF SWAP4 DUP5 AND ISZERO ISZERO SWAP1 DUP2 OR DUP4 SSTORE SWAP4 SLOAD PUSH2 0xFFFF NOT SWAP1 SWAP2 AND PUSH2 0xFF00 NOT SWAP1 SWAP5 AND SWAP4 SWAP1 SWAP4 OR PUSH2 0x100 SWAP4 DUP5 SWAP1 DIV SWAP1 SWAP3 AND ISZERO ISZERO SWAP1 SWAP3 MUL OR SWAP1 SSTORE PUSH1 0x5 SWAP4 DUP5 ADD SLOAD SWAP4 SWAP1 SWAP3 ADD SWAP3 SWAP1 SWAP3 SSTORE PUSH1 0xC SLOAD PUSH1 0x40 MLOAD PUSH4 0xA9059CBB PUSH1 0xE0 SHL DUP2 MSTORE DUP7 DUP5 AND SWAP3 DUP2 ADD SWAP3 SWAP1 SWAP3 MSTORE PUSH1 0x24 DUP3 ADD DUP5 SWAP1 MSTORE SWAP1 SWAP2 AND SWAP1 PUSH4 0xA9059CBB SWAP1 PUSH1 0x44 ADD PUSH1 0x20 PUSH1 0x40 MLOAD DUP1 DUP4 SUB DUP2 PUSH1 0x0 DUP8 GAS CALL ISZERO DUP1 ISZERO PUSH2 0x17C6 JUMPI RETURNDATASIZE PUSH1 0x0 DUP1 RETURNDATACOPY RETURNDATASIZE PUSH1 0x0 REVERT JUMPDEST POP POP POP POP PUSH1 0x40 MLOAD RETURNDATASIZE PUSH1 0x1F NOT PUSH1 0x1F DUP3 ADD AND DUP3 ADD DUP1 PUSH1 0x40 MSTORE POP DUP2 ADD SWAP1 PUSH2 0x17EA SWAP2 SWAP1 PUSH2 0x29AA JUMP JUMPDEST PUSH2 0x182E JUMPI PUSH1 0x40 MLOAD PUSH3 0x461BCD PUSH1 0xE5 SHL DUP2 MSTORE PUSH1 0x20 PUSH1 0x4 DUP3 ADD MSTORE PUSH1 0x15 PUSH1 0x24 DUP3 ADD MSTORE PUSH21 0x151BDAD95B881D1C985B9CD9995C8819985A5B1959 PUSH1 0x5A SHL PUSH1 0x44 DUP3 ADD MSTORE PUSH1 0x64 ADD PUSH2 0x716 JUMP JUMPDEST PUSH1 0x40 DUP1 MLOAD DUP3 DUP2 MSTORE TIMESTAMP PUSH1 0x20 DUP3 ADD MSTORE PUSH1 0x1 PUSH1 0x1 PUSH1 0xA0 SHL SUB DUP6 AND SWAP2 PUSH32 0x9923B4306C6C030F2BDFBF156517D5983B87E15B96176DA122CD4F2EFFA4BA7B SWAP2 ADD PUSH1 0x40 MLOAD DUP1 SWAP2 SUB SWAP1 LOG2 POP POP POP PUSH2 0xDA2 PUSH1 0x1 DUP1 SSTORE JUMP JUMPDEST PUSH2 0x1885 PUSH2 0x1982 JUMP JUMPDEST PUSH1 0x0 PUSH2 0x1890 DUP3 PUSH2 0x19AF JUMP JUMPDEST PUSH1 0x0 DUP2 DUP2 MSTORE PUSH1 0x2 PUSH1 0x20 MSTORE PUSH1 0x40 SWAP1 KECCAK256 SLOAD SWAP1 SWAP2 POP PUSH1 0xFF AND PUSH2 0x18EA JUMPI PUSH1 0x40 MLOAD PUSH3 0x461BCD PUSH1 0xE5 SHL DUP2 MSTORE PUSH1 0x20 PUSH1 0x4 DUP3 ADD MSTORE PUSH1 0x16 PUSH1 0x24 DUP3 ADD MSTORE PUSH22 0x115B585A5B081B9BDD081A5B881DDA1A5D195B1A5CDD PUSH1 0x52 SHL PUSH1 0x44 DUP3 ADD MSTORE PUSH1 0x64 ADD PUSH2 0x716 JUMP JUMPDEST PUSH1 0x0 DUP2 DUP2 MSTORE PUSH1 0x2 PUSH1 0x20 MSTORE PUSH1 0x40 SWAP1 DUP2 SWAP1 KECCAK256 DUP1 SLOAD PUSH1 0xFF NOT AND SWAP1 SSTORE MLOAD CALLER SWAP1 PUSH2 0x1910 SWAP1 DUP5 SWAP1 PUSH2 0x26C7 JUMP JUMPDEST PUSH1 0x40 MLOAD SWAP1 DUP2 SWAP1 SUB DUP2 KECCAK256 TIMESTAMP DUP3 MSTORE SWAP1 PUSH32 0x8514A3441F6E99C8150799DAC43140A550E8AE54631E6BB831A24667A64677FB SWAP1 PUSH1 0x20 ADD PUSH2 0xBB9 JUMP JUMPDEST PUSH2 0x194F PUSH2 0x1982 JUMP JUMPDEST PUSH1 0x1 PUSH1 0x1 PUSH1 0xA0 SHL SUB DUP2 AND PUSH2 0x1979 JUMPI PUSH1 0x40 MLOAD PUSH4 0x1E4FBDF7 PUSH1 0xE0 SHL DUP2 MSTORE PUSH1 0x0 PUSH1 0x4 DUP3 ADD MSTORE PUSH1 0x24 ADD PUSH2 0x716 JUMP JUMPDEST PUSH2 0xD09 DUP2 PUSH2 0x1E78 JUMP JUMPDEST PUSH1 0x0 SLOAD PUSH1 0x1 PUSH1 0x1 PUSH1 0xA0 SHL SUB AND CALLER EQ PUSH2 0xDA2 JUMPI PUSH1 0x40 MLOAD PUSH4 0x118CDAA7 PUSH1 0xE0 SHL DUP2 MSTORE CALLER PUSH1 0x4 DUP3 ADD MSTORE PUSH1 0x24 ADD PUSH2 0x716 JUMP JUMPDEST PUSH1 0x0 PUSH2 0x19BA DUP3 PUSH2 0x1EF2 JUMP JUMPDEST PUSH1 0x40 MLOAD PUSH1 0x20 ADD PUSH2 0x19CA SWAP2 SWAP1 PUSH2 0x26C7 JUMP JUMPDEST PUSH1 0x40 MLOAD PUSH1 0x20 DUP2 DUP4 SUB SUB DUP2 MSTORE SWAP1 PUSH1 0x40 MSTORE DUP1 MLOAD SWAP1 PUSH1 0x20 ADD KECCAK256 SWAP1 POP SWAP2 SWAP1 POP JUMP JUMPDEST PUSH1 0x2 PUSH1 0x1 SLOAD SUB PUSH2 0x1A0A JUMPI PUSH1 0x40 MLOAD PUSH4 0x3EE5AEB5 PUSH1 0xE0 SHL DUP2 MSTORE PUSH1 0x4 ADD PUSH1 0x40 MLOAD DUP1 SWAP2 SUB SWAP1 REVERT JUMPDEST PUSH1 0x2 PUSH1 0x1 SSTORE JUMP JUMPDEST PUSH1 0xE DUP1 SLOAD PUSH1 0x0 SWAP2 DUP3 PUSH2 0x1A22 DUP4 PUSH2 0x26F9 JUMP JUMPDEST SWAP1 SWAP2 SSTORE POP PUSH1 0x40 DUP1 MLOAD PUSH1 0xE0 DUP2 ADD DUP3 MSTORE DUP6 DUP2 MSTORE PUSH1 0x1 PUSH1 0x1 PUSH1 0xA0 SHL SUB DUP6 AND PUSH1 0x20 DUP1 DUP4 ADD DUP3 SWAP1 MSTORE DUP3 DUP5 ADD DUP6 SWAP1 MSTORE TIMESTAMP PUSH1 0x60 DUP5 ADD MSTORE PUSH1 0x1 PUSH1 0x80 DUP5 ADD MSTORE PUSH1 0x0 PUSH1 0xA0 DUP5 ADD DUP2 SWAP1 MSTORE PUSH1 0xC0 DUP5 ADD DUP2 SWAP1 MSTORE SWAP2 DUP3 MSTORE PUSH1 0x5 SWAP1 MSTORE SWAP2 SWAP1 SWAP2 KECCAK256 DUP2 MLOAD SWAP3 SWAP4 POP SWAP1 SWAP2 DUP3 SWAP2 SWAP1 DUP2 SWAP1 PUSH2 0x1A89 SWAP1 DUP3 PUSH2 0x279B JUMP JUMPDEST POP PUSH1 0x20 DUP3 DUP2 ADD MLOAD PUSH1 0x1 DUP4 ADD DUP1 SLOAD PUSH1 0x1 PUSH1 0x1 PUSH1 0xA0 SHL SUB SWAP1 SWAP3 AND PUSH1 0x1 PUSH1 0x1 PUSH1 0xA0 SHL SUB NOT SWAP1 SWAP3 AND SWAP2 SWAP1 SWAP2 OR SWAP1 SSTORE PUSH1 0x40 DUP1 DUP5 ADD MLOAD PUSH1 0x2 DUP5 ADD SSTORE PUSH1 0x60 DUP5 ADD MLOAD PUSH1 0x3 DUP5 ADD SSTORE PUSH1 0x80 DUP5 ADD MLOAD PUSH1 0x4 DUP5 ADD DUP1 SLOAD PUSH1 0xA0 DUP8 ADD MLOAD ISZERO ISZERO PUSH2 0x100 MUL PUSH2 0xFF00 NOT SWAP4 ISZERO ISZERO SWAP4 SWAP1 SWAP4 AND PUSH2 0xFFFF NOT SWAP1 SWAP2 AND OR SWAP2 SWAP1 SWAP2 OR SWAP1 SSTORE PUSH1 0xC0 SWAP1 SWAP4 ADD MLOAD PUSH1 0x5 SWAP1 SWAP3 ADD SWAP2 SWAP1 SWAP2 SSTORE PUSH1 0x0 DUP5 DUP2 MSTORE PUSH1 0x6 SWAP1 SWAP2 MSTORE KECCAK256 DUP2 MLOAD DUP3 SWAP2 SWAP1 DUP2 SWAP1 PUSH2 0x1B22 SWAP1 DUP3 PUSH2 0x279B JUMP JUMPDEST POP PUSH1 0x20 DUP3 DUP2 ADD MLOAD PUSH1 0x1 DUP4 ADD DUP1 SLOAD PUSH1 0x1 PUSH1 0x1 PUSH1 0xA0 SHL SUB SWAP3 DUP4 AND PUSH1 0x1 PUSH1 0x1 PUSH1 0xA0 SHL SUB NOT SWAP1 SWAP2 AND OR SWAP1 SSTORE PUSH1 0x40 DUP1 DUP6 ADD MLOAD PUSH1 0x2 DUP6 ADD SSTORE PUSH1 0x60 DUP6 ADD MLOAD PUSH1 0x3 DUP1 DUP7 ADD SWAP2 SWAP1 SWAP2 SSTORE PUSH1 0x80 DUP7 ADD MLOAD PUSH1 0x4 DUP7 ADD DUP1 SLOAD PUSH1 0xA0 DUP10 ADD MLOAD ISZERO ISZERO PUSH2 0x100 MUL PUSH2 0xFF00 NOT SWAP4 ISZERO ISZERO SWAP4 SWAP1 SWAP4 AND PUSH2 0xFFFF NOT SWAP1 SWAP2 AND OR SWAP2 SWAP1 SWAP2 OR SWAP1 SSTORE PUSH1 0xC0 SWAP1 SWAP6 ADD MLOAD PUSH1 0x5 SWAP1 SWAP5 ADD SWAP4 SWAP1 SWAP4 SSTORE DUP7 AND PUSH1 0x0 SWAP1 DUP2 MSTORE SWAP3 SWAP1 MSTORE SWAP1 KECCAK256 PUSH2 0x1BB6 DUP6 DUP3 PUSH2 0x279B JUMP JUMPDEST POP DUP3 PUSH1 0x4 DUP6 PUSH1 0x40 MLOAD PUSH2 0x1BC8 SWAP2 SWAP1 PUSH2 0x26C7 JUMP JUMPDEST SWAP1 DUP2 MSTORE PUSH1 0x40 MLOAD SWAP1 DUP2 SWAP1 SUB PUSH1 0x20 ADD SWAP1 KECCAK256 DUP1 SLOAD PUSH1 0x1 PUSH1 0x1 PUSH1 0xA0 SHL SUB SWAP3 SWAP1 SWAP3 AND PUSH1 0x1 PUSH1 0x1 PUSH1 0xA0 SHL SUB NOT SWAP1 SWAP3 AND SWAP2 SWAP1 SWAP2 OR SWAP1 SSTORE PUSH1 0xA SLOAD PUSH1 0xFF AND DUP1 ISZERO PUSH2 0x1C0C JUMPI POP PUSH1 0x8 SLOAD PUSH1 0x7 SLOAD LT JUMPDEST ISZERO PUSH2 0x1DB8 JUMPI PUSH1 0x9 SLOAD PUSH1 0xC0 DUP3 ADD DUP2 SWAP1 MSTORE PUSH1 0x0 PUSH1 0xA0 DUP4 ADD DUP2 SWAP1 MSTORE PUSH1 0x7 DUP1 SLOAD SWAP2 PUSH2 0x1C32 DUP4 PUSH2 0x26F9 JUMP JUMPDEST SWAP1 SWAP2 SSTORE POP POP PUSH1 0x1 PUSH1 0x1 PUSH1 0xA0 SHL SUB DUP5 AND PUSH1 0x0 SWAP1 DUP2 MSTORE PUSH1 0x5 PUSH1 0x20 MSTORE PUSH1 0x40 SWAP1 KECCAK256 DUP3 MLOAD DUP4 SWAP2 SWAP1 DUP2 SWAP1 PUSH2 0x1C60 SWAP1 DUP3 PUSH2 0x279B JUMP JUMPDEST POP PUSH1 0x20 DUP3 DUP2 ADD MLOAD PUSH1 0x1 DUP4 ADD DUP1 SLOAD PUSH1 0x1 PUSH1 0x1 PUSH1 0xA0 SHL SUB SWAP1 SWAP3 AND PUSH1 0x1 PUSH1 0x1 PUSH1 0xA0 SHL SUB NOT SWAP1 SWAP3 AND SWAP2 SWAP1 SWAP2 OR SWAP1 SSTORE PUSH1 0x40 DUP1 DUP5 ADD MLOAD PUSH1 0x2 DUP5 ADD SSTORE PUSH1 0x60 DUP5 ADD MLOAD PUSH1 0x3 DUP5 ADD SSTORE PUSH1 0x80 DUP5 ADD MLOAD PUSH1 0x4 DUP5 ADD DUP1 SLOAD PUSH1 0xA0 DUP8 ADD MLOAD ISZERO ISZERO PUSH2 0x100 MUL PUSH2 0xFF00 NOT SWAP4 ISZERO ISZERO SWAP4 SWAP1 SWAP4 AND PUSH2 0xFFFF NOT SWAP1 SWAP2 AND OR SWAP2 SWAP1 SWAP2 OR SWAP1 SSTORE PUSH1 0xC0 SWAP1 SWAP4 ADD MLOAD PUSH1 0x5 SWAP1 SWAP3 ADD SWAP2 SWAP1 SWAP2 SSTORE PUSH1 0x0 DUP6 DUP2 MSTORE PUSH1 0x6 SWAP1 SWAP2 MSTORE KECCAK256 DUP3 MLOAD DUP4 SWAP2 SWAP1 DUP2 SWAP1 PUSH2 0x1CF9 SWAP1 DUP3 PUSH2 0x279B JUMP JUMPDEST POP PUSH1 0x20 DUP3 DUP2 ADD MLOAD PUSH1 0x1 DUP4 ADD DUP1 SLOAD PUSH1 0x1 PUSH1 0x1 PUSH1 0xA0 SHL SUB SWAP3 DUP4 AND PUSH1 0x1 PUSH1 0x1 PUSH1 0xA0 SHL SUB NOT SWAP1 SWAP2 AND OR SWAP1 SSTORE PUSH1 0x40 DUP1 DUP6 ADD MLOAD PUSH1 0x2 DUP6 ADD SSTORE PUSH1 0x60 DUP1 DUP7 ADD MLOAD PUSH1 0x3 DUP7 ADD SSTORE PUSH1 0x80 DUP7 ADD MLOAD PUSH1 0x4 DUP7 ADD DUP1 SLOAD PUSH1 0xA0 DUP10 ADD MLOAD ISZERO ISZERO PUSH2 0x100 MUL PUSH2 0xFF00 NOT SWAP4 ISZERO ISZERO SWAP4 SWAP1 SWAP4 AND PUSH2 0xFFFF NOT SWAP1 SWAP2 AND OR SWAP2 SWAP1 SWAP2 OR SWAP1 SSTORE PUSH1 0xC0 SWAP1 SWAP6 ADD MLOAD PUSH1 0x5 SWAP1 SWAP5 ADD SWAP4 SWAP1 SWAP4 SSTORE DUP3 MLOAD DUP6 DUP2 MSTORE SWAP2 DUP3 ADD DUP8 SWAP1 MSTORE TIMESTAMP SWAP3 DUP3 ADD SWAP3 SWAP1 SWAP3 MSTORE SWAP1 DUP7 AND SWAP2 PUSH32 0x6265C4408AC5B7C9B18D37B72535BE33A793F145417CBBF3FD5AD07AA2184CC1 SWAP2 ADD PUSH1 0x40 MLOAD DUP1 SWAP2 SUB SWAP1 LOG2 POP JUMPDEST PUSH1 0xD DUP1 SLOAD SWAP1 PUSH1 0x0 PUSH2 0x1DC8 DUP4 PUSH2 0x26F9 JUMP JUMPDEST SWAP2 SWAP1 POP SSTORE POP DUP2 DUP4 PUSH1 0x1 PUSH1 0x1 PUSH1 0xA0 SHL SUB AND DUP6 PUSH1 0x40 MLOAD PUSH2 0x1DE6 SWAP2 SWAP1 PUSH2 0x26C7 JUMP JUMPDEST PUSH1 0x40 MLOAD SWAP1 DUP2 SWAP1 SUB DUP2 KECCAK256 TIMESTAMP DUP3 MSTORE SWAP1 PUSH32 0x13F42EE0DE0AC9236AD9FD1EDD06FB6B07F3E2423A2C0B6CB6DC732822FEC14C SWAP1 PUSH1 0x20 ADD PUSH1 0x40 MLOAD DUP1 SWAP2 SUB SWAP1 LOG4 DUP3 PUSH1 0x1 PUSH1 0x1 PUSH1 0xA0 SHL SUB AND DUP5 PUSH1 0x40 MLOAD PUSH2 0x1E38 SWAP2 SWAP1 PUSH2 0x26C7 JUMP JUMPDEST PUSH1 0x40 MLOAD SWAP1 DUP2 SWAP1 SUB DUP2 KECCAK256 TIMESTAMP DUP3 MSTORE SWAP1 PUSH32 0x90DEC1F4FFCC94B09EB3739C1C9D43F199BB65196004104DFB39A3DA25C9AFD9 SWAP1 PUSH1 0x20 ADD PUSH1 0x40 MLOAD DUP1 SWAP2 SUB SWAP1 LOG3 POP POP POP POP JUMP JUMPDEST PUSH1 0x0 DUP1 SLOAD PUSH1 0x1 PUSH1 0x1 PUSH1 0xA0 SHL SUB DUP4 DUP2 AND PUSH1 0x1 PUSH1 0x1 PUSH1 0xA0 SHL SUB NOT DUP4 AND DUP2 OR DUP5 SSTORE PUSH1 0x40 MLOAD SWAP2 SWAP1 SWAP3 AND SWAP3 DUP4 SWAP2 PUSH32 0x8BE0079C531659141344CD1FD0A4F28419497F9722A3DAAFE3B4186F6B6457E0 SWAP2 SWAP1 LOG3 POP POP JUMP JUMPDEST PUSH1 0x0 DUP1 PUSH1 0x0 DUP1 PUSH2 0x1ED8 DUP7 DUP7 PUSH2 0x2055 JUMP JUMPDEST SWAP3 POP SWAP3 POP SWAP3 POP PUSH2 0x1EE8 DUP3 DUP3 PUSH2 0x20A2 JUMP JUMPDEST POP SWAP1 SWAP5 SWAP4 POP POP POP POP JUMP JUMPDEST PUSH1 0x60 PUSH1 0x0 DUP3 SWAP1 POP PUSH1 0x0 DUP2 MLOAD PUSH8 0xFFFFFFFFFFFFFFFF DUP2 GT ISZERO PUSH2 0x1F15 JUMPI PUSH2 0x1F15 PUSH2 0x2274 JUMP JUMPDEST PUSH1 0x40 MLOAD SWAP1 DUP1 DUP3 MSTORE DUP1 PUSH1 0x1F ADD PUSH1 0x1F NOT AND PUSH1 0x20 ADD DUP3 ADD PUSH1 0x40 MSTORE DUP1 ISZERO PUSH2 0x1F3F JUMPI PUSH1 0x20 DUP3 ADD DUP2 DUP1 CALLDATASIZE DUP4 CALLDATACOPY ADD SWAP1 POP JUMPDEST POP SWAP1 POP PUSH1 0x0 JUMPDEST DUP3 MLOAD DUP2 LT ISZERO PUSH2 0x204D JUMPI PUSH1 0x41 DUP4 DUP3 DUP2 MLOAD DUP2 LT PUSH2 0x1F62 JUMPI PUSH2 0x1F62 PUSH2 0x26B1 JUMP JUMPDEST ADD PUSH1 0x20 ADD MLOAD PUSH1 0xF8 SHR LT DUP1 ISZERO SWAP1 PUSH2 0x1F92 JUMPI POP PUSH1 0x5A DUP4 DUP3 DUP2 MLOAD DUP2 LT PUSH2 0x1F87 JUMPI PUSH2 0x1F87 PUSH2 0x26B1 JUMP JUMPDEST ADD PUSH1 0x20 ADD MLOAD PUSH1 0xF8 SHR GT ISZERO JUMPDEST ISZERO PUSH2 0x1FF4 JUMPI DUP3 DUP2 DUP2 MLOAD DUP2 LT PUSH2 0x1FA9 JUMPI PUSH2 0x1FA9 PUSH2 0x26B1 JUMP JUMPDEST PUSH1 0x20 ADD ADD MLOAD PUSH1 0xF8 SHR PUSH1 0xF8 SHL PUSH1 0xF8 SHR PUSH1 0x20 PUSH2 0x1FC3 SWAP2 SWAP1 PUSH2 0x29C7 JUMP JUMPDEST PUSH1 0xF8 SHL DUP3 DUP3 DUP2 MLOAD DUP2 LT PUSH2 0x1FD8 JUMPI PUSH2 0x1FD8 PUSH2 0x26B1 JUMP JUMPDEST PUSH1 0x20 ADD ADD SWAP1 PUSH1 0x1 PUSH1 0x1 PUSH1 0xF8 SHL SUB NOT AND SWAP1 DUP2 PUSH1 0x0 BYTE SWAP1 MSTORE8 POP PUSH2 0x203B JUMP JUMPDEST DUP3 DUP2 DUP2 MLOAD DUP2 LT PUSH2 0x2006 JUMPI PUSH2 0x2006 PUSH2 0x26B1 JUMP JUMPDEST PUSH1 0x20 ADD ADD MLOAD PUSH1 0xF8 SHR PUSH1 0xF8 SHL DUP3 DUP3 DUP2 MLOAD DUP2 LT PUSH2 0x2023 JUMPI PUSH2 0x2023 PUSH2 0x26B1 JUMP JUMPDEST PUSH1 0x20 ADD ADD SWAP1 PUSH1 0x1 PUSH1 0x1 PUSH1 0xF8 SHL SUB NOT AND SWAP1 DUP2 PUSH1 0x0 BYTE SWAP1 MSTORE8 POP JUMPDEST DUP1 PUSH2 0x2045 DUP2 PUSH2 0x26F9 JUMP JUMPDEST SWAP2 POP POP PUSH2 0x1F45 JUMP JUMPDEST POP SWAP4 SWAP3 POP POP POP JUMP JUMPDEST PUSH1 0x0 DUP1 PUSH1 0x0 DUP4 MLOAD PUSH1 0x41 SUB PUSH2 0x208F JUMPI PUSH1 0x20 DUP5 ADD MLOAD PUSH1 0x40 DUP6 ADD MLOAD PUSH1 0x60 DUP7 ADD MLOAD PUSH1 0x0 BYTE PUSH2 0x2081 DUP9 DUP3 DUP6 DUP6 PUSH2 0x215B JUMP JUMPDEST SWAP6 POP SWAP6 POP SWAP6 POP POP POP POP PUSH2 0x209B JUMP JUMPDEST POP POP DUP2 MLOAD PUSH1 0x0 SWAP2 POP PUSH1 0x2 SWAP1 JUMPDEST SWAP3 POP SWAP3 POP SWAP3 JUMP JUMPDEST PUSH1 0x0 DUP3 PUSH1 0x3 DUP2 GT ISZERO PUSH2 0x20B6 JUMPI PUSH2 0x20B6 PUSH2 0x29E0 JUMP JUMPDEST SUB PUSH2 0x20BF JUMPI POP POP JUMP JUMPDEST PUSH1 0x1 DUP3 PUSH1 0x3 DUP2 GT ISZERO PUSH2 0x20D3 JUMPI PUSH2 0x20D3 PUSH2 0x29E0 JUMP JUMPDEST SUB PUSH2 0x20F1 JUMPI PUSH1 0x40 MLOAD PUSH4 0xF645EEDF PUSH1 0xE0 SHL DUP2 MSTORE PUSH1 0x4 ADD PUSH1 0x40 MLOAD DUP1 SWAP2 SUB SWAP1 REVERT JUMPDEST PUSH1 0x2 DUP3 PUSH1 0x3 DUP2 GT ISZERO PUSH2 0x2105 JUMPI PUSH2 0x2105 PUSH2 0x29E0 JUMP JUMPDEST SUB PUSH2 0x2126 JUMPI PUSH1 0x40 MLOAD PUSH4 0xFCE698F7 PUSH1 0xE0 SHL DUP2 MSTORE PUSH1 0x4 DUP2 ADD DUP3 SWAP1 MSTORE PUSH1 0x24 ADD PUSH2 0x716 JUMP JUMPDEST PUSH1 0x3 DUP3 PUSH1 0x3 DUP2 GT ISZERO PUSH2 0x213A JUMPI PUSH2 0x213A PUSH2 0x29E0 JUMP JUMPDEST SUB PUSH2 0x652 JUMPI PUSH1 0x40 MLOAD PUSH4 0x35E2F383 PUSH1 0xE2 SHL DUP2 MSTORE PUSH1 0x4 DUP2 ADD DUP3 SWAP1 MSTORE PUSH1 0x24 ADD PUSH2 0x716 JUMP JUMPDEST PUSH1 0x0 DUP1 DUP1 PUSH32 0x7FFFFFFFFFFFFFFFFFFFFFFFFFFFFFFF5D576E7357A4501DDFE92F46681B20A0 DUP5 GT ISZERO PUSH2 0x2196 JUMPI POP PUSH1 0x0 SWAP2 POP PUSH1 0x3 SWAP1 POP DUP3 PUSH2 0x2220 JUMP JUMPDEST PUSH1 0x40 DUP1 MLOAD PUSH1 0x0 DUP1 DUP3 MSTORE PUSH1 0x20 DUP3 ADD DUP1 DUP5 MSTORE DUP11 SWAP1 MSTORE PUSH1 0xFF DUP10 AND SWAP3 DUP3 ADD SWAP3 SWAP1 SWAP3 MSTORE PUSH1 0x60 DUP2 ADD DUP8 SWAP1 MSTORE PUSH1 0x80 DUP2 ADD DUP7 SWAP1 MSTORE PUSH1 0x1 SWAP1 PUSH1 0xA0 ADD PUSH1 0x20 PUSH1 0x40 MLOAD PUSH1 0x20 DUP2 SUB SWAP1 DUP1 DUP5 SUB SWAP1 DUP6 GAS STATICCALL ISZERO DUP1 ISZERO PUSH2 0x21EA JUMPI RETURNDATASIZE PUSH1 0x0 DUP1 RETURNDATACOPY RETURNDATASIZE PUSH1 0x0 REVERT JUMPDEST POP POP PUSH1 0x40 MLOAD PUSH1 0x1F NOT ADD MLOAD SWAP2 POP POP PUSH1 0x1 PUSH1 0x1 PUSH1 0xA0 SHL SUB DUP2 AND PUSH2 0x2216 JUMPI POP PUSH1 0x0 SWAP3 POP PUSH1 0x1 SWAP2 POP DUP3 SWAP1 POP PUSH2 0x2220 JUMP JUMPDEST SWAP3 POP PUSH1 0x0 SWAP2 POP DUP2 SWAP1 POP JUMPDEST SWAP5 POP SWAP5 POP SWAP5 SWAP2 POP POP JUMP JUMPDEST PUSH1 0x40 MLOAD DUP1 PUSH1 0xE0 ADD PUSH1 0x40 MSTORE DUP1 PUSH1 0x60 DUP2 MSTORE PUSH1 0x20 ADD PUSH1 0x0 PUSH1 0x1 PUSH1 0x1 PUSH1 0xA0 SHL SUB AND DUP2 MSTORE PUSH1 0x20 ADD PUSH1 0x0 DUP2 MSTORE PUSH1 0x20 ADD PUSH1 0x0 DUP2 MSTORE PUSH1 0x20 ADD PUSH1 0x0 ISZERO ISZERO DUP2 MSTORE PUSH1 0x20 ADD PUSH1 0x0 ISZERO ISZERO DUP2 MSTORE PUSH1 0x20 ADD PUSH1 0x0 DUP2 MSTORE POP SWAP1 JUMP JUMPDEST PUSH4 0x4E487B71 PUSH1 0xE0 SHL PUSH1 0x0 MSTORE PUSH1 0x41 PUSH1 0x4 MSTORE PUSH1 0x24 PUSH1 0x0 REVERT JUMPDEST PUSH1 0x40 MLOAD PUSH1 0x1F DUP3 ADD PUSH1 0x1F NOT AND DUP2 ADD PUSH8 0xFFFFFFFFFFFFFFFF DUP2 GT DUP3 DUP3 LT OR ISZERO PUSH2 0x22B3 JUMPI PUSH2 0x22B3 PUSH2 0x2274 JUMP JUMPDEST PUSH1 0x40 MSTORE SWAP2 SWAP1 POP JUMP JUMPDEST PUSH1 0x0 DUP3 PUSH1 0x1F DUP4 ADD SLT PUSH2 0x22CC JUMPI PUSH1 0x0 DUP1 REVERT JUMPDEST DUP2 CALLDATALOAD PUSH8 0xFFFFFFFFFFFFFFFF DUP2 GT ISZERO PUSH2 0x22E6 JUMPI PUSH2 0x22E6 PUSH2 0x2274 JUMP JUMPDEST PUSH2 0x22F9 PUSH1 0x1F DUP3 ADD PUSH1 0x1F NOT AND PUSH1 0x20 ADD PUSH2 0x228A JUMP JUMPDEST DUP2 DUP2 MSTORE DUP5 PUSH1 0x20 DUP4 DUP7 ADD ADD GT ISZERO PUSH2 0x230E JUMPI PUSH1 0x0 DUP1 REVERT JUMPDEST DUP2 PUSH1 0x20 DUP6 ADD PUSH1 0x20 DUP4 ADD CALLDATACOPY PUSH1 0x0 SWAP2 DUP2 ADD PUSH1 0x20 ADD SWAP2 SWAP1 SWAP2 MSTORE SWAP4 SWAP3 POP POP POP JUMP JUMPDEST PUSH1 0x0 PUSH1 0x20 DUP1 DUP4 DUP6 SUB SLT ISZERO PUSH2 0x233E JUMPI PUSH1 0x0 DUP1 REVERT JUMPDEST DUP3 CALLDATALOAD PUSH8 0xFFFFFFFFFFFFFFFF DUP1 DUP3 GT ISZERO PUSH2 0x2356 JUMPI PUSH1 0x0 DUP1 REVERT JUMPDEST DUP2 DUP6 ADD SWAP2 POP DUP6 PUSH1 0x1F DUP4 ADD SLT PUSH2 0x236A JUMPI PUSH1 0x0 DUP1 REVERT JUMPDEST DUP2 CALLDATALOAD DUP2 DUP2 GT ISZERO PUSH2 0x237C JUMPI PUSH2 0x237C PUSH2 0x2274 JUMP JUMPDEST DUP1 PUSH1 0x5 SHL PUSH2 0x238B DUP6 DUP3 ADD PUSH2 0x228A JUMP JUMPDEST SWAP2 DUP3 MSTORE DUP4 DUP2 ADD DUP6 ADD SWAP2 DUP6 DUP2 ADD SWAP1 DUP10 DUP5 GT ISZERO PUSH2 0x23A5 JUMPI PUSH1 0x0 DUP1 REVERT JUMPDEST DUP7 DUP7 ADD SWAP3 POP JUMPDEST DUP4 DUP4 LT ISZERO PUSH2 0x23E1 JUMPI DUP3 CALLDATALOAD DUP6 DUP2 GT ISZERO PUSH2 0x23C3 JUMPI PUSH1 0x0 DUP1 DUP2 REVERT JUMPDEST PUSH2 0x23D1 DUP12 DUP10 DUP4 DUP11 ADD ADD PUSH2 0x22BB JUMP JUMPDEST DUP4 MSTORE POP SWAP2 DUP7 ADD SWAP2 SWAP1 DUP7 ADD SWAP1 PUSH2 0x23AB JUMP JUMPDEST SWAP10 SWAP9 POP POP POP POP POP POP POP POP POP JUMP JUMPDEST PUSH1 0x0 PUSH1 0x20 DUP3 DUP5 SUB SLT ISZERO PUSH2 0x2400 JUMPI PUSH1 0x0 DUP1 REVERT JUMPDEST DUP2 CALLDATALOAD PUSH8 0xFFFFFFFFFFFFFFFF DUP2 GT ISZERO PUSH2 0x2417 JUMPI PUSH1 0x0 DUP1 REVERT JUMPDEST PUSH2 0x2423 DUP5 DUP3 DUP6 ADD PUSH2 0x22BB JUMP JUMPDEST SWAP5 SWAP4 POP POP POP POP JUMP JUMPDEST DUP1 CALLDATALOAD PUSH1 0x1 PUSH1 0x1 PUSH1 0xA0 SHL SUB DUP2 AND DUP2 EQ PUSH2 0x2442 JUMPI PUSH1 0x0 DUP1 REVERT JUMPDEST SWAP2 SWAP1 POP JUMP JUMPDEST PUSH1 0x0 PUSH1 0x20 DUP3 DUP5 SUB SLT ISZERO PUSH2 0x2459 JUMPI PUSH1 0x0 DUP1 REVERT JUMPDEST PUSH2 0x2462 DUP3 PUSH2 0x242B JUMP JUMPDEST SWAP4 SWAP3 POP POP POP JUMP JUMPDEST PUSH1 0x0 JUMPDEST DUP4 DUP2 LT ISZERO PUSH2 0x2484 JUMPI DUP2 DUP2 ADD MLOAD DUP4 DUP3 ADD MSTORE PUSH1 0x20 ADD PUSH2 0x246C JUMP JUMPDEST POP POP PUSH1 0x0 SWAP2 ADD MSTORE JUMP JUMPDEST PUSH1 0x0 DUP2 MLOAD DUP1 DUP5 MSTORE PUSH2 0x24A5 DUP2 PUSH1 0x20 DUP7 ADD PUSH1 0x20 DUP7 ADD PUSH2 0x2469 JUMP JUMPDEST PUSH1 0x1F ADD PUSH1 0x1F NOT AND SWAP3 SWAP1 SWAP3 ADD PUSH1 0x20 ADD SWAP3 SWAP2 POP POP JUMP JUMPDEST PUSH1 0x20 DUP2 MSTORE PUSH1 0x0 DUP3 MLOAD PUSH1 0xE0 PUSH1 0x20 DUP5 ADD MSTORE PUSH2 0x24D6 PUSH2 0x100 DUP5 ADD DUP3 PUSH2 0x248D JUMP JUMPDEST SWAP1 POP PUSH1 0x1 DUP1 PUSH1 0xA0 SHL SUB PUSH1 0x20 DUP6 ADD MLOAD AND PUSH1 0x40 DUP5 ADD MSTORE PUSH1 0x40 DUP5 ADD MLOAD PUSH1 0x60 DUP5 ADD MSTORE PUSH1 0x60 DUP5 ADD MLOAD PUSH1 0x80 DUP5 ADD MSTORE PUSH1 0x80 DUP5 ADD MLOAD ISZERO ISZERO PUSH1 0xA0 DUP5 ADD MSTORE PUSH1 0xA0 DUP5 ADD MLOAD ISZERO ISZERO PUSH1 0xC0 DUP5 ADD MSTORE PUSH1 0xC0 DUP5 ADD MLOAD PUSH1 0xE0 DUP5 ADD MSTORE DUP1 SWAP2 POP POP SWAP3 SWAP2 POP POP JUMP JUMPDEST PUSH1 0x0 PUSH1 0x20 DUP3 DUP5 SUB SLT ISZERO PUSH2 0x253C JUMPI PUSH1 0x0 DUP1 REVERT JUMPDEST POP CALLDATALOAD SWAP2 SWAP1 POP JUMP JUMPDEST PUSH1 0xE0 DUP2 MSTORE PUSH1 0x0 PUSH2 0x2556 PUSH1 0xE0 DUP4 ADD DUP11 PUSH2 0x248D JUMP JUMPDEST PUSH1 0x1 PUSH1 0x1 PUSH1 0xA0 SHL SUB SWAP9 SWAP1 SWAP9 AND PUSH1 0x20 DUP4 ADD MSTORE POP PUSH1 0x40 DUP2 ADD SWAP6 SWAP1 SWAP6 MSTORE PUSH1 0x60 DUP6 ADD SWAP4 SWAP1 SWAP4 MSTORE SWAP1 ISZERO ISZERO PUSH1 0x80 DUP5 ADD MSTORE ISZERO ISZERO PUSH1 0xA0 DUP4 ADD MSTORE PUSH1 0xC0 SWAP1 SWAP2 ADD MSTORE SWAP2 SWAP1 POP JUMP JUMPDEST DUP1 ISZERO ISZERO DUP2 EQ PUSH2 0xD09 JUMPI PUSH1 0x0 DUP1 REVERT JUMPDEST PUSH1 0x0 PUSH1 0x20 DUP3 DUP5 SUB SLT ISZERO PUSH2 0x25B2 JUMPI PUSH1 0x0 DUP1 REVERT JUMPDEST DUP2 CALLDATALOAD PUSH2 0x2462 DUP2 PUSH2 0x2592 JUMP JUMPDEST PUSH1 0x0 DUP1 PUSH1 0x0 PUSH1 0x60 DUP5 DUP7 SUB SLT ISZERO PUSH2 0x25D2 JUMPI PUSH1 0x0 DUP1 REVERT JUMPDEST DUP4 CALLDATALOAD SWAP3 POP PUSH1 0x20 DUP5 ADD CALLDATALOAD SWAP2 POP PUSH1 0x40 DUP5 ADD CALLDATALOAD PUSH2 0x25EB DUP2 PUSH2 0x2592 JUMP JUMPDEST DUP1 SWAP2 POP POP SWAP3 POP SWAP3 POP SWAP3 JUMP JUMPDEST PUSH1 0x0 DUP1 PUSH1 0x40 DUP4 DUP6 SUB SLT ISZERO PUSH2 0x2609 JUMPI PUSH1 0x0 DUP1 REVERT JUMPDEST DUP3 CALLDATALOAD PUSH8 0xFFFFFFFFFFFFFFFF DUP1 DUP3 GT ISZERO PUSH2 0x2621 JUMPI PUSH1 0x0 DUP1 REVERT JUMPDEST PUSH2 0x262D DUP7 DUP4 DUP8 ADD PUSH2 0x22BB JUMP JUMPDEST SWAP4 POP PUSH1 0x20 DUP6 ADD CALLDATALOAD SWAP2 POP DUP1 DUP3 GT ISZERO PUSH2 0x2643 JUMPI PUSH1 0x0 DUP1 REVERT JUMPDEST POP PUSH2 0x2650 DUP6 DUP3 DUP7 ADD PUSH2 0x22BB JUMP JUMPDEST SWAP2 POP POP SWAP3 POP SWAP3 SWAP1 POP JUMP JUMPDEST PUSH1 0x20 DUP2 MSTORE PUSH1 0x0 PUSH2 0x2462 PUSH1 0x20 DUP4 ADD DUP5 PUSH2 0x248D JUMP JUMPDEST PUSH1 0x0 DUP1 PUSH1 0x40 DUP4 DUP6 SUB SLT ISZERO PUSH2 0x2680 JUMPI PUSH1 0x0 DUP1 REVERT JUMPDEST PUSH2 0x2689 DUP4 PUSH2 0x242B JUMP JUMPDEST SWAP2 POP PUSH1 0x20 DUP4 ADD CALLDATALOAD PUSH8 0xFFFFFFFFFFFFFFFF DUP2 GT ISZERO PUSH2 0x26A5 JUMPI PUSH1 0x0 DUP1 REVERT JUMPDEST PUSH2 0x2650 DUP6 DUP3 DUP7 ADD PUSH2 0x22BB JUMP JUMPDEST PUSH4 0x4E487B71 PUSH1 0xE0 SHL PUSH1 0x0 MSTORE PUSH1 0x32 PUSH1 0x4 MSTORE PUSH1 0x24 PUSH1 0x0 REVERT JUMPDEST PUSH1 0x0 DUP3 MLOAD PUSH2 0x26D9 DUP2 DUP5 PUSH1 0x20 DUP8 ADD PUSH2 0x2469 JUMP JUMPDEST SWAP2 SWAP1 SWAP2 ADD SWAP3 SWAP2 POP POP JUMP JUMPDEST PUSH4 0x4E487B71 PUSH1 0xE0 SHL PUSH1 0x0 MSTORE PUSH1 0x11 PUSH1 0x4 MSTORE PUSH1 0x24 PUSH1 0x0 REVERT JUMPDEST PUSH1 0x0 PUSH1 0x1 DUP3 ADD PUSH2 0x270B JUMPI PUSH2 0x270B PUSH2 0x26E3 JUMP JUMPDEST POP PUSH1 0x1 ADD SWAP1 JUMP JUMPDEST PUSH1 0x1 DUP2 DUP2 SHR SWAP1 DUP3 AND DUP1 PUSH2 0x2726 JUMPI PUSH1 0x7F DUP3 AND SWAP2 POP JUMPDEST PUSH1 0x20 DUP3 LT DUP2 SUB PUSH2 0x2746 JUMPI PUSH4 0x4E487B71 PUSH1 0xE0 SHL PUSH1 0x0 MSTORE PUSH1 0x22 PUSH1 0x4 MSTORE PUSH1 0x24 PUSH1 0x0 REVERT JUMPDEST POP SWAP2 SWAP1 POP JUMP JUMPDEST PUSH1 0x1F DUP3 GT ISZERO PUSH2 0x2796 JUMPI PUSH1 0x0 DUP2 DUP2 MSTORE PUSH1 0x20 DUP2 KECCAK256 PUSH1 0x1F DUP6 ADD PUSH1 0x5 SHR DUP2 ADD PUSH1 0x20 DUP7 LT ISZERO PUSH2 0x2773 JUMPI POP DUP1 JUMPDEST PUSH1 0x1F DUP6 ADD PUSH1 0x5 SHR DUP3 ADD SWAP2 POP JUMPDEST DUP2 DUP2 LT ISZERO PUSH2 0x2792 JUMPI DUP3 DUP2 SSTORE PUSH1 0x1 ADD PUSH2 0x277F JUMP JUMPDEST POP POP POP JUMPDEST POP POP POP JUMP JUMPDEST DUP2 MLOAD PUSH8 0xFFFFFFFFFFFFFFFF DUP2 GT ISZERO PUSH2 0x27B5 JUMPI PUSH2 0x27B5 PUSH2 0x2274 JUMP JUMPDEST PUSH2 0x27C9 DUP2 PUSH2 0x27C3 DUP5 SLOAD PUSH2 0x2712 JUMP JUMPDEST DUP5 PUSH2 0x274C JUMP JUMPDEST PUSH1 0x20 DUP1 PUSH1 0x1F DUP4 GT PUSH1 0x1 DUP2 EQ PUSH2 0x27FE JUMPI PUSH1 0x0 DUP5 ISZERO PUSH2 0x27E6 JUMPI POP DUP6 DUP4 ADD MLOAD JUMPDEST PUSH1 0x0 NOT PUSH1 0x3 DUP7 SWAP1 SHL SHR NOT AND PUSH1 0x1 DUP6 SWAP1 SHL OR DUP6 SSTORE PUSH2 0x2792 JUMP JUMPDEST PUSH1 0x0 DUP6 DUP2 MSTORE PUSH1 0x20 DUP2 KECCAK256 PUSH1 0x1F NOT DUP7 AND SWAP2 JUMPDEST DUP3 DUP2 LT ISZERO PUSH2 0x282D JUMPI DUP9 DUP7 ADD MLOAD DUP3 SSTORE SWAP5 DUP5 ADD SWAP5 PUSH1 0x1 SWAP1 SWAP2 ADD SWAP1 DUP5 ADD PUSH2 0x280E JUMP JUMPDEST POP DUP6 DUP3 LT ISZERO PUSH2 0x284B JUMPI DUP8 DUP6 ADD MLOAD PUSH1 0x0 NOT PUSH1 0x3 DUP9 SWAP1 SHL PUSH1 0xF8 AND SHR NOT AND DUP2 SSTORE JUMPDEST POP POP POP POP POP PUSH1 0x1 SWAP1 DUP2 SHL ADD SWAP1 SSTORE POP JUMP JUMPDEST PUSH1 0x0 DUP4 MLOAD PUSH2 0x286D DUP2 DUP5 PUSH1 0x20 DUP9 ADD PUSH2 0x2469 JUMP JUMPDEST PUSH1 0x60 SWAP4 SWAP1 SWAP4 SHL PUSH12 0xFFFFFFFFFFFFFFFFFFFFFFFF NOT AND SWAP2 SWAP1 SWAP3 ADD SWAP1 DUP2 MSTORE PUSH1 0x14 ADD SWAP3 SWAP2 POP POP JUMP JUMPDEST PUSH1 0x1 PUSH1 0x1 PUSH1 0xA0 SHL SUB DUP4 AND DUP2 MSTORE PUSH1 0x40 PUSH1 0x20 DUP3 ADD DUP2 SWAP1 MSTORE PUSH1 0x0 SWAP1 PUSH2 0x2423 SWAP1 DUP4 ADD DUP5 PUSH2 0x248D JUMP JUMPDEST PUSH1 0x0 PUSH1 0x20 DUP3 DUP5 SUB SLT ISZERO PUSH2 0x28C8 JUMPI PUSH1 0x0 DUP1 REVERT JUMPDEST POP MLOAD SWAP2 SWAP1 POP JUMP JUMPDEST DUP2 DUP2 SUB PUSH2 0x28DA JUMPI POP POP JUMP JUMPDEST PUSH2 0x28E4 DUP3 SLOAD PUSH2 0x2712 JUMP JUMPDEST PUSH8 0xFFFFFFFFFFFFFFFF DUP2 GT ISZERO PUSH2 0x28FC JUMPI PUSH2 0x28FC PUSH2 0x2274 JUMP JUMPDEST PUSH2 0x290A DUP2 PUSH2 0x27C3 DUP5 SLOAD PUSH2 0x2712 JUMP JUMPDEST PUSH1 0x0 PUSH1 0x1F DUP3 GT PUSH1 0x1 DUP2 EQ PUSH2 0x293E JUMPI PUSH1 0x0 DUP4 ISZERO PUSH2 0x2926 JUMPI POP DUP5 DUP3 ADD SLOAD JUMPDEST PUSH1 0x0 NOT PUSH1 0x3 DUP6 SWAP1 SHL SHR NOT AND PUSH1 0x1 DUP5 SWAP1 SHL OR DUP5 SSTORE PUSH2 0x29A3 JUMP JUMPDEST PUSH1 0x0 DUP6 DUP2 MSTORE PUSH1 0x20 SWAP1 KECCAK256 PUSH1 0x1F NOT DUP5 AND SWAP1 PUSH1 0x0 DUP7 DUP2 MSTORE PUSH1 0x20 SWAP1 KECCAK256 DUP5 JUMPDEST DUP4 DUP2 LT ISZERO PUSH2 0x2978 JUMPI DUP3 DUP7 ADD SLOAD DUP3 SSTORE PUSH1 0x1 SWAP6 DUP7 ADD SWAP6 SWAP1 SWAP2 ADD SWAP1 PUSH1 0x20 ADD PUSH2 0x2958 JUMP JUMPDEST POP DUP6 DUP4 LT ISZERO PUSH2 0x2996 JUMPI DUP2 DUP6 ADD SLOAD PUSH1 0x0 NOT PUSH1 0x3 DUP9 SWAP1 SHL PUSH1 0xF8 AND SHR NOT AND DUP2 SSTORE JUMPDEST POP POP POP PUSH1 0x1 DUP4 PUSH1 0x1 SHL ADD DUP5 SSTORE JUMPDEST POP POP POP POP POP JUMP JUMPDEST PUSH1 0x0 PUSH1 0x20 DUP3 DUP5 SUB SLT ISZERO PUSH2 0x29BC JUMPI PUSH1 0x0 DUP1 REVERT JUMPDEST DUP2 MLOAD PUSH2 0x2462 DUP2 PUSH2 0x2592 JUMP JUMPDEST PUSH1 0xFF DUP2 DUP2 AND DUP4 DUP3 AND ADD SWAP1 DUP2 GT ISZERO PUSH2 0x1173 JUMPI PUSH2 0x1173 PUSH2 0x26E3 JUMP JUMPDEST PUSH4 0x4E487B71 PUSH1 0xE0 SHL PUSH1 0x0 MSTORE PUSH1 0x21 PUSH1 0x4 MSTORE PUSH1 0x24 PUSH1 0x0 REVERT INVALID LOG2 PUSH5 0x6970667358 0x22 SLT KECCAK256 PUSH23 0x5CC520889C270FDF7C6A1702E115C7FB12CC77B9573FB7 CREATE2 0x26 0x2A 0xBC 0xBB EXTCODESIZE CALLDATASIZE 0xC9 PUSH5 0x736F6C6343 STOP ADDMOD EQ STOP CALLER "
        },
        "methodIdentifiers": {
          "addEmailToWhitelist(string)": "372dfc49",
          "addEmailsToWhitelist(string[])": "018763e9",
          "allocationConfig()": "21c01deb",
          "claimAllocation()": "d2d1fb25",
          "deactivateUser(address)": "1a47767b",
          "emailHashWhitelist(bytes32)": "59d61e45",
          "emailToWallet(string)": "07bb4ee3",
          "generateMigrationProof(address,bytes)": "ad5aea4c",
          "getAllocationConfig()": "0b236953",
          "getTotalVerifiedUsers()": "8c1f3a8c",
          "getUserVerification(address)": "b36c6d1f",
          "getVerificationByEmail(string)": "21918829",
          "healthToken()": "c6b0ac85",
          "isEmailHashWhitelisted(bytes32)": "e792b124",
          "isEmailInUse(string)": "9d139d7d",
          "isEmailWhitelisted(string)": "85db9d2c",
          "isUserVerified(address)": "ace417e0",
          "isWalletInUse(address)": "bf9c1b1b",
          "mainnetMigrationContract()": "34627dea",
          "nextUserId()": "a1e6a255",
          "owner()": "8da5cb5b",
          "removeEmailFromWhitelist(string)": "efa4ae00",
          "renounceOwnership()": "715018a6",
          "setHealthToken(address)": "b5856eac",
          "setMainnetMigrationContract(address)": "3f5f2acd",
          "setVerificationEnabled(bool)": "4737a250",
          "totalVerifiedUsers()": "0b3d0887",
          "transferOwnership(address)": "f2fde38b",
          "updateAllocationConfig(uint256,uint256,bool)": "5a1420df",
          "userIdToVerification(uint256)": "2b099994",
          "userVerifications(address)": "46616268",
          "verificationEnabled()": "c9dbabe9",
          "verifyProfile(string,bytes)": "739709b6",
          "verifyProfileZKsync(string)": "3793438d",
          "walletToEmail(address)": "85f3683b"
        }
      }
    }
  }
}