{
  "_format": "hh-sol-artifact-1",
  "contractName": "SecureHealthProfile",
  "sourceName": "contracts/SecureHealthProfile.sol",
  "abi": [
    {
      "inputs": [],
      "stateMutability": "nonpayable",
      "type": "constructor"
    },
    {
      "inputs": [
        {
          "internalType": "address",
          "name": "owner",
          "type": "address"
        }
      ],
      "name": "OwnableInvalidOwner",
      "type": "error"
    },
    {
      "inputs": [
        {
          "internalType": "address",
          "name": "account",
          "type": "address"
        }
      ],
      "name": "OwnableUnauthorizedAccount",
      "type": "error"
    },
    {
      "inputs": [],
      "name": "ReentrancyGuardReentrantCall",
      "type": "error"
    },
    {
      "anonymous": false,
      "inputs": [
        {
          "indexed": true,
          "internalType": "address",
          "name": "user",
          "type": "address"
        },
        {
          "indexed": true,
          "internalType": "address",
          "name": "requester",
          "type": "address"
        },
        {
          "indexed": false,
          "internalType": "uint256",
          "name": "timestamp",
          "type": "uint256"
        }
      ],
      "name": "DataAccessGranted",
      "type": "event"
    },
    {
      "anonymous": false,
      "inputs": [
        {
          "indexed": true,
          "internalType": "address",
          "name": "previousOwner",
          "type": "address"
        },
        {
          "indexed": true,
          "internalType": "address",
          "name": "newOwner",
          "type": "address"
        }
      ],
      "name": "OwnershipTransferred",
      "type": "event"
    },
    {
      "anonymous": false,
      "inputs": [
        {
          "indexed": true,
          "internalType": "address",
          "name": "user",
          "type": "address"
        },
        {
          "indexed": true,
          "internalType": "uint256",
          "name": "profileId",
          "type": "uint256"
        },
        {
          "indexed": false,
          "internalType": "bytes32",
          "name": "dataHash",
          "type": "bytes32"
        }
      ],
      "name": "ProfileCreated",
      "type": "event"
    },
    {
      "anonymous": false,
      "inputs": [
        {
          "indexed": true,
          "internalType": "address",
          "name": "user",
          "type": "address"
        },
        {
          "indexed": true,
          "internalType": "uint256",
          "name": "profileId",
          "type": "uint256"
        }
      ],
      "name": "ProfileDeactivated",
      "type": "event"
    },
    {
      "anonymous": false,
      "inputs": [
        {
          "indexed": true,
          "internalType": "address",
          "name": "user",
          "type": "address"
        },
        {
          "indexed": true,
          "internalType": "uint256",
          "name": "profileId",
          "type": "uint256"
        },
        {
          "indexed": false,
          "internalType": "bytes32",
          "name": "newDataHash",
          "type": "bytes32"
        }
      ],
      "name": "ProfileUpdated",
      "type": "event"
    },
    {
      "anonymous": false,
      "inputs": [
        {
          "indexed": true,
          "internalType": "address",
          "name": "user",
          "type": "address"
        },
        {
          "indexed": true,
          "internalType": "uint256",
          "name": "profileId",
          "type": "uint256"
        },
        {
          "indexed": false,
          "internalType": "bytes32",
          "name": "proofHash",
          "type": "bytes32"
        }
      ],
      "name": "ZKProofSubmitted",
      "type": "event"
    },
    {
      "inputs": [
        {
          "internalType": "address",
          "name": "",
          "type": "address"
        },
        {
          "internalType": "uint256",
          "name": "",
          "type": "uint256"
        }
      ],
      "name": "accessPermissions",
      "outputs": [
        {
          "internalType": "address",
          "name": "requester",
          "type": "address"
        },
        {
          "internalType": "uint256",
          "name": "timestamp",
          "type": "uint256"
        },
        {
          "internalType": "bool",
          "name": "granted",
          "type": "bool"
        },
        {
          "internalType": "string",
          "name": "purpose",
          "type": "string"
        }
      ],
      "stateMutability": "view",
      "type": "function"
    },
    {
      "inputs": [
        {
          "internalType": "address",
          "name": "protocol",
          "type": "address"
        }
      ],
      "name": "addAuthorizedProtocol",
      "outputs": [],
      "stateMutability": "nonpayable",
      "type": "function"
    },
    {
      "inputs": [
        {
          "internalType": "uint256",
          "name": "",
          "type": "uint256"
        }
      ],
      "name": "authorizedProtocols",
      "outputs": [
        {
          "internalType": "address",
          "name": "",
          "type": "address"
        }
      ],
      "stateMutability": "view",
      "type": "function"
    },
    {
      "inputs": [
        {
          "internalType": "string",
          "name": "encryptedBirthDate",
          "type": "string"
        },
        {
          "internalType": "string",
          "name": "encryptedSex",
          "type": "string"
        },
        {
          "internalType": "string",
          "name": "encryptedHeight",
          "type": "string"
        },
        {
          "internalType": "string",
          "name": "encryptedWeight",
          "type": "string"
        },
        {
          "internalType": "string",
          "name": "encryptedEmail",
          "type": "string"
        },
        {
          "internalType": "bytes32",
          "name": "dataHash",
          "type": "bytes32"
        },
        {
          "internalType": "string",
          "name": "nonce",
          "type": "string"
        }
      ],
      "name": "createSecureProfile",
      "outputs": [],
      "stateMutability": "nonpayable",
      "type": "function"
    },
    {
      "inputs": [],
      "name": "currentVersion",
      "outputs": [
        {
          "internalType": "uint8",
          "name": "",
          "type": "uint8"
        }
      ],
      "stateMutability": "view",
      "type": "function"
    },
    {
      "inputs": [],
      "name": "deactivateProfile",
      "outputs": [],
      "stateMutability": "nonpayable",
      "type": "function"
    },
    {
      "inputs": [
        {
          "internalType": "address",
          "name": "user",
          "type": "address"
        }
      ],
      "name": "getEncryptedProfile",
      "outputs": [
        {
          "components": [
            {
              "internalType": "string",
              "name": "encryptedBirthDate",
              "type": "string"
            },
            {
              "internalType": "string",
              "name": "encryptedSex",
              "type": "string"
            },
            {
              "internalType": "string",
              "name": "encryptedHeight",
              "type": "string"
            },
            {
              "internalType": "string",
              "name": "encryptedWeight",
              "type": "string"
            },
            {
              "internalType": "string",
              "name": "encryptedEmail",
              "type": "string"
            },
            {
              "internalType": "bytes32",
              "name": "dataHash",
              "type": "bytes32"
            },
            {
              "internalType": "uint256",
              "name": "timestamp",
              "type": "uint256"
            },
            {
              "internalType": "bool",
              "name": "isActive",
              "type": "bool"
            },
            {
              "internalType": "uint8",
              "name": "version",
              "type": "uint8"
            },
            {
              "internalType": "string",
              "name": "nonce",
              "type": "string"
            }
          ],
          "internalType": "struct SecureHealthProfile.EncryptedProfile",
          "name": "",
          "type": "tuple"
        }
      ],
      "stateMutability": "view",
      "type": "function"
    },
    {
      "inputs": [
        {
          "internalType": "address",
          "name": "user",
          "type": "address"
        }
      ],
      "name": "getProfileMetadata",
      "outputs": [
        {
          "internalType": "uint256",
          "name": "timestamp",
          "type": "uint256"
        },
        {
          "internalType": "bool",
          "name": "isActive",
          "type": "bool"
        },
        {
          "internalType": "uint8",
          "name": "version",
          "type": "uint8"
        },
        {
          "internalType": "bytes32",
          "name": "dataHash",
          "type": "bytes32"
        }
      ],
      "stateMutability": "view",
      "type": "function"
    },
    {
      "inputs": [],
      "name": "getTotalProfiles",
      "outputs": [
        {
          "internalType": "uint256",
          "name": "",
          "type": "uint256"
        }
      ],
      "stateMutability": "view",
      "type": "function"
    },
    {
      "inputs": [
        {
          "internalType": "address",
          "name": "user",
          "type": "address"
        }
      ],
      "name": "getZKProof",
      "outputs": [
        {
          "components": [
            {
              "internalType": "string",
              "name": "ageRange",
              "type": "string"
            },
            {
              "internalType": "string",
              "name": "heightRange",
              "type": "string"
            },
            {
              "internalType": "string",
              "name": "weightRange",
              "type": "string"
            },
            {
              "internalType": "string",
              "name": "emailDomain",
              "type": "string"
            },
            {
              "internalType": "bytes32",
              "name": "proofHash",
              "type": "bytes32"
            },
            {
              "internalType": "uint256",
              "name": "timestamp",
              "type": "uint256"
            },
            {
              "internalType": "bool",
              "name": "isValid",
              "type": "bool"
            }
          ],
          "internalType": "struct SecureHealthProfile.ZKProofData",
          "name": "",
          "type": "tuple"
        }
      ],
      "stateMutability": "view",
      "type": "function"
    },
    {
      "inputs": [
        {
          "internalType": "address",
          "name": "user",
          "type": "address"
        },
        {
          "internalType": "string",
          "name": "purpose",
          "type": "string"
        }
      ],
      "name": "grantProtocolAccess",
      "outputs": [],
      "stateMutability": "nonpayable",
      "type": "function"
    },
    {
      "inputs": [
        {
          "internalType": "address",
          "name": "",
          "type": "address"
        }
      ],
      "name": "hasProfile",
      "outputs": [
        {
          "internalType": "bool",
          "name": "",
          "type": "bool"
        }
      ],
      "stateMutability": "view",
      "type": "function"
    },
    {
      "inputs": [],
      "name": "owner",
      "outputs": [
        {
          "internalType": "address",
          "name": "",
          "type": "address"
        }
      ],
      "stateMutability": "view",
      "type": "function"
    },
    {
      "inputs": [
        {
          "internalType": "address",
          "name": "",
          "type": "address"
        }
      ],
      "name": "profiles",
      "outputs": [
        {
          "internalType": "string",
          "name": "encryptedBirthDate",
          "type": "string"
        },
        {
          "internalType": "string",
          "name": "encryptedSex",
          "type": "string"
        },
        {
          "internalType": "string",
          "name": "encryptedHeight",
          "type": "string"
        },
        {
          "internalType": "string",
          "name": "encryptedWeight",
          "type": "string"
        },
        {
          "internalType": "string",
          "name": "encryptedEmail",
          "type": "string"
        },
        {
          "internalType": "bytes32",
          "name": "dataHash",
          "type": "bytes32"
        },
        {
          "internalType": "uint256",
          "name": "timestamp",
          "type": "uint256"
        },
        {
          "internalType": "bool",
          "name": "isActive",
          "type": "bool"
        },
        {
          "internalType": "uint8",
          "name": "version",
          "type": "uint8"
        },
        {
          "internalType": "string",
          "name": "nonce",
          "type": "string"
        }
      ],
      "stateMutability": "view",
      "type": "function"
    },
    {
      "inputs": [
        {
          "internalType": "address",
          "name": "",
          "type": "address"
        }
      ],
      "name": "protocolAccess",
      "outputs": [
        {
          "internalType": "bool",
          "name": "",
          "type": "bool"
        }
      ],
      "stateMutability": "view",
      "type": "function"
    },
    {
      "inputs": [
        {
          "internalType": "address",
          "name": "protocol",
          "type": "address"
        }
      ],
      "name": "removeAuthorizedProtocol",
      "outputs": [],
      "stateMutability": "nonpayable",
      "type": "function"
    },
    {
      "inputs": [],
      "name": "renounceOwnership",
      "outputs": [],
      "stateMutability": "nonpayable",
      "type": "function"
    },
    {
      "inputs": [
        {
          "internalType": "string",
          "name": "ageRange",
          "type": "string"
        },
        {
          "internalType": "string",
          "name": "heightRange",
          "type": "string"
        },
        {
          "internalType": "string",
          "name": "weightRange",
          "type": "string"
        },
        {
          "internalType": "string",
          "name": "emailDomain",
          "type": "string"
        },
        {
          "internalType": "bytes32",
          "name": "proofHash",
          "type": "bytes32"
        }
      ],
      "name": "submitZKProof",
      "outputs": [],
      "stateMutability": "nonpayable",
      "type": "function"
    },
    {
      "inputs": [],
      "name": "totalProfiles",
      "outputs": [
        {
          "internalType": "uint256",
          "name": "",
          "type": "uint256"
        }
      ],
      "stateMutability": "view",
      "type": "function"
    },
    {
      "inputs": [
        {
          "internalType": "address",
          "name": "newOwner",
          "type": "address"
        }
      ],
      "name": "transferOwnership",
      "outputs": [],
      "stateMutability": "nonpayable",
      "type": "function"
    },
    {
      "inputs": [
        {
          "internalType": "string",
          "name": "encryptedBirthDate",
          "type": "string"
        },
        {
          "internalType": "string",
          "name": "encryptedSex",
          "type": "string"
        },
        {
          "internalType": "string",
          "name": "encryptedHeight",
          "type": "string"
        },
        {
          "internalType": "string",
          "name": "encryptedWeight",
          "type": "string"
        },
        {
          "internalType": "string",
          "name": "encryptedEmail",
          "type": "string"
        },
        {
          "internalType": "bytes32",
          "name": "dataHash",
          "type": "bytes32"
        },
        {
          "internalType": "string",
          "name": "nonce",
          "type": "string"
        }
      ],
      "name": "updateSecureProfile",
      "outputs": [],
      "stateMutability": "nonpayable",
      "type": "function"
    },
    {
      "inputs": [
        {
          "internalType": "address",
          "name": "user",
          "type": "address"
        },
        {
          "internalType": "uint256",
          "name": "minAge",
          "type": "uint256"
        },
        {
          "internalType": "uint256",
          "name": "maxAge",
          "type": "uint256"
        },
        {
          "internalType": "string",
          "name": "requiredHeightRange",
          "type": "string"
        },
        {
          "internalType": "string",
          "name": "requiredWeightRange",
          "type": "string"
        },
        {
          "internalType": "string[]",
          "name": "allowedDomains",
          "type": "string[]"
        }
      ],
      "name": "verifyZKProofConditions",
      "outputs": [
        {
          "internalType": "bool",
          "name": "",
          "type": "bool"
        }
      ],
      "stateMutability": "view",
      "type": "function"
    },
    {
      "inputs": [
        {
          "internalType": "address",
          "name": "",
          "type": "address"
        }
      ],
      "name": "zkProofs",
      "outputs": [
        {
          "internalType": "string",
          "name": "ageRange",
          "type": "string"
        },
        {
          "internalType": "string",
          "name": "heightRange",
          "type": "string"
        },
        {
          "internalType": "string",
          "name": "weightRange",
          "type": "string"
        },
        {
          "internalType": "string",
          "name": "emailDomain",
          "type": "string"
        },
        {
          "internalType": "bytes32",
          "name": "proofHash",
          "type": "bytes32"
        },
        {
          "internalType": "uint256",
          "name": "timestamp",
          "type": "uint256"
        },
        {
          "internalType": "bool",
          "name": "isValid",
          "type": "bool"
        }
      ],
      "stateMutability": "view",
      "type": "function"
    }
  ],
  "bytecode": "0x60806040526009805460ff191660021790553480156200001e57600080fd5b5033806200004657604051631e4fbdf760e01b81526000600482015260240160405180910390fd5b62000051816200005c565b5060018055620000ac565b600080546001600160a01b038381166001600160a01b0319831681178455604051919092169283917f8be0079c531659141344cd1fd0a4f28419497f9722a3daafe3b4186f6b6457e09190a35050565b6130e180620000bc6000396000f3fe608060405234801561001057600080fd5b506004361061014d5760003560e01c8063761bd33c116100c3578063bbe156271161007c578063bbe156271461032d578063d2adbe7914610356578063d501817a1461035f578063dfd576f614610382578063f196d24214610395578063f2fde38b146103a857600080fd5b8063761bd33c1461029557806386cfb88a146102a85780638da5cb5b146102c85780639d888e86146102d9578063a787c80b146102f8578063bab17ce91461031b57600080fd5b8063403e270711610115578063403e2707146101f2578063517654131461022e57806358e9576214610241578063629fd530146102675780636fc6bce61461027a578063715018a61461028d57600080fd5b80630dde920e1461015257806312bf34cb1461016757806320a17bca146101975780633be610dc1461019f5780633e77ebb3146101bf575b600080fd5b6101656101603660046127d4565b6103bb565b005b61017a610175366004612889565b610509565b6040516001600160a01b0390911681526020015b60405180910390f35b610165610533565b6101b26101ad3660046128be565b6105bc565b60405161018e9190612926565b6101e26101cd3660046128be565b60066020526000908152604090205460ff1681565b604051901515815260200161018e565b6102056102003660046128be565b6108d2565b60405161018e9493929190938452911515602084015260ff166040830152606082015260800190565b61016561023c3660046129c9565b610cfd565b61025461024f3660046128be565b610e8b565b60405161018e9796959493929190612a17565b610165610275366004612a86565b6110ea565b610165610288366004612a86565b611369565b6101656114f8565b6101656102a33660046128be565b61150a565b6102bb6102b63660046128be565b6115ce565b60405161018e9190612b86565b6000546001600160a01b031661017a565b6009546102e69060ff1681565b60405160ff909116815260200161018e565b6101e26103063660046128be565b60036020526000908152604090205460ff1681565b6008545b60405190815260200161018e565b61034061033b3660046128be565b611a32565b60405161018e9a99989796959493929190612c80565b61031f60085481565b61037261036d366004612d28565b611db8565b60405161018e9493929190612d52565b6101656103903660046128be565b611e97565b6101e26103a3366004612d81565b611ec0565b6101656103b63660046128be565b6122ee565b6103c361232c565b3360008181526003602052604090205460ff166103fb5760405162461bcd60e51b81526004016103f290612eb0565b60405180910390fd5b6040805160e081018252878152602080820188905281830187905260608201869052608082018590524260a0830152600160c0830152336000908152600490915291909120815182919081906104519082612f63565b50602082015160018201906104669082612f63565b506040820151600282019061047b9082612f63565b50606082015160038201906104909082612f63565b506080820151600482015560a0820151600582015560c0909101516006909101805460ff191691151591909117905560085460405184815233907f8e62252302d756cca3838fe5a3be88c6292ec62ce4f6160c0767ed7a5dc2d0df9060200160405180910390a3505061050260018055565b5050505050565b6007818154811061051957600080fd5b6000918252602090912001546001600160a01b0316905081565b61053b61232c565b3360008181526003602052604090205460ff1661056a5760405162461bcd60e51b81526004016103f290612eb0565b33600081815260026020526040808220600701805460ff1916905560085490519092917fe73be80e107f661162e3ba617cba0149e57d12f70ff385e0c8db64a47dab4ec891a3506105ba60018055565b565b6106016040518060e001604052806060815260200160608152602001606081526020016060815260200160008019168152602001600081526020016000151581525090565b6001600160a01b038216600090815260036020526040902054829060ff1661063b5760405162461bcd60e51b81526004016103f290612eb0565b6001600160a01b03831660009081526004602052604090819020815160e0810190925280548290829061066d90612ee0565b80601f016020809104026020016040519081016040528092919081815260200182805461069990612ee0565b80156106e65780601f106106bb576101008083540402835291602001916106e6565b820191906000526020600020905b8154815290600101906020018083116106c957829003601f168201915b505050505081526020016001820180546106ff90612ee0565b80601f016020809104026020016040519081016040528092919081815260200182805461072b90612ee0565b80156107785780601f1061074d57610100808354040283529160200191610778565b820191906000526020600020905b81548152906001019060200180831161075b57829003601f168201915b5050505050815260200160028201805461079190612ee0565b80601f01602080910402602001604051908101604052809291908181526020018280546107bd90612ee0565b801561080a5780601f106107df5761010080835404028352916020019161080a565b820191906000526020600020905b8154815290600101906020018083116107ed57829003601f168201915b5050505050815260200160038201805461082390612ee0565b80601f016020809104026020016040519081016040528092919081815260200182805461084f90612ee0565b801561089c5780601f106108715761010080835404028352916020019161089c565b820191906000526020600020905b81548152906001019060200180831161087f57829003601f168201915b5050509183525050600482015460208201526005820154604082015260069091015460ff16151560609091015291505b50919050565b6001600160a01b038116600090815260036020526040812054819081908190859060ff166109125760405162461bcd60e51b81526004016103f290612eb0565b6001600160a01b0386166000908152600260205260408082208151610140810190925280548290829061094490612ee0565b80601f016020809104026020016040519081016040528092919081815260200182805461097090612ee0565b80156109bd5780601f10610992576101008083540402835291602001916109bd565b820191906000526020600020905b8154815290600101906020018083116109a057829003601f168201915b505050505081526020016001820180546109d690612ee0565b80601f0160208091040260200160405190810160405280929190818152602001828054610a0290612ee0565b8015610a4f5780601f10610a2457610100808354040283529160200191610a4f565b820191906000526020600020905b815481529060010190602001808311610a3257829003601f168201915b50505050508152602001600282018054610a6890612ee0565b80601f0160208091040260200160405190810160405280929190818152602001828054610a9490612ee0565b8015610ae15780601f10610ab657610100808354040283529160200191610ae1565b820191906000526020600020905b815481529060010190602001808311610ac457829003601f168201915b50505050508152602001600382018054610afa90612ee0565b80601f0160208091040260200160405190810160405280929190818152602001828054610b2690612ee0565b8015610b735780601f10610b4857610100808354040283529160200191610b73565b820191906000526020600020905b815481529060010190602001808311610b5657829003601f168201915b50505050508152602001600482018054610b8c90612ee0565b80601f0160208091040260200160405190810160405280929190818152602001828054610bb890612ee0565b8015610c055780601f10610bda57610100808354040283529160200191610c05565b820191906000526020600020905b815481529060010190602001808311610be857829003601f168201915b50505091835250506005820154602082015260068201546040820152600782015460ff8082161515606084015261010090910416608082015260088201805460a090920191610c5390612ee0565b80601f0160208091040260200160405190810160405280929190818152602001828054610c7f90612ee0565b8015610ccc5780601f10610ca157610100808354040283529160200191610ccc565b820191906000526020600020905b815481529060010190602001808311610caf57829003601f168201915b50505050508152505090508060c001518160e001518261010001518360a00151955095509550955050509193509193565b3360009081526006602052604090205460ff1680610d2557506000546001600160a01b031633145b610d715760405162461bcd60e51b815260206004820152601760248201527f4e6f7420617574686f72697a65642070726f746f636f6c00000000000000000060448201526064016103f2565b6001600160a01b038216600090815260036020526040902054829060ff16610dab5760405162461bcd60e51b81526004016103f290612eb0565b604080516080810182523381524260208083019182526001838501818152606085018881526001600160a01b038a81166000908152600586529788208054808601825590895294909720865160049095020180546001600160a01b03191694909716939093178655925190850155905160028401805460ff191691151591909117905551909182916003820190610e429082612f63565b50506040514281523391506001600160a01b038616907fb696ead405820c858002caf3643f8636b77094079efecc2a6f5f83144897d2639060200160405180910390a350505050565b600460205260009081526040902080548190610ea690612ee0565b80601f0160208091040260200160405190810160405280929190818152602001828054610ed290612ee0565b8015610f1f5780601f10610ef457610100808354040283529160200191610f1f565b820191906000526020600020905b815481529060010190602001808311610f0257829003601f168201915b505050505090806001018054610f3490612ee0565b80601f0160208091040260200160405190810160405280929190818152602001828054610f6090612ee0565b8015610fad5780601f10610f8257610100808354040283529160200191610fad565b820191906000526020600020905b815481529060010190602001808311610f9057829003601f168201915b505050505090806002018054610fc290612ee0565b80601f0160208091040260200160405190810160405280929190818152602001828054610fee90612ee0565b801561103b5780601f106110105761010080835404028352916020019161103b565b820191906000526020600020905b81548152906001019060200180831161101e57829003601f168201915b50505050509080600301805461105090612ee0565b80601f016020809104026020016040519081016040528092919081815260200182805461107c90612ee0565b80156110c95780601f1061109e576101008083540402835291602001916110c9565b820191906000526020600020905b8154815290600101906020018083116110ac57829003601f168201915b50505050600483015460058401546006909401549293909290915060ff1687565b6110f261232c565b3360009081526003602052604090205460ff161561114b5760405162461bcd60e51b815260206004820152601660248201527550726f66696c6520616c72656164792065786973747360501b60448201526064016103f2565b8161118c5760405162461bcd60e51b8152602060048201526011602482015270092dcecc2d8d2c840c8c2e8c240d0c2e6d607b1b60448201526064016103f2565b60008151116111ce5760405162461bcd60e51b815260206004820152600e60248201526d139bdb98d9481c995c5d5a5c995960921b60448201526064016103f2565b60408051610140810182528881526020808201899052818301889052606082018790526080820186905260a082018590524260c0830152600160e083015260095460ff166101008301526101208201849052336000908152600290915291909120815182919081906112409082612f63565b50602082015160018201906112559082612f63565b506040820151600282019061126a9082612f63565b506060820151600382019061127f9082612f63565b50608082015160048201906112949082612f63565b5060a0820151600582015560c0820151600682015560e08201516007820180546101008086015160ff160261ff00199315159390931661ffff199091161791909117905561012082015160088201906112ed9082612f63565b5050336000908152600360205260408120805460ff191660011790556008805492509061131983613039565b909155505060085460405184815233907f35a0f699eb62da26f48cff798f403c8506b12095f1ff697e3cd7191f57bb0c209060200160405180910390a35061136060018055565b50505050505050565b61137161232c565b3360008181526003602052604090205460ff166113a05760405162461bcd60e51b81526004016103f290612eb0565b826113e15760405162461bcd60e51b8152602060048201526011602482015270092dcecc2d8d2c840c8c2e8c240d0c2e6d607b1b60448201526064016103f2565b60008251116114235760405162461bcd60e51b815260206004820152600e60248201526d139bdb98d9481c995c5d5a5c995960921b60448201526064016103f2565b3360009081526002602052604090208061143d8a82612f63565b506001810161144c8982612f63565b506002810161145b8882612f63565b506003810161146a8782612f63565b50600481016114798682612f63565b506005810184905542600682015560095460078201805460ff9092166101000261ff0019909216919091179055600881016114b48482612f63565b5060085460405185815233907f39c5ffc8aac7acfbf1dc57e12e2c66e8c9fcdbd80f31c5188f273edd9fbc0bad9060200160405180910390a3505061136060018055565b611500612356565b6105ba6000612383565b611512612356565b6001600160a01b0381166115685760405162461bcd60e51b815260206004820152601860248201527f496e76616c69642070726f746f636f6c2061646472657373000000000000000060448201526064016103f2565b6001600160a01b03166000818152600660205260408120805460ff191660019081179091556007805491820181559091527fa66cc928b5edb82af9bd49922954155ab7b0942694bea4ce44661d9a8736c6880180546001600160a01b0319169091179055565b61162c60405180610140016040528060608152602001606081526020016060815260200160608152602001606081526020016000801916815260200160008152602001600015158152602001600060ff168152602001606081525090565b6001600160a01b038216600090815260036020526040902054829060ff166116665760405162461bcd60e51b81526004016103f290612eb0565b6001600160a01b038316600090815260026020526040908190208151610140810190925280548290829061169990612ee0565b80601f01602080910402602001604051908101604052809291908181526020018280546116c590612ee0565b80156117125780601f106116e757610100808354040283529160200191611712565b820191906000526020600020905b8154815290600101906020018083116116f557829003601f168201915b5050505050815260200160018201805461172b90612ee0565b80601f016020809104026020016040519081016040528092919081815260200182805461175790612ee0565b80156117a45780601f10611779576101008083540402835291602001916117a4565b820191906000526020600020905b81548152906001019060200180831161178757829003601f168201915b505050505081526020016002820180546117bd90612ee0565b80601f01602080910402602001604051908101604052809291908181526020018280546117e990612ee0565b80156118365780601f1061180b57610100808354040283529160200191611836565b820191906000526020600020905b81548152906001019060200180831161181957829003601f168201915b5050505050815260200160038201805461184f90612ee0565b80601f016020809104026020016040519081016040528092919081815260200182805461187b90612ee0565b80156118c85780601f1061189d576101008083540402835291602001916118c8565b820191906000526020600020905b8154815290600101906020018083116118ab57829003601f168201915b505050505081526020016004820180546118e190612ee0565b80601f016020809104026020016040519081016040528092919081815260200182805461190d90612ee0565b801561195a5780601f1061192f5761010080835404028352916020019161195a565b820191906000526020600020905b81548152906001019060200180831161193d57829003601f168201915b50505091835250506005820154602082015260068201546040820152600782015460ff8082161515606084015261010090910416608082015260088201805460a0909201916119a890612ee0565b80601f01602080910402602001604051908101604052809291908181526020018280546119d490612ee0565b8015611a215780601f106119f657610100808354040283529160200191611a21565b820191906000526020600020905b815481529060010190602001808311611a0457829003601f168201915b505050505081525050915050919050565b600260205260009081526040902080548190611a4d90612ee0565b80601f0160208091040260200160405190810160405280929190818152602001828054611a7990612ee0565b8015611ac65780601f10611a9b57610100808354040283529160200191611ac6565b820191906000526020600020905b815481529060010190602001808311611aa957829003601f168201915b505050505090806001018054611adb90612ee0565b80601f0160208091040260200160405190810160405280929190818152602001828054611b0790612ee0565b8015611b545780601f10611b2957610100808354040283529160200191611b54565b820191906000526020600020905b815481529060010190602001808311611b3757829003601f168201915b505050505090806002018054611b6990612ee0565b80601f0160208091040260200160405190810160405280929190818152602001828054611b9590612ee0565b8015611be25780601f10611bb757610100808354040283529160200191611be2565b820191906000526020600020905b815481529060010190602001808311611bc557829003601f168201915b505050505090806003018054611bf790612ee0565b80601f0160208091040260200160405190810160405280929190818152602001828054611c2390612ee0565b8015611c705780601f10611c4557610100808354040283529160200191611c70565b820191906000526020600020905b815481529060010190602001808311611c5357829003601f168201915b505050505090806004018054611c8590612ee0565b80601f0160208091040260200160405190810160405280929190818152602001828054611cb190612ee0565b8015611cfe5780601f10611cd357610100808354040283529160200191611cfe565b820191906000526020600020905b815481529060010190602001808311611ce157829003601f168201915b505050506005830154600684015460078501546008860180549596939592945060ff808316946101009093041692611d3590612ee0565b80601f0160208091040260200160405190810160405280929190818152602001828054611d6190612ee0565b8015611dae5780601f10611d8357610100808354040283529160200191611dae565b820191906000526020600020905b815481529060010190602001808311611d9157829003601f168201915b505050505090508a565b60056020528160005260406000208181548110611dd457600080fd5b600091825260209091206004909102018054600182015460028301546003840180546001600160a01b03909416965091945060ff169291611e1490612ee0565b80601f0160208091040260200160405190810160405280929190818152602001828054611e4090612ee0565b8015611e8d5780601f10611e6257610100808354040283529160200191611e8d565b820191906000526020600020905b815481529060010190602001808311611e7057829003601f168201915b5050505050905084565b611e9f612356565b6001600160a01b03166000908152600660205260409020805460ff19169055565b6001600160a01b038616600090815260036020526040812054879060ff16611efa5760405162461bcd60e51b81526004016103f290612eb0565b6001600160a01b038816600090815260046020526040808220815160e08101909252805482908290611f2b90612ee0565b80601f0160208091040260200160405190810160405280929190818152602001828054611f5790612ee0565b8015611fa45780601f10611f7957610100808354040283529160200191611fa4565b820191906000526020600020905b815481529060010190602001808311611f8757829003601f168201915b50505050508152602001600182018054611fbd90612ee0565b80601f0160208091040260200160405190810160405280929190818152602001828054611fe990612ee0565b80156120365780601f1061200b57610100808354040283529160200191612036565b820191906000526020600020905b81548152906001019060200180831161201957829003601f168201915b5050505050815260200160028201805461204f90612ee0565b80601f016020809104026020016040519081016040528092919081815260200182805461207b90612ee0565b80156120c85780601f1061209d576101008083540402835291602001916120c8565b820191906000526020600020905b8154815290600101906020018083116120ab57829003601f168201915b505050505081526020016003820180546120e190612ee0565b80601f016020809104026020016040519081016040528092919081815260200182805461210d90612ee0565b801561215a5780601f1061212f5761010080835404028352916020019161215a565b820191906000526020600020905b81548152906001019060200180831161213d57829003601f168201915b5050509183525050600482015460208201526005820154604082015260069091015460ff16151560609091015260c08101519091506121cb5760405162461bcd60e51b815260206004820152600d60248201526c24b73b30b634b210383937b7b360991b60448201526064016103f2565b6000806121db83600001516123d3565b91509150898110806121ec57508882115b156121fd57600094505050506122e3565b600088511180156122205750878051906020012083602001518051906020012014155b1561223157600094505050506122e3565b600087511180156122545750868051906020012083604001518051906020012014155b1561226557600094505050506122e3565b8551156122db576000805b87518110156122c65787818151811061228b5761228b613052565b602002602001015180519060200120856060015180519060200120036122b457600191506122c6565b806122be81613039565b915050612270565b50806122d95760009550505050506122e3565b505b600194505050505b509695505050505050565b6122f6612356565b6001600160a01b03811661232057604051631e4fbdf760e01b8152600060048201526024016103f2565b61232981612383565b50565b60026001540361234f57604051633ee5aeb560e01b815260040160405180910390fd5b6002600155565b6000546001600160a01b031633146105ba5760405163118cdaa760e01b81523360048201526024016103f2565b600080546001600160a01b038381166001600160a01b0319831681178455604051919092169283917f8be0079c531659141344cd1fd0a4f28419497f9722a3daafe3b4186f6b6457e09190a35050565b6000808281805b8251811015612428578281815181106123f5576123f5613052565b01602001516001600160f81b031916602d60f81b0361241657809150612428565b8061242081613039565b9150506123da565b50600081116124795760405162461bcd60e51b815260206004820152601860248201527f496e76616c6964206167652072616e676520666f726d6174000000000000000060448201526064016103f2565b60008167ffffffffffffffff8111156124945761249461271d565b6040519080825280601f01601f1916602001820160405280156124be576020820181803683370190505b509050600060018385516124d29190613068565b6124dc9190613068565b67ffffffffffffffff8111156124f4576124f461271d565b6040519080825280601f01601f19166020018201604052801561251e576020820181803683370190505b50905060005b838110156125845784818151811061253e5761253e613052565b602001015160f81c60f81b83828151811061255b5761255b613052565b60200101906001600160f81b031916908160001a9053508061257c81613039565b915050612524565b5060005b81518110156125fe57848161259e866001613081565b6125a89190613081565b815181106125b8576125b8613052565b602001015160f81c60f81b8282815181106125d5576125d5613052565b60200101906001600160f81b031916908160001a905350806125f681613039565b915050612588565b50818161260a82612622565b61261382612622565b97509750505050505050915091565b60008181805b825181101561271557603060f81b83828151811061264857612648613052565b01602001516001600160f81b031916108015906126895750603960f81b83828151811061267757612677613052565b01602001516001600160f81b03191611155b6126c65760405162461bcd60e51b815260206004820152600e60248201526d24b73b30b634b210373ab6b132b960911b60448201526064016103f2565b60308382815181106126da576126da613052565b01602001516126ec919060f81c613068565b6126f783600a613094565b6127019190613081565b91508061270d81613039565b915050612628565b509392505050565b634e487b7160e01b600052604160045260246000fd5b604051601f8201601f1916810167ffffffffffffffff8111828210171561275c5761275c61271d565b604052919050565b600082601f83011261277557600080fd5b813567ffffffffffffffff81111561278f5761278f61271d565b6127a2601f8201601f1916602001612733565b8181528460208386010111156127b757600080fd5b816020850160208301376000918101602001919091529392505050565b600080600080600060a086880312156127ec57600080fd5b853567ffffffffffffffff8082111561280457600080fd5b61281089838a01612764565b9650602088013591508082111561282657600080fd5b61283289838a01612764565b9550604088013591508082111561284857600080fd5b61285489838a01612764565b9450606088013591508082111561286a57600080fd5b5061287788828901612764565b95989497509295608001359392505050565b60006020828403121561289b57600080fd5b5035919050565b80356001600160a01b03811681146128b957600080fd5b919050565b6000602082840312156128d057600080fd5b6128d9826128a2565b9392505050565b6000815180845260005b81811015612906576020818501810151868301820152016128ea565b506000602082860101526020601f19601f83011685010191505092915050565b602081526000825160e060208401526129436101008401826128e0565b90506020840151601f198085840301604086015261296183836128e0565b9250604086015191508085840301606086015261297e83836128e0565b925060608601519150808584030160808601525061299c82826128e0565b915050608084015160a084015260a084015160c084015260c0840151151560e08401528091505092915050565b600080604083850312156129dc57600080fd5b6129e5836128a2565b9150602083013567ffffffffffffffff811115612a0157600080fd5b612a0d85828601612764565b9150509250929050565b60e081526000612a2a60e083018a6128e0565b8281036020840152612a3c818a6128e0565b90508281036040840152612a5081896128e0565b90508281036060840152612a6481886128e0565b6080840196909652505060a0810192909252151560c090910152949350505050565b600080600080600080600060e0888a031215612aa157600080fd5b873567ffffffffffffffff80821115612ab957600080fd5b612ac58b838c01612764565b985060208a0135915080821115612adb57600080fd5b612ae78b838c01612764565b975060408a0135915080821115612afd57600080fd5b612b098b838c01612764565b965060608a0135915080821115612b1f57600080fd5b612b2b8b838c01612764565b955060808a0135915080821115612b4157600080fd5b612b4d8b838c01612764565b945060a08a0135935060c08a0135915080821115612b6a57600080fd5b50612b778a828b01612764565b91505092959891949750929550565b6020815260008251610140806020850152612ba56101608501836128e0565b91506020850151601f1980868503016040870152612bc384836128e0565b93506040870151915080868503016060870152612be084836128e0565b93506060870151915080868503016080870152612bfd84836128e0565b935060808701519150808685030160a0870152612c1a84836128e0565b935060a087015160c087015260c087015160e087015260e08701519150610100612c478188018415159052565b8701519150610120612c5d8782018460ff169052565b870151868503909101838701529050612c7683826128e0565b9695505050505050565b6000610140808352612c948184018e6128e0565b90508281036020840152612ca8818d6128e0565b90508281036040840152612cbc818c6128e0565b90508281036060840152612cd0818b6128e0565b90508281036080840152612ce4818a6128e0565b90508760a08401528660c084015285151560e084015260ff8516610100840152828103610120840152612d1781856128e0565b9d9c50505050505050505050505050565b60008060408385031215612d3b57600080fd5b612d44836128a2565b946020939093013593505050565b60018060a01b03851681528360208201528215156040820152608060608201526000612c7660808301846128e0565b60008060008060008060c08789031215612d9a57600080fd5b612da3876128a2565b9550602080880135955060408801359450606088013567ffffffffffffffff80821115612dcf57600080fd5b612ddb8b838c01612764565b955060808a0135915080821115612df157600080fd5b612dfd8b838c01612764565b945060a08a0135915080821115612e1357600080fd5b818a0191508a601f830112612e2757600080fd5b813581811115612e3957612e3961271d565b8060051b612e48858201612733565b918252838101850191858101908e841115612e6257600080fd5b86860192505b83831015612e9c578483351115612e7e57600080fd5b612e8d8f888535890101612764565b82529186019190860190612e68565b809750505050505050509295509295509295565b602080825260169082015275141c9bd99a5b1948191bd95cc81b9bdd08195e1a5cdd60521b604082015260600190565b600181811c90821680612ef457607f821691505b6020821081036108cc57634e487b7160e01b600052602260045260246000fd5b601f821115612f5e57600081815260208120601f850160051c81016020861015612f3b5750805b601f850160051c820191505b81811015612f5a57828155600101612f47565b5050505b505050565b815167ffffffffffffffff811115612f7d57612f7d61271d565b612f9181612f8b8454612ee0565b84612f14565b602080601f831160018114612fc65760008415612fae5750858301515b600019600386901b1c1916600185901b178555612f5a565b600085815260208120601f198616915b82811015612ff557888601518255948401946001909101908401612fd6565b50858210156130135787850151600019600388901b60f8161c191681555b5050505050600190811b01905550565b634e487b7160e01b600052601160045260246000fd5b60006001820161304b5761304b613023565b5060010190565b634e487b7160e01b600052603260045260246000fd5b8181038181111561307b5761307b613023565b92915050565b8082018082111561307b5761307b613023565b808202811582820484141761307b5761307b61302356fea26469706673582212205f943eae3e2e63315b191039de4b312f8bee365251dbe29cbf2c0a92ac05781064736f6c63430008140033",
  "linkReferences": {},
  "deployedLinkReferences": {}
}