{
  "_format": "hh-sol-artifact-1",
  "contractName": "SecureHealthProfile",
  "sourceName": "contracts/SecureHealthProfile.sol",
  "abi": [
    {
      "inputs": [],
      "stateMutability": "nonpayable",
      "type": "constructor"
    },
    {
      "inputs": [
        {
          "internalType": "address",
          "name": "owner",
          "type": "address"
        }
      ],
      "name": "OwnableInvalidOwner",
      "type": "error"
    },
    {
      "inputs": [
        {
          "internalType": "address",
          "name": "account",
          "type": "address"
        }
      ],
      "name": "OwnableUnauthorizedAccount",
      "type": "error"
    },
    {
      "inputs": [],
      "name": "ReentrancyGuardReentrantCall",
      "type": "error"
    },
    {
      "anonymous": false,
      "inputs": [
        {
          "indexed": true,
          "internalType": "address",
          "name": "user",
          "type": "address"
        },
        {
          "indexed": true,
          "internalType": "address",
          "name": "requester",
          "type": "address"
        },
        {
          "indexed": false,
          "internalType": "uint256",
          "name": "timestamp",
          "type": "uint256"
        }
      ],
      "name": "DataAccessGranted",
      "type": "event"
    },
    {
      "anonymous": false,
      "inputs": [
        {
          "indexed": true,
          "internalType": "address",
          "name": "previousOwner",
          "type": "address"
        },
        {
          "indexed": true,
          "internalType": "address",
          "name": "newOwner",
          "type": "address"
        }
      ],
      "name": "OwnershipTransferred",
      "type": "event"
    },
    {
      "anonymous": false,
      "inputs": [
        {
          "indexed": true,
          "internalType": "address",
          "name": "user",
          "type": "address"
        },
        {
          "indexed": true,
          "internalType": "uint256",
          "name": "profileId",
          "type": "uint256"
        },
        {
          "indexed": false,
          "internalType": "bytes32",
          "name": "dataHash",
          "type": "bytes32"
        }
      ],
      "name": "ProfileCreated",
      "type": "event"
    },
    {
      "anonymous": false,
      "inputs": [
        {
          "indexed": true,
          "internalType": "address",
          "name": "user",
          "type": "address"
        },
        {
          "indexed": true,
          "internalType": "uint256",
          "name": "profileId",
          "type": "uint256"
        }
      ],
      "name": "ProfileDeactivated",
      "type": "event"
    },
    {
      "anonymous": false,
      "inputs": [
        {
          "indexed": true,
          "internalType": "address",
          "name": "user",
          "type": "address"
        },
        {
          "indexed": true,
          "internalType": "uint256",
          "name": "profileId",
          "type": "uint256"
        },
        {
          "indexed": false,
          "internalType": "bytes32",
          "name": "newDataHash",
          "type": "bytes32"
        }
      ],
      "name": "ProfileUpdated",
      "type": "event"
    },
    {
      "anonymous": false,
      "inputs": [
        {
          "indexed": true,
          "internalType": "address",
          "name": "user",
          "type": "address"
        },
        {
          "indexed": true,
          "internalType": "uint256",
          "name": "profileId",
          "type": "uint256"
        },
        {
          "indexed": false,
          "internalType": "bytes32",
          "name": "proofHash",
          "type": "bytes32"
        }
      ],
      "name": "ZKProofSubmitted",
      "type": "event"
    },
    {
      "inputs": [
        {
          "internalType": "address",
          "name": "",
          "type": "address"
        },
        {
          "internalType": "uint256",
          "name": "",
          "type": "uint256"
        }
      ],
      "name": "accessPermissions",
      "outputs": [
        {
          "internalType": "address",
          "name": "requester",
          "type": "address"
        },
        {
          "internalType": "uint256",
          "name": "timestamp",
          "type": "uint256"
        },
        {
          "internalType": "bool",
          "name": "granted",
          "type": "bool"
        },
        {
          "internalType": "string",
          "name": "purpose",
          "type": "string"
        }
      ],
      "stateMutability": "view",
      "type": "function"
    },
    {
      "inputs": [
        {
          "internalType": "address",
          "name": "protocol",
          "type": "address"
        }
      ],
      "name": "addAuthorizedProtocol",
      "outputs": [],
      "stateMutability": "nonpayable",
      "type": "function"
    },
    {
      "inputs": [
        {
          "internalType": "uint256",
          "name": "",
          "type": "uint256"
        }
      ],
      "name": "authorizedProtocols",
      "outputs": [
        {
          "internalType": "address",
          "name": "",
          "type": "address"
        }
      ],
      "stateMutability": "view",
      "type": "function"
    },
    {
      "inputs": [
        {
          "internalType": "string",
          "name": "encryptedBirthDate",
          "type": "string"
        },
        {
          "internalType": "string",
          "name": "encryptedSex",
          "type": "string"
        },
        {
          "internalType": "string",
          "name": "encryptedHeight",
          "type": "string"
        },
        {
          "internalType": "string",
          "name": "encryptedWeight",
          "type": "string"
        },
        {
          "internalType": "string",
          "name": "encryptedEmail",
          "type": "string"
        },
        {
          "internalType": "bytes32",
          "name": "dataHash",
          "type": "bytes32"
        },
        {
          "internalType": "string",
          "name": "nonce",
          "type": "string"
        }
      ],
      "name": "createSecureProfile",
      "outputs": [],
      "stateMutability": "nonpayable",
      "type": "function"
    },
    {
      "inputs": [],
      "name": "currentVersion",
      "outputs": [
        {
          "internalType": "uint8",
          "name": "",
          "type": "uint8"
        }
      ],
      "stateMutability": "view",
      "type": "function"
    },
    {
      "inputs": [],
      "name": "deactivateProfile",
      "outputs": [],
      "stateMutability": "nonpayable",
      "type": "function"
    },
    {
      "inputs": [
        {
          "internalType": "address",
          "name": "user",
          "type": "address"
        }
      ],
      "name": "getEncryptedProfile",
      "outputs": [
        {
          "components": [
            {
              "internalType": "string",
              "name": "encryptedBirthDate",
              "type": "string"
            },
            {
              "internalType": "string",
              "name": "encryptedSex",
              "type": "string"
            },
            {
              "internalType": "string",
              "name": "encryptedHeight",
              "type": "string"
            },
            {
              "internalType": "string",
              "name": "encryptedWeight",
              "type": "string"
            },
            {
              "internalType": "string",
              "name": "encryptedEmail",
              "type": "string"
            },
            {
              "internalType": "bytes32",
              "name": "dataHash",
              "type": "bytes32"
            },
            {
              "internalType": "uint256",
              "name": "timestamp",
              "type": "uint256"
            },
            {
              "internalType": "bool",
              "name": "isActive",
              "type": "bool"
            },
            {
              "internalType": "uint8",
              "name": "version",
              "type": "uint8"
            },
            {
              "internalType": "string",
              "name": "nonce",
              "type": "string"
            }
          ],
          "internalType": "struct SecureHealthProfile.EncryptedProfile",
          "name": "",
          "type": "tuple"
        }
      ],
      "stateMutability": "view",
      "type": "function"
    },
    {
      "inputs": [
        {
          "internalType": "address",
          "name": "user",
          "type": "address"
        }
      ],
      "name": "getProfileMetadata",
      "outputs": [
        {
          "internalType": "uint256",
          "name": "timestamp",
          "type": "uint256"
        },
        {
          "internalType": "bool",
          "name": "isActive",
          "type": "bool"
        },
        {
          "internalType": "uint8",
          "name": "version",
          "type": "uint8"
        },
        {
          "internalType": "bytes32",
          "name": "dataHash",
          "type": "bytes32"
        }
      ],
      "stateMutability": "view",
      "type": "function"
    },
    {
      "inputs": [],
      "name": "getTotalProfiles",
      "outputs": [
        {
          "internalType": "uint256",
          "name": "",
          "type": "uint256"
        }
      ],
      "stateMutability": "view",
      "type": "function"
    },
    {
      "inputs": [
        {
          "internalType": "address",
          "name": "user",
          "type": "address"
        }
      ],
      "name": "getZKProof",
      "outputs": [
        {
          "components": [
            {
              "internalType": "string",
              "name": "ageRange",
              "type": "string"
            },
            {
              "internalType": "string",
              "name": "heightRange",
              "type": "string"
            },
            {
              "internalType": "string",
              "name": "weightRange",
              "type": "string"
            },
            {
              "internalType": "string",
              "name": "emailDomain",
              "type": "string"
            },
            {
              "internalType": "bytes32",
              "name": "proofHash",
              "type": "bytes32"
            },
            {
              "internalType": "uint256",
              "name": "timestamp",
              "type": "uint256"
            },
            {
              "internalType": "bool",
              "name": "isValid",
              "type": "bool"
            }
          ],
          "internalType": "struct SecureHealthProfile.ZKProofData",
          "name": "",
          "type": "tuple"
        }
      ],
      "stateMutability": "view",
      "type": "function"
    },
    {
      "inputs": [
        {
          "internalType": "address",
          "name": "user",
          "type": "address"
        },
        {
          "internalType": "string",
          "name": "purpose",
          "type": "string"
        }
      ],
      "name": "grantProtocolAccess",
      "outputs": [],
      "stateMutability": "nonpayable",
      "type": "function"
    },
    {
      "inputs": [
        {
          "internalType": "address",
          "name": "",
          "type": "address"
        }
      ],
      "name": "hasProfile",
      "outputs": [
        {
          "internalType": "bool",
          "name": "",
          "type": "bool"
        }
      ],
      "stateMutability": "view",
      "type": "function"
    },
    {
      "inputs": [],
      "name": "owner",
      "outputs": [
        {
          "internalType": "address",
          "name": "",
          "type": "address"
        }
      ],
      "stateMutability": "view",
      "type": "function"
    },
    {
      "inputs": [
        {
          "internalType": "address",
          "name": "",
          "type": "address"
        }
      ],
      "name": "profiles",
      "outputs": [
        {
          "internalType": "string",
          "name": "encryptedBirthDate",
          "type": "string"
        },
        {
          "internalType": "string",
          "name": "encryptedSex",
          "type": "string"
        },
        {
          "internalType": "string",
          "name": "encryptedHeight",
          "type": "string"
        },
        {
          "internalType": "string",
          "name": "encryptedWeight",
          "type": "string"
        },
        {
          "internalType": "string",
          "name": "encryptedEmail",
          "type": "string"
        },
        {
          "internalType": "bytes32",
          "name": "dataHash",
          "type": "bytes32"
        },
        {
          "internalType": "uint256",
          "name": "timestamp",
          "type": "uint256"
        },
        {
          "internalType": "bool",
          "name": "isActive",
          "type": "bool"
        },
        {
          "internalType": "uint8",
          "name": "version",
          "type": "uint8"
        },
        {
          "internalType": "string",
          "name": "nonce",
          "type": "string"
        }
      ],
      "stateMutability": "view",
      "type": "function"
    },
    {
      "inputs": [
        {
          "internalType": "address",
          "name": "",
          "type": "address"
        }
      ],
      "name": "protocolAccess",
      "outputs": [
        {
          "internalType": "bool",
          "name": "",
          "type": "bool"
        }
      ],
      "stateMutability": "view",
      "type": "function"
    },
    {
      "inputs": [
        {
          "internalType": "address",
          "name": "protocol",
          "type": "address"
        }
      ],
      "name": "removeAuthorizedProtocol",
      "outputs": [],
      "stateMutability": "nonpayable",
      "type": "function"
    },
    {
      "inputs": [],
      "name": "renounceOwnership",
      "outputs": [],
      "stateMutability": "nonpayable",
      "type": "function"
    },
    {
      "inputs": [
        {
          "internalType": "string",
          "name": "ageRange",
          "type": "string"
        },
        {
          "internalType": "string",
          "name": "heightRange",
          "type": "string"
        },
        {
          "internalType": "string",
          "name": "weightRange",
          "type": "string"
        },
        {
          "internalType": "string",
          "name": "emailDomain",
          "type": "string"
        },
        {
          "internalType": "bytes32",
          "name": "proofHash",
          "type": "bytes32"
        }
      ],
      "name": "submitZKProof",
      "outputs": [],
      "stateMutability": "nonpayable",
      "type": "function"
    },
    {
      "inputs": [],
      "name": "totalProfiles",
      "outputs": [
        {
          "internalType": "uint256",
          "name": "",
          "type": "uint256"
        }
      ],
      "stateMutability": "view",
      "type": "function"
    },
    {
      "inputs": [
        {
          "internalType": "address",
          "name": "newOwner",
          "type": "address"
        }
      ],
      "name": "transferOwnership",
      "outputs": [],
      "stateMutability": "nonpayable",
      "type": "function"
    },
    {
      "inputs": [
        {
          "internalType": "string",
          "name": "encryptedBirthDate",
          "type": "string"
        },
        {
          "internalType": "string",
          "name": "encryptedSex",
          "type": "string"
        },
        {
          "internalType": "string",
          "name": "encryptedHeight",
          "type": "string"
        },
        {
          "internalType": "string",
          "name": "encryptedWeight",
          "type": "string"
        },
        {
          "internalType": "string",
          "name": "encryptedEmail",
          "type": "string"
        },
        {
          "internalType": "bytes32",
          "name": "dataHash",
          "type": "bytes32"
        },
        {
          "internalType": "string",
          "name": "nonce",
          "type": "string"
        }
      ],
      "name": "updateSecureProfile",
      "outputs": [],
      "stateMutability": "nonpayable",
      "type": "function"
    },
    {
      "inputs": [
        {
          "internalType": "address",
          "name": "user",
          "type": "address"
        },
        {
          "internalType": "uint256",
          "name": "minAge",
          "type": "uint256"
        },
        {
          "internalType": "uint256",
          "name": "maxAge",
          "type": "uint256"
        },
        {
          "internalType": "string",
          "name": "requiredHeightRange",
          "type": "string"
        },
        {
          "internalType": "string",
          "name": "requiredWeightRange",
          "type": "string"
        },
        {
          "internalType": "string[]",
          "name": "allowedDomains",
          "type": "string[]"
        }
      ],
      "name": "verifyZKProofConditions",
      "outputs": [
        {
          "internalType": "bool",
          "name": "",
          "type": "bool"
        }
      ],
      "stateMutability": "view",
      "type": "function"
    },
    {
      "inputs": [
        {
          "internalType": "address",
          "name": "",
          "type": "address"
        }
      ],
      "name": "zkProofs",
      "outputs": [
        {
          "internalType": "string",
          "name": "ageRange",
          "type": "string"
        },
        {
          "internalType": "string",
          "name": "heightRange",
          "type": "string"
        },
        {
          "internalType": "string",
          "name": "weightRange",
          "type": "string"
        },
        {
          "internalType": "string",
          "name": "emailDomain",
          "type": "string"
        },
        {
          "internalType": "bytes32",
          "name": "proofHash",
          "type": "bytes32"
        },
        {
          "internalType": "uint256",
          "name": "timestamp",
          "type": "uint256"
        },
        {
          "internalType": "bool",
          "name": "isValid",
          "type": "bool"
        }
      ],
      "stateMutability": "view",
      "type": "function"
    }
  ],
  "bytecode": "0x60806040526009805460ff191660021790553480156200001e57600080fd5b5033806200004657604051631e4fbdf760e01b81526000600482015260240160405180910390fd5b62000051816200005c565b5060018055620000ac565b600080546001600160a01b038381166001600160a01b0319831681178455604051919092169283917f8be0079c531659141344cd1fd0a4f28419497f9722a3daafe3b4186f6b6457e09190a35050565b61317480620000bc6000396000f3fe608060405234801561001057600080fd5b506004361061014d5760003560e01c8063761bd33c116100c3578063bbe156271161007c578063bbe156271461032d578063d2adbe7914610356578063d501817a1461035f578063dfd576f614610382578063f196d24214610395578063f2fde38b146103a857600080fd5b8063761bd33c1461029557806386cfb88a146102a85780638da5cb5b146102c85780639d888e86146102d9578063a787c80b146102f8578063bab17ce91461031b57600080fd5b8063403e270711610115578063403e2707146101f2578063517654131461022e57806358e9576214610241578063629fd530146102675780636fc6bce61461027a578063715018a61461028d57600080fd5b80630dde920e1461015257806312bf34cb1461016757806320a17bca146101975780633be610dc1461019f5780633e77ebb3146101bf575b600080fd5b610165610160366004612867565b6103bb565b005b61017a61017536600461291c565b610509565b6040516001600160a01b0390911681526020015b60405180910390f35b610165610533565b6101b26101ad366004612951565b6105bc565b60405161018e91906129b9565b6101e26101cd366004612951565b60066020526000908152604090205460ff1681565b604051901515815260200161018e565b610205610200366004612951565b6108d2565b60405161018e9493929190938452911515602084015260ff166040830152606082015260800190565b61016561023c366004612a5c565b610cfd565b61025461024f366004612951565b610e8b565b60405161018e9796959493929190612aaa565b610165610275366004612b19565b6110ea565b610165610288366004612b19565b611369565b6101656114f8565b6101656102a3366004612951565b61150a565b6102bb6102b6366004612951565b6115ce565b60405161018e9190612c19565b6000546001600160a01b031661017a565b6009546102e69060ff1681565b60405160ff909116815260200161018e565b6101e2610306366004612951565b60036020526000908152604090205460ff1681565b6008545b60405190815260200161018e565b61034061033b366004612951565b611ac5565b60405161018e9a99989796959493929190612d13565b61031f60085481565b61037261036d366004612dbb565b611e4b565b60405161018e9493929190612de5565b610165610390366004612951565b611f2a565b6101e26103a3366004612e14565b611f53565b6101656103b6366004612951565b612381565b6103c36123bf565b3360008181526003602052604090205460ff166103fb5760405162461bcd60e51b81526004016103f290612f43565b60405180910390fd5b6040805160e081018252878152602080820188905281830187905260608201869052608082018590524260a0830152600160c0830152336000908152600490915291909120815182919081906104519082612ff6565b50602082015160018201906104669082612ff6565b506040820151600282019061047b9082612ff6565b50606082015160038201906104909082612ff6565b506080820151600482015560a0820151600582015560c0909101516006909101805460ff191691151591909117905560085460405184815233907f8e62252302d756cca3838fe5a3be88c6292ec62ce4f6160c0767ed7a5dc2d0df9060200160405180910390a3505061050260018055565b5050505050565b6007818154811061051957600080fd5b6000918252602090912001546001600160a01b0316905081565b61053b6123bf565b3360008181526003602052604090205460ff1661056a5760405162461bcd60e51b81526004016103f290612f43565b33600081815260026020526040808220600701805460ff1916905560085490519092917fe73be80e107f661162e3ba617cba0149e57d12f70ff385e0c8db64a47dab4ec891a3506105ba60018055565b565b6106016040518060e001604052806060815260200160608152602001606081526020016060815260200160008019168152602001600081526020016000151581525090565b6001600160a01b038216600090815260036020526040902054829060ff1661063b5760405162461bcd60e51b81526004016103f290612f43565b6001600160a01b03831660009081526004602052604090819020815160e0810190925280548290829061066d90612f73565b80601f016020809104026020016040519081016040528092919081815260200182805461069990612f73565b80156106e65780601f106106bb576101008083540402835291602001916106e6565b820191906000526020600020905b8154815290600101906020018083116106c957829003601f168201915b505050505081526020016001820180546106ff90612f73565b80601f016020809104026020016040519081016040528092919081815260200182805461072b90612f73565b80156107785780601f1061074d57610100808354040283529160200191610778565b820191906000526020600020905b81548152906001019060200180831161075b57829003601f168201915b5050505050815260200160028201805461079190612f73565b80601f01602080910402602001604051908101604052809291908181526020018280546107bd90612f73565b801561080a5780601f106107df5761010080835404028352916020019161080a565b820191906000526020600020905b8154815290600101906020018083116107ed57829003601f168201915b5050505050815260200160038201805461082390612f73565b80601f016020809104026020016040519081016040528092919081815260200182805461084f90612f73565b801561089c5780601f106108715761010080835404028352916020019161089c565b820191906000526020600020905b81548152906001019060200180831161087f57829003601f168201915b5050509183525050600482015460208201526005820154604082015260069091015460ff16151560609091015291505b50919050565b6001600160a01b038116600090815260036020526040812054819081908190859060ff166109125760405162461bcd60e51b81526004016103f290612f43565b6001600160a01b0386166000908152600260205260408082208151610140810190925280548290829061094490612f73565b80601f016020809104026020016040519081016040528092919081815260200182805461097090612f73565b80156109bd5780601f10610992576101008083540402835291602001916109bd565b820191906000526020600020905b8154815290600101906020018083116109a057829003601f168201915b505050505081526020016001820180546109d690612f73565b80601f0160208091040260200160405190810160405280929190818152602001828054610a0290612f73565b8015610a4f5780601f10610a2457610100808354040283529160200191610a4f565b820191906000526020600020905b815481529060010190602001808311610a3257829003601f168201915b50505050508152602001600282018054610a6890612f73565b80601f0160208091040260200160405190810160405280929190818152602001828054610a9490612f73565b8015610ae15780601f10610ab657610100808354040283529160200191610ae1565b820191906000526020600020905b815481529060010190602001808311610ac457829003601f168201915b50505050508152602001600382018054610afa90612f73565b80601f0160208091040260200160405190810160405280929190818152602001828054610b2690612f73565b8015610b735780601f10610b4857610100808354040283529160200191610b73565b820191906000526020600020905b815481529060010190602001808311610b5657829003601f168201915b50505050508152602001600482018054610b8c90612f73565b80601f0160208091040260200160405190810160405280929190818152602001828054610bb890612f73565b8015610c055780601f10610bda57610100808354040283529160200191610c05565b820191906000526020600020905b815481529060010190602001808311610be857829003601f168201915b50505091835250506005820154602082015260068201546040820152600782015460ff8082161515606084015261010090910416608082015260088201805460a090920191610c5390612f73565b80601f0160208091040260200160405190810160405280929190818152602001828054610c7f90612f73565b8015610ccc5780601f10610ca157610100808354040283529160200191610ccc565b820191906000526020600020905b815481529060010190602001808311610caf57829003601f168201915b50505050508152505090508060c001518160e001518261010001518360a00151955095509550955050509193509193565b3360009081526006602052604090205460ff1680610d2557506000546001600160a01b031633145b610d715760405162461bcd60e51b815260206004820152601760248201527f4e6f7420617574686f72697a65642070726f746f636f6c00000000000000000060448201526064016103f2565b6001600160a01b038216600090815260036020526040902054829060ff16610dab5760405162461bcd60e51b81526004016103f290612f43565b604080516080810182523381524260208083019182526001838501818152606085018881526001600160a01b038a81166000908152600586529788208054808601825590895294909720865160049095020180546001600160a01b03191694909716939093178655925190850155905160028401805460ff191691151591909117905551909182916003820190610e429082612ff6565b50506040514281523391506001600160a01b038616907fb696ead405820c858002caf3643f8636b77094079efecc2a6f5f83144897d2639060200160405180910390a350505050565b600460205260009081526040902080548190610ea690612f73565b80601f0160208091040260200160405190810160405280929190818152602001828054610ed290612f73565b8015610f1f5780601f10610ef457610100808354040283529160200191610f1f565b820191906000526020600020905b815481529060010190602001808311610f0257829003601f168201915b505050505090806001018054610f3490612f73565b80601f0160208091040260200160405190810160405280929190818152602001828054610f6090612f73565b8015610fad5780601f10610f8257610100808354040283529160200191610fad565b820191906000526020600020905b815481529060010190602001808311610f9057829003601f168201915b505050505090806002018054610fc290612f73565b80601f0160208091040260200160405190810160405280929190818152602001828054610fee90612f73565b801561103b5780601f106110105761010080835404028352916020019161103b565b820191906000526020600020905b81548152906001019060200180831161101e57829003601f168201915b50505050509080600301805461105090612f73565b80601f016020809104026020016040519081016040528092919081815260200182805461107c90612f73565b80156110c95780601f1061109e576101008083540402835291602001916110c9565b820191906000526020600020905b8154815290600101906020018083116110ac57829003601f168201915b50505050600483015460058401546006909401549293909290915060ff1687565b6110f26123bf565b3360009081526003602052604090205460ff161561114b5760405162461bcd60e51b815260206004820152601660248201527550726f66696c6520616c72656164792065786973747360501b60448201526064016103f2565b8161118c5760405162461bcd60e51b8152602060048201526011602482015270092dcecc2d8d2c840c8c2e8c240d0c2e6d607b1b60448201526064016103f2565b60008151116111ce5760405162461bcd60e51b815260206004820152600e60248201526d139bdb98d9481c995c5d5a5c995960921b60448201526064016103f2565b60408051610140810182528881526020808201899052818301889052606082018790526080820186905260a082018590524260c0830152600160e083015260095460ff166101008301526101208201849052336000908152600290915291909120815182919081906112409082612ff6565b50602082015160018201906112559082612ff6565b506040820151600282019061126a9082612ff6565b506060820151600382019061127f9082612ff6565b50608082015160048201906112949082612ff6565b5060a0820151600582015560c0820151600682015560e08201516007820180546101008086015160ff160261ff00199315159390931661ffff199091161791909117905561012082015160088201906112ed9082612ff6565b5050336000908152600360205260408120805460ff1916600117905560088054925090611319836130cc565b909155505060085460405184815233907f35a0f699eb62da26f48cff798f403c8506b12095f1ff697e3cd7191f57bb0c209060200160405180910390a35061136060018055565b50505050505050565b6113716123bf565b3360008181526003602052604090205460ff166113a05760405162461bcd60e51b81526004016103f290612f43565b826113e15760405162461bcd60e51b8152602060048201526011602482015270092dcecc2d8d2c840c8c2e8c240d0c2e6d607b1b60448201526064016103f2565b60008251116114235760405162461bcd60e51b815260206004820152600e60248201526d139bdb98d9481c995c5d5a5c995960921b60448201526064016103f2565b3360009081526002602052604090208061143d8a82612ff6565b506001810161144c8982612ff6565b506002810161145b8882612ff6565b506003810161146a8782612ff6565b50600481016114798682612ff6565b506005810184905542600682015560095460078201805460ff9092166101000261ff0019909216919091179055600881016114b48482612ff6565b5060085460405185815233907f39c5ffc8aac7acfbf1dc57e12e2c66e8c9fcdbd80f31c5188f273edd9fbc0bad9060200160405180910390a3505061136060018055565b6115006123e9565b6105ba6000612416565b6115126123e9565b6001600160a01b0381166115685760405162461bcd60e51b815260206004820152601860248201527f496e76616c69642070726f746f636f6c2061646472657373000000000000000060448201526064016103f2565b6001600160a01b03166000818152600660205260408120805460ff191660019081179091556007805491820181559091527fa66cc928b5edb82af9bd49922954155ab7b0942694bea4ce44661d9a8736c6880180546001600160a01b0319169091179055565b61162c60405180610140016040528060608152602001606081526020016060815260200160608152602001606081526020016000801916815260200160008152602001600015158152602001600060ff168152602001606081525090565b6001600160a01b038216600090815260036020526040902054829060ff166116665760405162461bcd60e51b81526004016103f290612f43565b336001600160a01b038416148061168c57503360009081526006602052604090205460ff165b806116a157506000546001600160a01b031633145b6116f95760405162461bcd60e51b815260206004820152602360248201527f4e6f7420617574686f72697a656420746f207265616420746869732070726f66604482015262696c6560e81b60648201526084016103f2565b6001600160a01b038316600090815260026020526040908190208151610140810190925280548290829061172c90612f73565b80601f016020809104026020016040519081016040528092919081815260200182805461175890612f73565b80156117a55780601f1061177a576101008083540402835291602001916117a5565b820191906000526020600020905b81548152906001019060200180831161178857829003601f168201915b505050505081526020016001820180546117be90612f73565b80601f01602080910402602001604051908101604052809291908181526020018280546117ea90612f73565b80156118375780601f1061180c57610100808354040283529160200191611837565b820191906000526020600020905b81548152906001019060200180831161181a57829003601f168201915b5050505050815260200160028201805461185090612f73565b80601f016020809104026020016040519081016040528092919081815260200182805461187c90612f73565b80156118c95780601f1061189e576101008083540402835291602001916118c9565b820191906000526020600020905b8154815290600101906020018083116118ac57829003601f168201915b505050505081526020016003820180546118e290612f73565b80601f016020809104026020016040519081016040528092919081815260200182805461190e90612f73565b801561195b5780601f106119305761010080835404028352916020019161195b565b820191906000526020600020905b81548152906001019060200180831161193e57829003601f168201915b5050505050815260200160048201805461197490612f73565b80601f01602080910402602001604051908101604052809291908181526020018280546119a090612f73565b80156119ed5780601f106119c2576101008083540402835291602001916119ed565b820191906000526020600020905b8154815290600101906020018083116119d057829003601f168201915b50505091835250506005820154602082015260068201546040820152600782015460ff8082161515606084015261010090910416608082015260088201805460a090920191611a3b90612f73565b80601f0160208091040260200160405190810160405280929190818152602001828054611a6790612f73565b8015611ab45780601f10611a8957610100808354040283529160200191611ab4565b820191906000526020600020905b815481529060010190602001808311611a9757829003601f168201915b505050505081525050915050919050565b600260205260009081526040902080548190611ae090612f73565b80601f0160208091040260200160405190810160405280929190818152602001828054611b0c90612f73565b8015611b595780601f10611b2e57610100808354040283529160200191611b59565b820191906000526020600020905b815481529060010190602001808311611b3c57829003601f168201915b505050505090806001018054611b6e90612f73565b80601f0160208091040260200160405190810160405280929190818152602001828054611b9a90612f73565b8015611be75780601f10611bbc57610100808354040283529160200191611be7565b820191906000526020600020905b815481529060010190602001808311611bca57829003601f168201915b505050505090806002018054611bfc90612f73565b80601f0160208091040260200160405190810160405280929190818152602001828054611c2890612f73565b8015611c755780601f10611c4a57610100808354040283529160200191611c75565b820191906000526020600020905b815481529060010190602001808311611c5857829003601f168201915b505050505090806003018054611c8a90612f73565b80601f0160208091040260200160405190810160405280929190818152602001828054611cb690612f73565b8015611d035780601f10611cd857610100808354040283529160200191611d03565b820191906000526020600020905b815481529060010190602001808311611ce657829003601f168201915b505050505090806004018054611d1890612f73565b80601f0160208091040260200160405190810160405280929190818152602001828054611d4490612f73565b8015611d915780601f10611d6657610100808354040283529160200191611d91565b820191906000526020600020905b815481529060010190602001808311611d7457829003601f168201915b505050506005830154600684015460078501546008860180549596939592945060ff808316946101009093041692611dc890612f73565b80601f0160208091040260200160405190810160405280929190818152602001828054611df490612f73565b8015611e415780601f10611e1657610100808354040283529160200191611e41565b820191906000526020600020905b815481529060010190602001808311611e2457829003601f168201915b505050505090508a565b60056020528160005260406000208181548110611e6757600080fd5b600091825260209091206004909102018054600182015460028301546003840180546001600160a01b03909416965091945060ff169291611ea790612f73565b80601f0160208091040260200160405190810160405280929190818152602001828054611ed390612f73565b8015611f205780601f10611ef557610100808354040283529160200191611f20565b820191906000526020600020905b815481529060010190602001808311611f0357829003601f168201915b5050505050905084565b611f326123e9565b6001600160a01b03166000908152600660205260409020805460ff19169055565b6001600160a01b038616600090815260036020526040812054879060ff16611f8d5760405162461bcd60e51b81526004016103f290612f43565b6001600160a01b038816600090815260046020526040808220815160e08101909252805482908290611fbe90612f73565b80601f0160208091040260200160405190810160405280929190818152602001828054611fea90612f73565b80156120375780601f1061200c57610100808354040283529160200191612037565b820191906000526020600020905b81548152906001019060200180831161201a57829003601f168201915b5050505050815260200160018201805461205090612f73565b80601f016020809104026020016040519081016040528092919081815260200182805461207c90612f73565b80156120c95780601f1061209e576101008083540402835291602001916120c9565b820191906000526020600020905b8154815290600101906020018083116120ac57829003601f168201915b505050505081526020016002820180546120e290612f73565b80601f016020809104026020016040519081016040528092919081815260200182805461210e90612f73565b801561215b5780601f106121305761010080835404028352916020019161215b565b820191906000526020600020905b81548152906001019060200180831161213e57829003601f168201915b5050505050815260200160038201805461217490612f73565b80601f01602080910402602001604051908101604052809291908181526020018280546121a090612f73565b80156121ed5780601f106121c2576101008083540402835291602001916121ed565b820191906000526020600020905b8154815290600101906020018083116121d057829003601f168201915b5050509183525050600482015460208201526005820154604082015260069091015460ff16151560609091015260c081015190915061225e5760405162461bcd60e51b815260206004820152600d60248201526c24b73b30b634b210383937b7b360991b60448201526064016103f2565b60008061226e8360000151612466565b915091508981108061227f57508882115b156122905760009450505050612376565b600088511180156122b35750878051906020012083602001518051906020012014155b156122c45760009450505050612376565b600087511180156122e75750868051906020012083604001518051906020012014155b156122f85760009450505050612376565b85511561236e576000805b87518110156123595787818151811061231e5761231e6130e5565b602002602001015180519060200120856060015180519060200120036123475760019150612359565b80612351816130cc565b915050612303565b508061236c576000955050505050612376565b505b600194505050505b509695505050505050565b6123896123e9565b6001600160a01b0381166123b357604051631e4fbdf760e01b8152600060048201526024016103f2565b6123bc81612416565b50565b6002600154036123e257604051633ee5aeb560e01b815260040160405180910390fd5b6002600155565b6000546001600160a01b031633146105ba5760405163118cdaa760e01b81523360048201526024016103f2565b600080546001600160a01b038381166001600160a01b0319831681178455604051919092169283917f8be0079c531659141344cd1fd0a4f28419497f9722a3daafe3b4186f6b6457e09190a35050565b6000808281805b82518110156124bb57828181518110612488576124886130e5565b01602001516001600160f81b031916602d60f81b036124a9578091506124bb565b806124b3816130cc565b91505061246d565b506000811161250c5760405162461bcd60e51b815260206004820152601860248201527f496e76616c6964206167652072616e676520666f726d6174000000000000000060448201526064016103f2565b60008167ffffffffffffffff811115612527576125276127b0565b6040519080825280601f01601f191660200182016040528015612551576020820181803683370190505b5090506000600183855161256591906130fb565b61256f91906130fb565b67ffffffffffffffff811115612587576125876127b0565b6040519080825280601f01601f1916602001820160405280156125b1576020820181803683370190505b50905060005b83811015612617578481815181106125d1576125d16130e5565b602001015160f81c60f81b8382815181106125ee576125ee6130e5565b60200101906001600160f81b031916908160001a9053508061260f816130cc565b9150506125b7565b5060005b8151811015612691578481612631866001613114565b61263b9190613114565b8151811061264b5761264b6130e5565b602001015160f81c60f81b828281518110612668576126686130e5565b60200101906001600160f81b031916908160001a90535080612689816130cc565b91505061261b565b50818161269d826126b5565b6126a6826126b5565b97509750505050505050915091565b60008181805b82518110156127a857603060f81b8382815181106126db576126db6130e5565b01602001516001600160f81b0319161080159061271c5750603960f81b83828151811061270a5761270a6130e5565b01602001516001600160f81b03191611155b6127595760405162461bcd60e51b815260206004820152600e60248201526d24b73b30b634b210373ab6b132b960911b60448201526064016103f2565b603083828151811061276d5761276d6130e5565b016020015161277f919060f81c6130fb565b61278a83600a613127565b6127949190613114565b9150806127a0816130cc565b9150506126bb565b509392505050565b634e487b7160e01b600052604160045260246000fd5b604051601f8201601f1916810167ffffffffffffffff811182821017156127ef576127ef6127b0565b604052919050565b600082601f83011261280857600080fd5b813567ffffffffffffffff811115612822576128226127b0565b612835601f8201601f19166020016127c6565b81815284602083860101111561284a57600080fd5b816020850160208301376000918101602001919091529392505050565b600080600080600060a0868803121561287f57600080fd5b853567ffffffffffffffff8082111561289757600080fd5b6128a389838a016127f7565b965060208801359150808211156128b957600080fd5b6128c589838a016127f7565b955060408801359150808211156128db57600080fd5b6128e789838a016127f7565b945060608801359150808211156128fd57600080fd5b5061290a888289016127f7565b95989497509295608001359392505050565b60006020828403121561292e57600080fd5b5035919050565b80356001600160a01b038116811461294c57600080fd5b919050565b60006020828403121561296357600080fd5b61296c82612935565b9392505050565b6000815180845260005b818110156129995760208185018101518683018201520161297d565b506000602082860101526020601f19601f83011685010191505092915050565b602081526000825160e060208401526129d6610100840182612973565b90506020840151601f19808584030160408601526129f48383612973565b92506040860151915080858403016060860152612a118383612973565b9250606086015191508085840301608086015250612a2f8282612973565b915050608084015160a084015260a084015160c084015260c0840151151560e08401528091505092915050565b60008060408385031215612a6f57600080fd5b612a7883612935565b9150602083013567ffffffffffffffff811115612a9457600080fd5b612aa0858286016127f7565b9150509250929050565b60e081526000612abd60e083018a612973565b8281036020840152612acf818a612973565b90508281036040840152612ae38189612973565b90508281036060840152612af78188612973565b6080840196909652505060a0810192909252151560c090910152949350505050565b600080600080600080600060e0888a031215612b3457600080fd5b873567ffffffffffffffff80821115612b4c57600080fd5b612b588b838c016127f7565b985060208a0135915080821115612b6e57600080fd5b612b7a8b838c016127f7565b975060408a0135915080821115612b9057600080fd5b612b9c8b838c016127f7565b965060608a0135915080821115612bb257600080fd5b612bbe8b838c016127f7565b955060808a0135915080821115612bd457600080fd5b612be08b838c016127f7565b945060a08a0135935060c08a0135915080821115612bfd57600080fd5b50612c0a8a828b016127f7565b91505092959891949750929550565b6020815260008251610140806020850152612c38610160850183612973565b91506020850151601f1980868503016040870152612c568483612973565b93506040870151915080868503016060870152612c738483612973565b93506060870151915080868503016080870152612c908483612973565b935060808701519150808685030160a0870152612cad8483612973565b935060a087015160c087015260c087015160e087015260e08701519150610100612cda8188018415159052565b8701519150610120612cf08782018460ff169052565b870151868503909101838701529050612d098382612973565b9695505050505050565b6000610140808352612d278184018e612973565b90508281036020840152612d3b818d612973565b90508281036040840152612d4f818c612973565b90508281036060840152612d63818b612973565b90508281036080840152612d77818a612973565b90508760a08401528660c084015285151560e084015260ff8516610100840152828103610120840152612daa8185612973565b9d9c50505050505050505050505050565b60008060408385031215612dce57600080fd5b612dd783612935565b946020939093013593505050565b60018060a01b03851681528360208201528215156040820152608060608201526000612d096080830184612973565b60008060008060008060c08789031215612e2d57600080fd5b612e3687612935565b9550602080880135955060408801359450606088013567ffffffffffffffff80821115612e6257600080fd5b612e6e8b838c016127f7565b955060808a0135915080821115612e8457600080fd5b612e908b838c016127f7565b945060a08a0135915080821115612ea657600080fd5b818a0191508a601f830112612eba57600080fd5b813581811115612ecc57612ecc6127b0565b8060051b612edb8582016127c6565b918252838101850191858101908e841115612ef557600080fd5b86860192505b83831015612f2f578483351115612f1157600080fd5b612f208f8885358901016127f7565b82529186019190860190612efb565b809750505050505050509295509295509295565b602080825260169082015275141c9bd99a5b1948191bd95cc81b9bdd08195e1a5cdd60521b604082015260600190565b600181811c90821680612f8757607f821691505b6020821081036108cc57634e487b7160e01b600052602260045260246000fd5b601f821115612ff157600081815260208120601f850160051c81016020861015612fce5750805b601f850160051c820191505b81811015612fed57828155600101612fda565b5050505b505050565b815167ffffffffffffffff811115613010576130106127b0565b6130248161301e8454612f73565b84612fa7565b602080601f83116001811461305957600084156130415750858301515b600019600386901b1c1916600185901b178555612fed565b600085815260208120601f198616915b8281101561308857888601518255948401946001909101908401613069565b50858210156130a65787850151600019600388901b60f8161c191681555b5050505050600190811b01905550565b634e487b7160e01b600052601160045260246000fd5b6000600182016130de576130de6130b6565b5060010190565b634e487b7160e01b600052603260045260246000fd5b8181038181111561310e5761310e6130b6565b92915050565b8082018082111561310e5761310e6130b6565b808202811582820484141761310e5761310e6130b656fea26469706673582212207086bc9ec7957d8d88a69d712b5e293bc333e098a2371edfc4ec3bcd91c69d5464736f6c63430008140033",
  "linkReferences": {},
  "deployedLinkReferences": {}
}