{
  "_format": "hh-sol-artifact-1",
  "contractName": "ProfileVerification",
  "sourceName": "contracts/ProfileVerification.sol",
  "abi": [
    {
      "inputs": [],
      "stateMutability": "nonpayable",
      "type": "constructor"
    },
    {
      "inputs": [],
      "name": "ECDSAInvalidSignature",
      "type": "error"
    },
    {
      "inputs": [
        {
          "internalType": "uint256",
          "name": "length",
          "type": "uint256"
        }
      ],
      "name": "ECDSAInvalidSignatureLength",
      "type": "error"
    },
    {
      "inputs": [
        {
          "internalType": "bytes32",
          "name": "s",
          "type": "bytes32"
        }
      ],
      "name": "ECDSAInvalidSignatureS",
      "type": "error"
    },
    {
      "inputs": [
        {
          "internalType": "address",
          "name": "owner",
          "type": "address"
        }
      ],
      "name": "OwnableInvalidOwner",
      "type": "error"
    },
    {
      "inputs": [
        {
          "internalType": "address",
          "name": "account",
          "type": "address"
        }
      ],
      "name": "OwnableUnauthorizedAccount",
      "type": "error"
    },
    {
      "inputs": [],
      "name": "ReentrancyGuardReentrantCall",
      "type": "error"
    },
    {
      "anonymous": false,
      "inputs": [
        {
          "indexed": true,
          "internalType": "address",
          "name": "user",
          "type": "address"
        },
        {
          "indexed": false,
          "internalType": "uint256",
          "name": "amount",
          "type": "uint256"
        },
        {
          "indexed": false,
          "internalType": "uint256",
          "name": "allocationId",
          "type": "uint256"
        },
        {
          "indexed": false,
          "internalType": "uint256",
          "name": "timestamp",
          "type": "uint256"
        }
      ],
      "name": "AllocationRecorded",
      "type": "event"
    },
    {
      "anonymous": false,
      "inputs": [
        {
          "indexed": true,
          "internalType": "string",
          "name": "email",
          "type": "string"
        },
        {
          "indexed": true,
          "internalType": "address",
          "name": "admin",
          "type": "address"
        },
        {
          "indexed": false,
          "internalType": "uint256",
          "name": "timestamp",
          "type": "uint256"
        }
      ],
      "name": "EmailRemovedFromWhitelist",
      "type": "event"
    },
    {
      "anonymous": false,
      "inputs": [
        {
          "indexed": true,
          "internalType": "string",
          "name": "email",
          "type": "string"
        },
        {
          "indexed": true,
          "internalType": "address",
          "name": "admin",
          "type": "address"
        },
        {
          "indexed": false,
          "internalType": "uint256",
          "name": "timestamp",
          "type": "uint256"
        }
      ],
      "name": "EmailWhitelisted",
      "type": "event"
    },
    {
      "anonymous": false,
      "inputs": [
        {
          "indexed": true,
          "internalType": "address",
          "name": "previousOwner",
          "type": "address"
        },
        {
          "indexed": true,
          "internalType": "address",
          "name": "newOwner",
          "type": "address"
        }
      ],
      "name": "OwnershipTransferred",
      "type": "event"
    },
    {
      "anonymous": false,
      "inputs": [
        {
          "indexed": true,
          "internalType": "address",
          "name": "user",
          "type": "address"
        },
        {
          "indexed": false,
          "internalType": "uint256",
          "name": "amount",
          "type": "uint256"
        },
        {
          "indexed": false,
          "internalType": "uint256",
          "name": "timestamp",
          "type": "uint256"
        }
      ],
      "name": "TokensClaimed",
      "type": "event"
    },
    {
      "anonymous": false,
      "inputs": [
        {
          "indexed": true,
          "internalType": "string",
          "name": "email",
          "type": "string"
        },
        {
          "indexed": true,
          "internalType": "address",
          "name": "wallet",
          "type": "address"
        },
        {
          "indexed": true,
          "internalType": "uint256",
          "name": "userId",
          "type": "uint256"
        },
        {
          "indexed": false,
          "internalType": "uint256",
          "name": "timestamp",
          "type": "uint256"
        }
      ],
      "name": "UserVerified",
      "type": "event"
    },
    {
      "anonymous": false,
      "inputs": [
        {
          "indexed": true,
          "internalType": "string",
          "name": "email",
          "type": "string"
        },
        {
          "indexed": true,
          "internalType": "address",
          "name": "wallet",
          "type": "address"
        },
        {
          "indexed": false,
          "internalType": "uint256",
          "name": "timestamp",
          "type": "uint256"
        }
      ],
      "name": "WalletLinked",
      "type": "event"
    },
    {
      "anonymous": false,
      "inputs": [
        {
          "indexed": true,
          "internalType": "string",
          "name": "email",
          "type": "string"
        },
        {
          "indexed": true,
          "internalType": "address",
          "name": "wallet",
          "type": "address"
        },
        {
          "indexed": false,
          "internalType": "uint256",
          "name": "timestamp",
          "type": "uint256"
        }
      ],
      "name": "WalletUnlinked",
      "type": "event"
    },
    {
      "inputs": [
        {
          "internalType": "string",
          "name": "email",
          "type": "string"
        }
      ],
      "name": "addEmailToWhitelist",
      "outputs": [],
      "stateMutability": "nonpayable",
      "type": "function"
    },
    {
      "inputs": [
        {
          "internalType": "string[]",
          "name": "emails",
          "type": "string[]"
        }
      ],
      "name": "addEmailsToWhitelist",
      "outputs": [],
      "stateMutability": "nonpayable",
      "type": "function"
    },
    {
      "inputs": [],
      "name": "allocationConfig",
      "outputs": [
        {
          "internalType": "uint256",
          "name": "totalAllocated",
          "type": "uint256"
        },
        {
          "internalType": "uint256",
          "name": "maxAllocations",
          "type": "uint256"
        },
        {
          "internalType": "uint256",
          "name": "allocationPerUser",
          "type": "uint256"
        },
        {
          "internalType": "bool",
          "name": "isActive",
          "type": "bool"
        }
      ],
      "stateMutability": "view",
      "type": "function"
    },
    {
      "inputs": [],
      "name": "claimAllocation",
      "outputs": [],
      "stateMutability": "nonpayable",
      "type": "function"
    },
    {
      "inputs": [
        {
          "internalType": "address",
          "name": "user",
          "type": "address"
        }
      ],
      "name": "deactivateUser",
      "outputs": [],
      "stateMutability": "nonpayable",
      "type": "function"
    },
    {
      "inputs": [
        {
          "internalType": "bytes32",
          "name": "",
          "type": "bytes32"
        }
      ],
      "name": "emailHashWhitelist",
      "outputs": [
        {
          "internalType": "bool",
          "name": "",
          "type": "bool"
        }
      ],
      "stateMutability": "view",
      "type": "function"
    },
    {
      "inputs": [
        {
          "internalType": "string",
          "name": "",
          "type": "string"
        }
      ],
      "name": "emailToWallet",
      "outputs": [
        {
          "internalType": "address",
          "name": "",
          "type": "address"
        }
      ],
      "stateMutability": "view",
      "type": "function"
    },
    {
      "inputs": [
        {
          "internalType": "address",
          "name": "user",
          "type": "address"
        },
        {
          "internalType": "bytes",
          "name": "signature",
          "type": "bytes"
        }
      ],
      "name": "generateMigrationProof",
      "outputs": [
        {
          "internalType": "bytes32",
          "name": "migrationHash",
          "type": "bytes32"
        }
      ],
      "stateMutability": "nonpayable",
      "type": "function"
    },
    {
      "inputs": [],
      "name": "getAllocationConfig",
      "outputs": [
        {
          "components": [
            {
              "internalType": "uint256",
              "name": "totalAllocated",
              "type": "uint256"
            },
            {
              "internalType": "uint256",
              "name": "maxAllocations",
              "type": "uint256"
            },
            {
              "internalType": "uint256",
              "name": "allocationPerUser",
              "type": "uint256"
            },
            {
              "internalType": "bool",
              "name": "isActive",
              "type": "bool"
            }
          ],
          "internalType": "struct ProfileVerification.AllocationConfig",
          "name": "config",
          "type": "tuple"
        }
      ],
      "stateMutability": "view",
      "type": "function"
    },
    {
      "inputs": [],
      "name": "getTotalVerifiedUsers",
      "outputs": [
        {
          "internalType": "uint256",
          "name": "count",
          "type": "uint256"
        }
      ],
      "stateMutability": "view",
      "type": "function"
    },
    {
      "inputs": [
        {
          "internalType": "address",
          "name": "user",
          "type": "address"
        }
      ],
      "name": "getUserVerification",
      "outputs": [
        {
          "components": [
            {
              "internalType": "string",
              "name": "email",
              "type": "string"
            },
            {
              "internalType": "address",
              "name": "wallet",
              "type": "address"
            },
            {
              "internalType": "uint256",
              "name": "userId",
              "type": "uint256"
            },
            {
              "internalType": "uint256",
              "name": "timestamp",
              "type": "uint256"
            },
            {
              "internalType": "bool",
              "name": "isActive",
              "type": "bool"
            },
            {
              "internalType": "bool",
              "name": "hasReceivedTokens",
              "type": "bool"
            },
            {
              "internalType": "uint256",
              "name": "tokenAllocation",
              "type": "uint256"
            }
          ],
          "internalType": "struct ProfileVerification.UserVerification",
          "name": "verification",
          "type": "tuple"
        }
      ],
      "stateMutability": "view",
      "type": "function"
    },
    {
      "inputs": [
        {
          "internalType": "string",
          "name": "email",
          "type": "string"
        }
      ],
      "name": "getVerificationByEmail",
      "outputs": [
        {
          "components": [
            {
              "internalType": "string",
              "name": "email",
              "type": "string"
            },
            {
              "internalType": "address",
              "name": "wallet",
              "type": "address"
            },
            {
              "internalType": "uint256",
              "name": "userId",
              "type": "uint256"
            },
            {
              "internalType": "uint256",
              "name": "timestamp",
              "type": "uint256"
            },
            {
              "internalType": "bool",
              "name": "isActive",
              "type": "bool"
            },
            {
              "internalType": "bool",
              "name": "hasReceivedTokens",
              "type": "bool"
            },
            {
              "internalType": "uint256",
              "name": "tokenAllocation",
              "type": "uint256"
            }
          ],
          "internalType": "struct ProfileVerification.UserVerification",
          "name": "verification",
          "type": "tuple"
        }
      ],
      "stateMutability": "view",
      "type": "function"
    },
    {
      "inputs": [],
      "name": "healthToken",
      "outputs": [
        {
          "internalType": "contract IERC20",
          "name": "",
          "type": "address"
        }
      ],
      "stateMutability": "view",
      "type": "function"
    },
    {
      "inputs": [
        {
          "internalType": "bytes32",
          "name": "emailHash",
          "type": "bytes32"
        }
      ],
      "name": "isEmailHashWhitelisted",
      "outputs": [
        {
          "internalType": "bool",
          "name": "isWhitelisted",
          "type": "bool"
        }
      ],
      "stateMutability": "view",
      "type": "function"
    },
    {
      "inputs": [
        {
          "internalType": "string",
          "name": "email",
          "type": "string"
        }
      ],
      "name": "isEmailInUse",
      "outputs": [
        {
          "internalType": "bool",
          "name": "isInUse",
          "type": "bool"
        }
      ],
      "stateMutability": "view",
      "type": "function"
    },
    {
      "inputs": [
        {
          "internalType": "string",
          "name": "email",
          "type": "string"
        }
      ],
      "name": "isEmailWhitelisted",
      "outputs": [
        {
          "internalType": "bool",
          "name": "isWhitelisted",
          "type": "bool"
        }
      ],
      "stateMutability": "view",
      "type": "function"
    },
    {
      "inputs": [
        {
          "internalType": "address",
          "name": "user",
          "type": "address"
        }
      ],
      "name": "isUserVerified",
      "outputs": [
        {
          "internalType": "bool",
          "name": "isVerified",
          "type": "bool"
        }
      ],
      "stateMutability": "view",
      "type": "function"
    },
    {
      "inputs": [
        {
          "internalType": "address",
          "name": "wallet",
          "type": "address"
        }
      ],
      "name": "isWalletInUse",
      "outputs": [
        {
          "internalType": "bool",
          "name": "isInUse",
          "type": "bool"
        }
      ],
      "stateMutability": "view",
      "type": "function"
    },
    {
      "inputs": [],
      "name": "mainnetMigrationContract",
      "outputs": [
        {
          "internalType": "address",
          "name": "",
          "type": "address"
        }
      ],
      "stateMutability": "view",
      "type": "function"
    },
    {
      "inputs": [],
      "name": "nextUserId",
      "outputs": [
        {
          "internalType": "uint256",
          "name": "",
          "type": "uint256"
        }
      ],
      "stateMutability": "view",
      "type": "function"
    },
    {
      "inputs": [],
      "name": "owner",
      "outputs": [
        {
          "internalType": "address",
          "name": "",
          "type": "address"
        }
      ],
      "stateMutability": "view",
      "type": "function"
    },
    {
      "inputs": [
        {
          "internalType": "string",
          "name": "email",
          "type": "string"
        }
      ],
      "name": "removeEmailFromWhitelist",
      "outputs": [],
      "stateMutability": "nonpayable",
      "type": "function"
    },
    {
      "inputs": [],
      "name": "renounceOwnership",
      "outputs": [],
      "stateMutability": "nonpayable",
      "type": "function"
    },
    {
      "inputs": [
        {
          "internalType": "address",
          "name": "_healthToken",
          "type": "address"
        }
      ],
      "name": "setHealthToken",
      "outputs": [],
      "stateMutability": "nonpayable",
      "type": "function"
    },
    {
      "inputs": [
        {
          "internalType": "address",
          "name": "_mainnetMigrationContract",
          "type": "address"
        }
      ],
      "name": "setMainnetMigrationContract",
      "outputs": [],
      "stateMutability": "nonpayable",
      "type": "function"
    },
    {
      "inputs": [
        {
          "internalType": "bool",
          "name": "enabled",
          "type": "bool"
        }
      ],
      "name": "setVerificationEnabled",
      "outputs": [],
      "stateMutability": "nonpayable",
      "type": "function"
    },
    {
      "inputs": [],
      "name": "totalVerifiedUsers",
      "outputs": [
        {
          "internalType": "uint256",
          "name": "",
          "type": "uint256"
        }
      ],
      "stateMutability": "view",
      "type": "function"
    },
    {
      "inputs": [
        {
          "internalType": "address",
          "name": "newOwner",
          "type": "address"
        }
      ],
      "name": "transferOwnership",
      "outputs": [],
      "stateMutability": "nonpayable",
      "type": "function"
    },
    {
      "inputs": [
        {
          "internalType": "uint256",
          "name": "maxAllocations",
          "type": "uint256"
        },
        {
          "internalType": "uint256",
          "name": "allocationPerUser",
          "type": "uint256"
        },
        {
          "internalType": "bool",
          "name": "isActive",
          "type": "bool"
        }
      ],
      "name": "updateAllocationConfig",
      "outputs": [],
      "stateMutability": "nonpayable",
      "type": "function"
    },
    {
      "inputs": [
        {
          "internalType": "uint256",
          "name": "",
          "type": "uint256"
        }
      ],
      "name": "userIdToVerification",
      "outputs": [
        {
          "internalType": "string",
          "name": "email",
          "type": "string"
        },
        {
          "internalType": "address",
          "name": "wallet",
          "type": "address"
        },
        {
          "internalType": "uint256",
          "name": "userId",
          "type": "uint256"
        },
        {
          "internalType": "uint256",
          "name": "timestamp",
          "type": "uint256"
        },
        {
          "internalType": "bool",
          "name": "isActive",
          "type": "bool"
        },
        {
          "internalType": "bool",
          "name": "hasReceivedTokens",
          "type": "bool"
        },
        {
          "internalType": "uint256",
          "name": "tokenAllocation",
          "type": "uint256"
        }
      ],
      "stateMutability": "view",
      "type": "function"
    },
    {
      "inputs": [
        {
          "internalType": "address",
          "name": "",
          "type": "address"
        }
      ],
      "name": "userVerifications",
      "outputs": [
        {
          "internalType": "string",
          "name": "email",
          "type": "string"
        },
        {
          "internalType": "address",
          "name": "wallet",
          "type": "address"
        },
        {
          "internalType": "uint256",
          "name": "userId",
          "type": "uint256"
        },
        {
          "internalType": "uint256",
          "name": "timestamp",
          "type": "uint256"
        },
        {
          "internalType": "bool",
          "name": "isActive",
          "type": "bool"
        },
        {
          "internalType": "bool",
          "name": "hasReceivedTokens",
          "type": "bool"
        },
        {
          "internalType": "uint256",
          "name": "tokenAllocation",
          "type": "uint256"
        }
      ],
      "stateMutability": "view",
      "type": "function"
    },
    {
      "inputs": [],
      "name": "verificationEnabled",
      "outputs": [
        {
          "internalType": "bool",
          "name": "",
          "type": "bool"
        }
      ],
      "stateMutability": "view",
      "type": "function"
    },
    {
      "inputs": [
        {
          "internalType": "string",
          "name": "email",
          "type": "string"
        },
        {
          "internalType": "bytes",
          "name": "signature",
          "type": "bytes"
        }
      ],
      "name": "verifyProfile",
      "outputs": [],
      "stateMutability": "nonpayable",
      "type": "function"
    },
    {
      "inputs": [
        {
          "internalType": "string",
          "name": "email",
          "type": "string"
        }
      ],
      "name": "verifyProfileZKsync",
      "outputs": [],
      "stateMutability": "nonpayable",
      "type": "function"
    },
    {
      "inputs": [
        {
          "internalType": "address",
          "name": "",
          "type": "address"
        }
      ],
      "name": "walletToEmail",
      "outputs": [
        {
          "internalType": "string",
          "name": "",
          "type": "string"
        }
      ],
      "stateMutability": "view",
      "type": "function"
    }
  ],
  "bytecode": "0x6080604052600f805460ff1916600117905534801561001d57600080fd5b50338061004457604051631e4fbdf760e01b81526000600482015260240160405180910390fd5b61004d8161009f565b50600180805560408051608081018252600080825261138860208301819052683635c9adc5dea000009383018490526060909201849052600755600855600955600a805460ff191690911790556100ef565b600080546001600160a01b038381166001600160a01b0319831681178455604051919092169283917f8be0079c531659141344cd1fd0a4f28419497f9722a3daafe3b4186f6b6457e09190a35050565b612a2c80620000ff6000396000f3fe608060405234801561001057600080fd5b50600436106102115760003560e01c8063739709b611610125578063b36c6d1f116100ad578063c9dbabe91161007c578063c9dbabe914610511578063d2d1fb251461051e578063e792b12414610526578063efa4ae0014610549578063f2fde38b1461055c57600080fd5b8063b36c6d1f146104c5578063b5856eac146104d8578063bf9c1b1b146104eb578063c6b0ac85146104fe57600080fd5b80638da5cb5b116100f45780638da5cb5b146104725780639d139d7d14610483578063a1e6a25514610496578063ace417e01461049f578063ad5aea4c146104b257600080fd5b8063739709b61461042457806385db9d2c1461043757806385f3683b1461044a5780638c1f3a8c1461046a57600080fd5b806334627dea116101a8578063466162681161017757806346616268146103b05780634737a250146103c357806359d61e45146103d65780635a1420df14610409578063715018a61461041c57600080fd5b806334627dea14610364578063372dfc49146103775780633793438d1461038a5780633f5f2acd1461039d57600080fd5b80631a47767b116101e45780631a47767b146102d057806321918829146102e357806321c01deb146103035780632b0999941461033e57600080fd5b8063018763e91461021657806307bb4ee31461022b5780630b2369531461027c5780630b3d0887146102b9575b600080fd5b61022961022436600461232b565b61056f565b005b61025f6102393660046123ee565b80516020818301810180516004825292820191909301209152546001600160a01b031681565b6040516001600160a01b0390911681526020015b60405180910390f35b610284610656565b604051610273919081518152602080830151908201526040808301519082015260609182015115159181019190915260800190565b6102c2600d5481565b604051908152602001610273565b6102296102de366004612447565b6106b5565b6102f66102f13660046123ee565b610891565b60405161027391906124b9565b600754600854600954600a5461031c9392919060ff1684565b6040805194855260208501939093529183015215156060820152608001610273565b61035161034c36600461252a565b610a14565b6040516102739796959493929190612543565b600b5461025f906001600160a01b031681565b6102296103853660046123ee565b610ae8565b6102296103983660046123ee565b610bc5565b6102296103ab366004612447565b610d0c565b6103516103be366004612447565b610d36565b6102296103d13660046125a0565b610d51565b6103f96103e436600461252a565b60026020526000908152604090205460ff1681565b6040519015158152602001610273565b6102296104173660046125bd565b610d6c565b610229610d90565b6102296104323660046125f6565b610da4565b6103f96104453660046123ee565b611030565b61045d610458366004612447565b611055565b604051610273919061265a565b600d546102c2565b6000546001600160a01b031661025f565b6103f96104913660046123ee565b6110ef565b6102c2600e5481565b6103f96104ad366004612447565b61112c565b6102c26104c036600461266d565b611179565b6102f66104d3366004612447565b611345565b6102296104e6366004612447565b611458565b6103f96104f9366004612447565b611482565b600c5461025f906001600160a01b031681565b600f546103f99060ff1681565b6102296114b2565b6103f961053436600461252a565b60009081526002602052604090205460ff1690565b6102296105573660046123ee565b61187d565b61022961056a366004612447565b611947565b610577611982565b60005b81518110156106525760006105a783838151811061059a5761059a6126b1565b60200260200101516119af565b60008181526002602052604090205490915060ff1661063f576000818152600260205260409020805460ff19166001179055825133908490849081106105ef576105ef6126b1565b602002602001015160405161060491906126c7565b604051908190038120428252907f7fe370a25dc2a72737d82c7b84942440b8d587d9ff700505d16c1abe20ada9809060200160405180910390a35b508061064a816126f9565b91505061057a565b5050565b61068360405180608001604052806000815260200160008152602001600081526020016000151581525090565b50604080516080810182526007548152600854602082015260095491810191909152600a5460ff161515606082015290565b6106bd611982565b6001600160a01b03811660009081526005602052604090206004015460ff1661071f5760405162461bcd60e51b815260206004820152600f60248201526e55736572206e6f742061637469766560881b60448201526064015b60405180910390fd5b6001600160a01b038116600090815260056020526040812060048101805460ff191690558054909190829061075390612712565b80601f016020809104026020016040519081016040528092919081815260200182805461077f90612712565b80156107cc5780601f106107a1576101008083540402835291602001916107cc565b820191906000526020600020905b8154815290600101906020018083116107af57829003601f168201915b5050604080516020808201835260008083526001600160a01b038b1681526003909152919091209495506108059350915083905061279b565b50600060048260405161081891906126c7565b90815260405190819003602001812080546001600160a01b039384166001600160a01b0319909116179055908416906108529083906126c7565b604051908190038120428252907f22a19fd46d17f548b3dd51bc0e67e4d62ef6dbb21a3a825788a80b1cdcada8f89060200160405180910390a3505050565b61089961222a565b60006004836040516108ab91906126c7565b908152604051908190036020019020546001600160a01b03169050806109085760405162461bcd60e51b8152602060048201526012602482015271115b585a5b081b9bdd081d995c9a599a595960721b6044820152606401610716565b6001600160a01b03811660009081526005602052604090819020815160e0810190925280548290829061093a90612712565b80601f016020809104026020016040519081016040528092919081815260200182805461096690612712565b80156109b35780601f10610988576101008083540402835291602001916109b3565b820191906000526020600020905b81548152906001019060200180831161099657829003601f168201915b505050918352505060018201546001600160a01b031660208201526002820154604082015260038201546060820152600482015460ff8082161515608084015261010090910416151560a082015260059091015460c0909101529392505050565b600660205260009081526040902080548190610a2f90612712565b80601f0160208091040260200160405190810160405280929190818152602001828054610a5b90612712565b8015610aa85780601f10610a7d57610100808354040283529160200191610aa8565b820191906000526020600020905b815481529060010190602001808311610a8b57829003601f168201915b505050600184015460028501546003860154600487015460059097015495966001600160a01b0390931695919450925060ff808316926101009004169087565b610af0611982565b6000610afb826119af565b60008181526002602052604090205490915060ff1615610b5d5760405162461bcd60e51b815260206004820152601960248201527f456d61696c20616c72656164792077686974656c6973746564000000000000006044820152606401610716565b60008181526002602052604090819020805460ff19166001179055513390610b869084906126c7565b604051908190038120428252907f7fe370a25dc2a72737d82c7b84942440b8d587d9ff700505d16c1abe20ada980906020015b60405180910390a35050565b610bcd6119e7565b600f5460ff16610c1a5760405162461bcd60e51b815260206004820152601860248201527715995c9a599a58d85d1a5bdb881a5cc8191a5cd8589b195960421b6044820152606401610716565b8060006001600160a01b0316600482604051610c3691906126c7565b908152604051908190036020019020546001600160a01b031614610c935760405162461bcd60e51b8152602060048201526014602482015273456d61696c20616c726561647920696e2075736560601b6044820152606401610716565b3360008181526003602052604090208054610cad90612712565b159050610cf45760405162461bcd60e51b815260206004820152601560248201527457616c6c657420616c726561647920696e2075736560581b6044820152606401610716565b610cfe8333611a11565b5050610d0960018055565b50565b610d14611982565b600b80546001600160a01b0319166001600160a01b0392909216919091179055565b600560205260009081526040902080548190610a2f90612712565b610d59611982565b600f805460ff1916911515919091179055565b610d74611982565b600892909255600955600a805460ff1916911515919091179055565b610d98611982565b610da26000611e78565b565b610dac6119e7565b600f5460ff16610df95760405162461bcd60e51b815260206004820152601860248201527715995c9a599a58d85d1a5bdb881a5cc8191a5cd8589b195960421b6044820152606401610716565b816000610e05826119af565b60008181526002602052604090205490915060ff16610e5e5760405162461bcd60e51b8152602060048201526015602482015274115b585a5b081b9bdd081dda1a5d195b1a5cdd1959605a1b6044820152606401610716565b8360006001600160a01b0316600482604051610e7a91906126c7565b908152604051908190036020019020546001600160a01b031614610ed75760405162461bcd60e51b8152602060048201526014602482015273456d61696c20616c726561647920696e2075736560601b6044820152606401610716565b3360008181526003602052604090208054610ef190612712565b159050610f385760405162461bcd60e51b815260206004820152601560248201527457616c6c657420616c726561647920696e2075736560581b6044820152606401610716565b60008633604051602001610f4d92919061285b565b604051602081830303815290604052805190602001209050600081604051602001610fa491907f19457468657265756d205369676e6564204d6573736167653a0a3332000000008152601c810191909152603c0190565b6040516020818303038152906040528051906020012090506000610fc88289611ec8565b90506001600160a01b03811633146110165760405162461bcd60e51b8152602060048201526011602482015270496e76616c6964207369676e617475726560781b6044820152606401610716565b6110208933611a11565b5050505050505061065260018055565b60008061103c836119af565b60009081526002602052604090205460ff169392505050565b6003602052600090815260409020805461106e90612712565b80601f016020809104026020016040519081016040528092919081815260200182805461109a90612712565b80156110e75780601f106110bc576101008083540402835291602001916110e7565b820191906000526020600020905b8154815290600101906020018083116110ca57829003601f168201915b505050505081565b6000806001600160a01b031660048360405161110b91906126c7565b908152604051908190036020019020546001600160a01b0316141592915050565b6001600160a01b03811660009081526005602052604081206004015460ff16801561117357506001600160a01b038281166000908152600560205260409020600101541615155b92915050565b6001600160a01b03821660009081526005602052604081206004015460ff166111d85760405162461bcd60e51b8152602060048201526011602482015270155cd95c881b9bdd081d995c9a599a5959607a1b6044820152606401610716565b600b546001600160a01b03166112305760405162461bcd60e51b815260206004820152601a60248201527f4d6967726174696f6e20636f6e7472616374206e6f74207365740000000000006044820152606401610716565b600b5460405160009182916001600160a01b03909116906112579087908790602401612892565b60408051601f198184030181529181526020820180516001600160e01b0316632b56ba9360e21b1790525161128c91906126c7565b600060405180830381855af49150503d80600081146112c7576040519150601f19603f3d011682016040523d82523d6000602084013e6112cc565b606091505b5091509150816113285760405162461bcd60e51b815260206004820152602160248201527f4d6967726174696f6e2070726f6f662067656e65726174696f6e206661696c656044820152601960fa1b6064820152608401610716565b8080602001905181019061133c91906128b6565b95945050505050565b61134d61222a565b6001600160a01b03821660009081526005602052604090819020815160e0810190925280548290829061137f90612712565b80601f01602080910402602001604051908101604052809291908181526020018280546113ab90612712565b80156113f85780601f106113cd576101008083540402835291602001916113f8565b820191906000526020600020905b8154815290600101906020018083116113db57829003601f168201915b505050918352505060018201546001600160a01b031660208201526002820154604082015260038201546060820152600482015460ff8082161515608084015261010090910416151560a082015260059091015460c09091015292915050565b611460611982565b600c80546001600160a01b0319166001600160a01b0392909216919091179055565b6001600160a01b038116600090815260036020526040812080548291906114a890612712565b9050119050919050565b6114ba6119e7565b336000818152600560205260409020600481015460ff166115115760405162461bcd60e51b8152602060048201526011602482015270155cd95c881b9bdd081d995c9a599a5959607a1b6044820152606401610716565b60008160050154116115655760405162461bcd60e51b815260206004820152601760248201527f4e6f20616c6c6f636174696f6e20617661696c61626c650000000000000000006044820152606401610716565b6004810154610100900460ff16156115b85760405162461bcd60e51b8152602060048201526016602482015275151bdad95b9cc8185b1c9958591e4818db185a5b595960521b6044820152606401610716565b600c546001600160a01b03166116075760405162461bcd60e51b81526020600482015260146024820152731219585b1d1a081d1bdad95b881b9bdd081cd95d60621b6044820152606401610716565b60058082015460048301805461ff0019166101001790556001600160a01b0384166000908152602092909252604090912082908061164583826128cf565b5060018281015490820180546001600160a01b0319166001600160a01b03909216919091179055600280830154818301556003808401549083015560048084018054918401805460ff938416151560ff19821681178355925461010090819004909416151590930261ff001990921661ffff1990931692909217179055600592830154929091019190915582015460009081526006602052604090208290806116ee83826128cf565b5060018281015490820180546001600160a01b039283166001600160a01b0319909116179055600280840154908301556003808401549083015560048084018054828501805460ff19811660ff93841615159081178355935461ffff1990911661ff0019909416939093176101009384900490921615159092021790556005938401549390920192909255600c5460405163a9059cbb60e01b815286841692810192909252602482018490529091169063a9059cbb906044016020604051808303816000875af11580156117c6573d6000803e3d6000fd5b505050506040513d601f19601f820116820180604052508101906117ea91906129aa565b61182e5760405162461bcd60e51b8152602060048201526015602482015274151bdad95b881d1c985b9cd9995c8819985a5b1959605a1b6044820152606401610716565b604080518281524260208201526001600160a01b038516917f9923b4306c6c030f2bdfbf156517d5983b87e15b96176da122cd4f2effa4ba7b910160405180910390a2505050610da260018055565b611885611982565b6000611890826119af565b60008181526002602052604090205490915060ff166118ea5760405162461bcd60e51b8152602060048201526016602482015275115b585a5b081b9bdd081a5b881dda1a5d195b1a5cdd60521b6044820152606401610716565b60008181526002602052604090819020805460ff191690555133906119109084906126c7565b604051908190038120428252907f8514a3441f6e99c8150799dac43140a550e8ae54631e6bb831a24667a64677fb90602001610bb9565b61194f611982565b6001600160a01b03811661197957604051631e4fbdf760e01b815260006004820152602401610716565b610d0981611e78565b6000546001600160a01b03163314610da25760405163118cdaa760e01b8152336004820152602401610716565b60006119ba82611ef2565b6040516020016119ca91906126c7565b604051602081830303815290604052805190602001209050919050565b600260015403611a0a57604051633ee5aeb560e01b815260040160405180910390fd5b6002600155565b600e805460009182611a22836126f9565b909155506040805160e0810182528581526001600160a01b038516602080830182905282840185905242606084015260016080840152600060a0840181905260c084018190529182526005905291909120815192935090918291908190611a89908261279b565b506020828101516001830180546001600160a01b039092166001600160a01b0319909216919091179055604080840151600284015560608401516003840155608084015160048401805460a087015115156101000261ff00199315159390931661ffff199091161791909117905560c090930151600590920191909155600084815260069091522081518291908190611b22908261279b565b506020828101516001830180546001600160a01b039283166001600160a01b031990911617905560408085015160028501556060850151600380860191909155608086015160048601805460a089015115156101000261ff00199315159390931661ffff199091161791909117905560c090950151600590940193909355861660009081529290529020611bb6858261279b565b5082600485604051611bc891906126c7565b90815260405190819003602001902080546001600160a01b03929092166001600160a01b0319909216919091179055600a5460ff168015611c0c5750600854600754105b15611db85760095460c08201819052600060a083018190526007805491611c32836126f9565b90915550506001600160a01b038416600090815260056020526040902082518391908190611c60908261279b565b506020828101516001830180546001600160a01b039092166001600160a01b0319909216919091179055604080840151600284015560608401516003840155608084015160048401805460a087015115156101000261ff00199315159390931661ffff199091161791909117905560c090930151600590920191909155600085815260069091522082518391908190611cf9908261279b565b506020828101516001830180546001600160a01b039283166001600160a01b031990911617905560408085015160028501556060808601516003860155608086015160048601805460a089015115156101000261ff00199315159390931661ffff199091161791909117905560c09095015160059094019390935582518581529182018790524292820192909252908616917f6265c4408ac5b7c9b18d37b72535be33a793f145417cbbf3fd5ad07aa2184cc1910160405180910390a2505b600d8054906000611dc8836126f9565b919050555081836001600160a01b031685604051611de691906126c7565b604051908190038120428252907f13f42ee0de0ac9236ad9fd1edd06fb6b07f3e2423a2c0b6cb6dc732822fec14c9060200160405180910390a4826001600160a01b031684604051611e3891906126c7565b604051908190038120428252907f90dec1f4ffcc94b09eb3739c1c9d43f199bb65196004104dfb39a3da25c9afd99060200160405180910390a350505050565b600080546001600160a01b038381166001600160a01b0319831681178455604051919092169283917f8be0079c531659141344cd1fd0a4f28419497f9722a3daafe3b4186f6b6457e09190a35050565b600080600080611ed88686612055565b925092509250611ee882826120a2565b5090949350505050565b606060008290506000815167ffffffffffffffff811115611f1557611f15612274565b6040519080825280601f01601f191660200182016040528015611f3f576020820181803683370190505b50905060005b825181101561204d576041838281518110611f6257611f626126b1565b016020015160f81c10801590611f925750605a838281518110611f8757611f876126b1565b016020015160f81c11155b15611ff457828181518110611fa957611fa96126b1565b602001015160f81c60f81b60f81c6020611fc391906129c7565b60f81b828281518110611fd857611fd86126b1565b60200101906001600160f81b031916908160001a90535061203b565b828181518110612006576120066126b1565b602001015160f81c60f81b828281518110612023576120236126b1565b60200101906001600160f81b031916908160001a9053505b80612045816126f9565b915050611f45565b509392505050565b6000806000835160410361208f5760208401516040850151606086015160001a6120818882858561215b565b95509550955050505061209b565b50508151600091506002905b9250925092565b60008260038111156120b6576120b66129e0565b036120bf575050565b60018260038111156120d3576120d36129e0565b036120f15760405163f645eedf60e01b815260040160405180910390fd5b6002826003811115612105576121056129e0565b036121265760405163fce698f760e01b815260048101829052602401610716565b600382600381111561213a5761213a6129e0565b03610652576040516335e2f38360e21b815260048101829052602401610716565b600080807f7fffffffffffffffffffffffffffffff5d576e7357a4501ddfe92f46681b20a08411156121965750600091506003905082612220565b604080516000808252602082018084528a905260ff891692820192909252606081018790526080810186905260019060a0016020604051602081039080840390855afa1580156121ea573d6000803e3d6000fd5b5050604051601f1901519150506001600160a01b03811661221657506000925060019150829050612220565b9250600091508190505b9450945094915050565b6040518060e001604052806060815260200160006001600160a01b031681526020016000815260200160008152602001600015158152602001600015158152602001600081525090565b634e487b7160e01b600052604160045260246000fd5b604051601f8201601f1916810167ffffffffffffffff811182821017156122b3576122b3612274565b604052919050565b600082601f8301126122cc57600080fd5b813567ffffffffffffffff8111156122e6576122e6612274565b6122f9601f8201601f191660200161228a565b81815284602083860101111561230e57600080fd5b816020850160208301376000918101602001919091529392505050565b6000602080838503121561233e57600080fd5b823567ffffffffffffffff8082111561235657600080fd5b818501915085601f83011261236a57600080fd5b81358181111561237c5761237c612274565b8060051b61238b85820161228a565b91825283810185019185810190898411156123a557600080fd5b86860192505b838310156123e1578235858111156123c35760008081fd5b6123d18b89838a01016122bb565b83525091860191908601906123ab565b9998505050505050505050565b60006020828403121561240057600080fd5b813567ffffffffffffffff81111561241757600080fd5b612423848285016122bb565b949350505050565b80356001600160a01b038116811461244257600080fd5b919050565b60006020828403121561245957600080fd5b6124628261242b565b9392505050565b60005b8381101561248457818101518382015260200161246c565b50506000910152565b600081518084526124a5816020860160208601612469565b601f01601f19169290920160200192915050565b602081526000825160e060208401526124d661010084018261248d565b905060018060a01b03602085015116604084015260408401516060840152606084015160808401526080840151151560a084015260a0840151151560c084015260c084015160e08401528091505092915050565b60006020828403121561253c57600080fd5b5035919050565b60e08152600061255660e083018a61248d565b6001600160a01b0398909816602083015250604081019590955260608501939093529015156080840152151560a083015260c090910152919050565b8015158114610d0957600080fd5b6000602082840312156125b257600080fd5b813561246281612592565b6000806000606084860312156125d257600080fd5b833592506020840135915060408401356125eb81612592565b809150509250925092565b6000806040838503121561260957600080fd5b823567ffffffffffffffff8082111561262157600080fd5b61262d868387016122bb565b9350602085013591508082111561264357600080fd5b50612650858286016122bb565b9150509250929050565b602081526000612462602083018461248d565b6000806040838503121561268057600080fd5b6126898361242b565b9150602083013567ffffffffffffffff8111156126a557600080fd5b612650858286016122bb565b634e487b7160e01b600052603260045260246000fd5b600082516126d9818460208701612469565b9190910192915050565b634e487b7160e01b600052601160045260246000fd5b60006001820161270b5761270b6126e3565b5060010190565b600181811c9082168061272657607f821691505b60208210810361274657634e487b7160e01b600052602260045260246000fd5b50919050565b601f82111561279657600081815260208120601f850160051c810160208610156127735750805b601f850160051c820191505b818110156127925782815560010161277f565b5050505b505050565b815167ffffffffffffffff8111156127b5576127b5612274565b6127c9816127c38454612712565b8461274c565b602080601f8311600181146127fe57600084156127e65750858301515b600019600386901b1c1916600185901b178555612792565b600085815260208120601f198616915b8281101561282d5788860151825594840194600190910190840161280e565b508582101561284b5787850151600019600388901b60f8161c191681555b5050505050600190811b01905550565b6000835161286d818460208801612469565b60609390931b6bffffffffffffffffffffffff19169190920190815260140192915050565b6001600160a01b03831681526040602082018190526000906124239083018461248d565b6000602082840312156128c857600080fd5b5051919050565b8181036128da575050565b6128e48254612712565b67ffffffffffffffff8111156128fc576128fc612274565b61290a816127c38454612712565b6000601f82116001811461293e57600083156129265750848201545b600019600385901b1c1916600184901b1784556129a3565b600085815260209020601f19841690600086815260209020845b838110156129785782860154825560019586019590910190602001612958565b50858310156129965781850154600019600388901b60f8161c191681555b50505060018360011b0184555b5050505050565b6000602082840312156129bc57600080fd5b815161246281612592565b60ff8181168382160190811115611173576111736126e3565b634e487b7160e01b600052602160045260246000fdfea2646970667358221220765cc520889c270fdf7c6a1702e115c7fb12cc77b9573fb7f5262abcbb3b36c964736f6c63430008140033",
  "linkReferences": {},
  "deployedLinkReferences": {}
}