{
  "_format": "hh-sol-artifact-1",
  "contractName": "ProfileVerification",
  "sourceName": "contracts/ProfileVerification.sol",
  "abi": [
    {
      "inputs": [],
      "stateMutability": "nonpayable",
      "type": "constructor"
    },
    {
      "inputs": [],
      "name": "ECDSAInvalidSignature",
      "type": "error"
    },
    {
      "inputs": [
        {
          "internalType": "uint256",
          "name": "length",
          "type": "uint256"
        }
      ],
      "name": "ECDSAInvalidSignatureLength",
      "type": "error"
    },
    {
      "inputs": [
        {
          "internalType": "bytes32",
          "name": "s",
          "type": "bytes32"
        }
      ],
      "name": "ECDSAInvalidSignatureS",
      "type": "error"
    },
    {
      "inputs": [
        {
          "internalType": "address",
          "name": "owner",
          "type": "address"
        }
      ],
      "name": "OwnableInvalidOwner",
      "type": "error"
    },
    {
      "inputs": [
        {
          "internalType": "address",
          "name": "account",
          "type": "address"
        }
      ],
      "name": "OwnableUnauthorizedAccount",
      "type": "error"
    },
    {
      "inputs": [],
      "name": "ReentrancyGuardReentrantCall",
      "type": "error"
    },
    {
      "anonymous": false,
      "inputs": [
        {
          "indexed": true,
          "internalType": "address",
          "name": "user",
          "type": "address"
        },
        {
          "indexed": false,
          "internalType": "uint256",
          "name": "amount",
          "type": "uint256"
        },
        {
          "indexed": false,
          "internalType": "uint256",
          "name": "allocationId",
          "type": "uint256"
        },
        {
          "indexed": false,
          "internalType": "uint256",
          "name": "timestamp",
          "type": "uint256"
        }
      ],
      "name": "AllocationRecorded",
      "type": "event"
    },
    {
      "anonymous": false,
      "inputs": [
        {
          "indexed": true,
          "internalType": "string",
          "name": "email",
          "type": "string"
        },
        {
          "indexed": true,
          "internalType": "address",
          "name": "admin",
          "type": "address"
        },
        {
          "indexed": false,
          "internalType": "uint256",
          "name": "timestamp",
          "type": "uint256"
        }
      ],
      "name": "EmailRemovedFromWhitelist",
      "type": "event"
    },
    {
      "anonymous": false,
      "inputs": [
        {
          "indexed": true,
          "internalType": "string",
          "name": "email",
          "type": "string"
        },
        {
          "indexed": true,
          "internalType": "address",
          "name": "admin",
          "type": "address"
        },
        {
          "indexed": false,
          "internalType": "uint256",
          "name": "timestamp",
          "type": "uint256"
        }
      ],
      "name": "EmailWhitelisted",
      "type": "event"
    },
    {
      "anonymous": false,
      "inputs": [
        {
          "indexed": true,
          "internalType": "address",
          "name": "previousOwner",
          "type": "address"
        },
        {
          "indexed": true,
          "internalType": "address",
          "name": "newOwner",
          "type": "address"
        }
      ],
      "name": "OwnershipTransferred",
      "type": "event"
    },
    {
      "anonymous": false,
      "inputs": [
        {
          "indexed": true,
          "internalType": "address",
          "name": "user",
          "type": "address"
        },
        {
          "indexed": false,
          "internalType": "uint256",
          "name": "amount",
          "type": "uint256"
        },
        {
          "indexed": false,
          "internalType": "uint256",
          "name": "timestamp",
          "type": "uint256"
        }
      ],
      "name": "TokensClaimed",
      "type": "event"
    },
    {
      "anonymous": false,
      "inputs": [
        {
          "indexed": true,
          "internalType": "string",
          "name": "email",
          "type": "string"
        },
        {
          "indexed": true,
          "internalType": "address",
          "name": "wallet",
          "type": "address"
        },
        {
          "indexed": true,
          "internalType": "uint256",
          "name": "userId",
          "type": "uint256"
        },
        {
          "indexed": false,
          "internalType": "uint256",
          "name": "timestamp",
          "type": "uint256"
        }
      ],
      "name": "UserVerified",
      "type": "event"
    },
    {
      "anonymous": false,
      "inputs": [
        {
          "indexed": true,
          "internalType": "string",
          "name": "email",
          "type": "string"
        },
        {
          "indexed": true,
          "internalType": "address",
          "name": "wallet",
          "type": "address"
        },
        {
          "indexed": false,
          "internalType": "uint256",
          "name": "timestamp",
          "type": "uint256"
        }
      ],
      "name": "WalletLinked",
      "type": "event"
    },
    {
      "anonymous": false,
      "inputs": [
        {
          "indexed": true,
          "internalType": "string",
          "name": "email",
          "type": "string"
        },
        {
          "indexed": true,
          "internalType": "address",
          "name": "wallet",
          "type": "address"
        },
        {
          "indexed": false,
          "internalType": "uint256",
          "name": "timestamp",
          "type": "uint256"
        }
      ],
      "name": "WalletUnlinked",
      "type": "event"
    },
    {
      "inputs": [
        {
          "internalType": "string",
          "name": "email",
          "type": "string"
        }
      ],
      "name": "addEmailToWhitelist",
      "outputs": [],
      "stateMutability": "nonpayable",
      "type": "function"
    },
    {
      "inputs": [
        {
          "internalType": "string[]",
          "name": "emails",
          "type": "string[]"
        }
      ],
      "name": "addEmailsToWhitelist",
      "outputs": [],
      "stateMutability": "nonpayable",
      "type": "function"
    },
    {
      "inputs": [],
      "name": "allocationConfig",
      "outputs": [
        {
          "internalType": "uint256",
          "name": "totalAllocated",
          "type": "uint256"
        },
        {
          "internalType": "uint256",
          "name": "maxAllocations",
          "type": "uint256"
        },
        {
          "internalType": "uint256",
          "name": "allocationPerUser",
          "type": "uint256"
        },
        {
          "internalType": "bool",
          "name": "isActive",
          "type": "bool"
        }
      ],
      "stateMutability": "view",
      "type": "function"
    },
    {
      "inputs": [],
      "name": "claimAllocation",
      "outputs": [],
      "stateMutability": "nonpayable",
      "type": "function"
    },
    {
      "inputs": [
        {
          "internalType": "address",
          "name": "user",
          "type": "address"
        }
      ],
      "name": "deactivateUser",
      "outputs": [],
      "stateMutability": "nonpayable",
      "type": "function"
    },
    {
      "inputs": [
        {
          "internalType": "string",
          "name": "",
          "type": "string"
        }
      ],
      "name": "emailToWallet",
      "outputs": [
        {
          "internalType": "address",
          "name": "",
          "type": "address"
        }
      ],
      "stateMutability": "view",
      "type": "function"
    },
    {
      "inputs": [
        {
          "internalType": "string",
          "name": "",
          "type": "string"
        }
      ],
      "name": "emailWhitelist",
      "outputs": [
        {
          "internalType": "bool",
          "name": "",
          "type": "bool"
        }
      ],
      "stateMutability": "view",
      "type": "function"
    },
    {
      "inputs": [
        {
          "internalType": "address",
          "name": "user",
          "type": "address"
        },
        {
          "internalType": "bytes",
          "name": "signature",
          "type": "bytes"
        }
      ],
      "name": "generateMigrationProof",
      "outputs": [
        {
          "internalType": "bytes32",
          "name": "migrationHash",
          "type": "bytes32"
        }
      ],
      "stateMutability": "nonpayable",
      "type": "function"
    },
    {
      "inputs": [],
      "name": "getAllocationConfig",
      "outputs": [
        {
          "components": [
            {
              "internalType": "uint256",
              "name": "totalAllocated",
              "type": "uint256"
            },
            {
              "internalType": "uint256",
              "name": "maxAllocations",
              "type": "uint256"
            },
            {
              "internalType": "uint256",
              "name": "allocationPerUser",
              "type": "uint256"
            },
            {
              "internalType": "bool",
              "name": "isActive",
              "type": "bool"
            }
          ],
          "internalType": "struct ProfileVerification.AllocationConfig",
          "name": "config",
          "type": "tuple"
        }
      ],
      "stateMutability": "view",
      "type": "function"
    },
    {
      "inputs": [],
      "name": "getTotalVerifiedUsers",
      "outputs": [
        {
          "internalType": "uint256",
          "name": "count",
          "type": "uint256"
        }
      ],
      "stateMutability": "view",
      "type": "function"
    },
    {
      "inputs": [
        {
          "internalType": "address",
          "name": "user",
          "type": "address"
        }
      ],
      "name": "getUserVerification",
      "outputs": [
        {
          "components": [
            {
              "internalType": "string",
              "name": "email",
              "type": "string"
            },
            {
              "internalType": "address",
              "name": "wallet",
              "type": "address"
            },
            {
              "internalType": "uint256",
              "name": "userId",
              "type": "uint256"
            },
            {
              "internalType": "uint256",
              "name": "timestamp",
              "type": "uint256"
            },
            {
              "internalType": "bool",
              "name": "isActive",
              "type": "bool"
            },
            {
              "internalType": "bool",
              "name": "hasReceivedTokens",
              "type": "bool"
            },
            {
              "internalType": "uint256",
              "name": "tokenAllocation",
              "type": "uint256"
            }
          ],
          "internalType": "struct ProfileVerification.UserVerification",
          "name": "verification",
          "type": "tuple"
        }
      ],
      "stateMutability": "view",
      "type": "function"
    },
    {
      "inputs": [
        {
          "internalType": "string",
          "name": "email",
          "type": "string"
        }
      ],
      "name": "getVerificationByEmail",
      "outputs": [
        {
          "components": [
            {
              "internalType": "string",
              "name": "email",
              "type": "string"
            },
            {
              "internalType": "address",
              "name": "wallet",
              "type": "address"
            },
            {
              "internalType": "uint256",
              "name": "userId",
              "type": "uint256"
            },
            {
              "internalType": "uint256",
              "name": "timestamp",
              "type": "uint256"
            },
            {
              "internalType": "bool",
              "name": "isActive",
              "type": "bool"
            },
            {
              "internalType": "bool",
              "name": "hasReceivedTokens",
              "type": "bool"
            },
            {
              "internalType": "uint256",
              "name": "tokenAllocation",
              "type": "uint256"
            }
          ],
          "internalType": "struct ProfileVerification.UserVerification",
          "name": "verification",
          "type": "tuple"
        }
      ],
      "stateMutability": "view",
      "type": "function"
    },
    {
      "inputs": [],
      "name": "healthToken",
      "outputs": [
        {
          "internalType": "contract IERC20",
          "name": "",
          "type": "address"
        }
      ],
      "stateMutability": "view",
      "type": "function"
    },
    {
      "inputs": [
        {
          "internalType": "string",
          "name": "email",
          "type": "string"
        }
      ],
      "name": "isEmailInUse",
      "outputs": [
        {
          "internalType": "bool",
          "name": "isInUse",
          "type": "bool"
        }
      ],
      "stateMutability": "view",
      "type": "function"
    },
    {
      "inputs": [
        {
          "internalType": "string",
          "name": "email",
          "type": "string"
        }
      ],
      "name": "isEmailWhitelisted",
      "outputs": [
        {
          "internalType": "bool",
          "name": "isWhitelisted",
          "type": "bool"
        }
      ],
      "stateMutability": "view",
      "type": "function"
    },
    {
      "inputs": [
        {
          "internalType": "address",
          "name": "user",
          "type": "address"
        }
      ],
      "name": "isUserVerified",
      "outputs": [
        {
          "internalType": "bool",
          "name": "isVerified",
          "type": "bool"
        }
      ],
      "stateMutability": "view",
      "type": "function"
    },
    {
      "inputs": [
        {
          "internalType": "address",
          "name": "wallet",
          "type": "address"
        }
      ],
      "name": "isWalletInUse",
      "outputs": [
        {
          "internalType": "bool",
          "name": "isInUse",
          "type": "bool"
        }
      ],
      "stateMutability": "view",
      "type": "function"
    },
    {
      "inputs": [],
      "name": "mainnetMigrationContract",
      "outputs": [
        {
          "internalType": "address",
          "name": "",
          "type": "address"
        }
      ],
      "stateMutability": "view",
      "type": "function"
    },
    {
      "inputs": [],
      "name": "nextUserId",
      "outputs": [
        {
          "internalType": "uint256",
          "name": "",
          "type": "uint256"
        }
      ],
      "stateMutability": "view",
      "type": "function"
    },
    {
      "inputs": [],
      "name": "owner",
      "outputs": [
        {
          "internalType": "address",
          "name": "",
          "type": "address"
        }
      ],
      "stateMutability": "view",
      "type": "function"
    },
    {
      "inputs": [
        {
          "internalType": "string",
          "name": "email",
          "type": "string"
        }
      ],
      "name": "removeEmailFromWhitelist",
      "outputs": [],
      "stateMutability": "nonpayable",
      "type": "function"
    },
    {
      "inputs": [],
      "name": "renounceOwnership",
      "outputs": [],
      "stateMutability": "nonpayable",
      "type": "function"
    },
    {
      "inputs": [
        {
          "internalType": "address",
          "name": "_healthToken",
          "type": "address"
        }
      ],
      "name": "setHealthToken",
      "outputs": [],
      "stateMutability": "nonpayable",
      "type": "function"
    },
    {
      "inputs": [
        {
          "internalType": "address",
          "name": "_mainnetMigrationContract",
          "type": "address"
        }
      ],
      "name": "setMainnetMigrationContract",
      "outputs": [],
      "stateMutability": "nonpayable",
      "type": "function"
    },
    {
      "inputs": [
        {
          "internalType": "bool",
          "name": "enabled",
          "type": "bool"
        }
      ],
      "name": "setVerificationEnabled",
      "outputs": [],
      "stateMutability": "nonpayable",
      "type": "function"
    },
    {
      "inputs": [],
      "name": "totalVerifiedUsers",
      "outputs": [
        {
          "internalType": "uint256",
          "name": "",
          "type": "uint256"
        }
      ],
      "stateMutability": "view",
      "type": "function"
    },
    {
      "inputs": [
        {
          "internalType": "address",
          "name": "newOwner",
          "type": "address"
        }
      ],
      "name": "transferOwnership",
      "outputs": [],
      "stateMutability": "nonpayable",
      "type": "function"
    },
    {
      "inputs": [
        {
          "internalType": "uint256",
          "name": "maxAllocations",
          "type": "uint256"
        },
        {
          "internalType": "uint256",
          "name": "allocationPerUser",
          "type": "uint256"
        },
        {
          "internalType": "bool",
          "name": "isActive",
          "type": "bool"
        }
      ],
      "name": "updateAllocationConfig",
      "outputs": [],
      "stateMutability": "nonpayable",
      "type": "function"
    },
    {
      "inputs": [
        {
          "internalType": "uint256",
          "name": "",
          "type": "uint256"
        }
      ],
      "name": "userIdToVerification",
      "outputs": [
        {
          "internalType": "string",
          "name": "email",
          "type": "string"
        },
        {
          "internalType": "address",
          "name": "wallet",
          "type": "address"
        },
        {
          "internalType": "uint256",
          "name": "userId",
          "type": "uint256"
        },
        {
          "internalType": "uint256",
          "name": "timestamp",
          "type": "uint256"
        },
        {
          "internalType": "bool",
          "name": "isActive",
          "type": "bool"
        },
        {
          "internalType": "bool",
          "name": "hasReceivedTokens",
          "type": "bool"
        },
        {
          "internalType": "uint256",
          "name": "tokenAllocation",
          "type": "uint256"
        }
      ],
      "stateMutability": "view",
      "type": "function"
    },
    {
      "inputs": [
        {
          "internalType": "address",
          "name": "",
          "type": "address"
        }
      ],
      "name": "userVerifications",
      "outputs": [
        {
          "internalType": "string",
          "name": "email",
          "type": "string"
        },
        {
          "internalType": "address",
          "name": "wallet",
          "type": "address"
        },
        {
          "internalType": "uint256",
          "name": "userId",
          "type": "uint256"
        },
        {
          "internalType": "uint256",
          "name": "timestamp",
          "type": "uint256"
        },
        {
          "internalType": "bool",
          "name": "isActive",
          "type": "bool"
        },
        {
          "internalType": "bool",
          "name": "hasReceivedTokens",
          "type": "bool"
        },
        {
          "internalType": "uint256",
          "name": "tokenAllocation",
          "type": "uint256"
        }
      ],
      "stateMutability": "view",
      "type": "function"
    },
    {
      "inputs": [],
      "name": "verificationEnabled",
      "outputs": [
        {
          "internalType": "bool",
          "name": "",
          "type": "bool"
        }
      ],
      "stateMutability": "view",
      "type": "function"
    },
    {
      "inputs": [
        {
          "internalType": "string",
          "name": "email",
          "type": "string"
        },
        {
          "internalType": "bytes",
          "name": "signature",
          "type": "bytes"
        }
      ],
      "name": "verifyProfile",
      "outputs": [],
      "stateMutability": "nonpayable",
      "type": "function"
    },
    {
      "inputs": [
        {
          "internalType": "string",
          "name": "email",
          "type": "string"
        }
      ],
      "name": "verifyProfileZKsync",
      "outputs": [],
      "stateMutability": "nonpayable",
      "type": "function"
    },
    {
      "inputs": [
        {
          "internalType": "address",
          "name": "",
          "type": "address"
        }
      ],
      "name": "walletToEmail",
      "outputs": [
        {
          "internalType": "string",
          "name": "",
          "type": "string"
        }
      ],
      "stateMutability": "view",
      "type": "function"
    }
  ],
  "bytecode": "0x6080604052600f805460ff1916600117905534801561001d57600080fd5b50338061004457604051631e4fbdf760e01b81526000600482015260240160405180910390fd5b61004d8161009f565b50600180805560408051608081018252600080825261138860208301819052683635c9adc5dea000009383018490526060909201849052600755600855600955600a805460ff191690911790556100ef565b600080546001600160a01b038381166001600160a01b0319831681178455604051919092169283917f8be0079c531659141344cd1fd0a4f28419497f9722a3daafe3b4186f6b6457e09190a35050565b6128bf80620000ff6000396000f3fe608060405234801561001057600080fd5b50600436106102065760003560e01c806385db9d2c1161011a578063ad5aea4c116100ad578063c6b0ac851161007c578063c6b0ac85146104fe578063c9dbabe914610511578063d2d1fb251461051e578063efa4ae0014610526578063f2fde38b1461053957600080fd5b8063ad5aea4c146104b2578063b36c6d1f146104c5578063b5856eac146104d8578063bf9c1b1b146104eb57600080fd5b8063984bb090116100e9578063984bb090146104555780639d139d7d14610483578063a1e6a25514610496578063ace417e01461049f57600080fd5b806385db9d2c146103f957806385f3683b1461041c5780638c1f3a8c1461043c5780638da5cb5b1461044457600080fd5b806334627dea1161019d578063466162681161016c57806346616268146103a55780634737a250146103b85780635a1420df146103cb578063715018a6146103de578063739709b6146103e657600080fd5b806334627dea14610359578063372dfc491461036c5780633793438d1461037f5780633f5f2acd1461039257600080fd5b80631a47767b116101d95780631a47767b146102c557806321918829146102d857806321c01deb146102f85780632b0999941461033357600080fd5b8063018763e91461020b57806307bb4ee3146102205780630b236953146102715780630b3d0887146102ae575b600080fd5b61021e6102193660046121df565b61054c565b005b61025461022e3660046122a2565b80516020818301810180516004825292820191909301209152546001600160a01b031681565b6040516001600160a01b0390911681526020015b60405180910390f35b610279610667565b604051610268919081518152602080830151908201526040808301519082015260609182015115159181019190915260800190565b6102b7600d5481565b604051908152602001610268565b61021e6102d33660046122fb565b6106c6565b6102eb6102e63660046122a2565b6108a2565b604051610268919061236d565b600754600854600954600a546103119392919060ff1684565b6040805194855260208501939093529183015215156060820152608001610268565b6103466103413660046123de565b610a25565b60405161026897969594939291906123f7565b600b54610254906001600160a01b031681565b61021e61037a3660046122a2565b610af9565b61021e61038d3660046122a2565b610bef565b61021e6103a03660046122fb565b610d36565b6103466103b33660046122fb565b610d60565b61021e6103c6366004612454565b610d7b565b61021e6103d9366004612471565b610d96565b61021e610dba565b61021e6103f43660046124aa565b610dce565b61040c6104073660046122a2565b61105c565b6040519015158152602001610268565b61042f61042a3660046122fb565b611087565b604051610268919061250e565b600d546102b7565b6000546001600160a01b0316610254565b61040c6104633660046122a2565b805160208183018101805160028252928201919093012091525460ff1681565b61040c6104913660046122a2565b611121565b6102b7600e5481565b61040c6104ad3660046122fb565b61115e565b6102b76104c0366004612521565b6111ab565b6102eb6104d33660046122fb565b611377565b61021e6104e63660046122fb565b61148a565b61040c6104f93660046122fb565b6114b4565b600c54610254906001600160a01b031681565b600f5461040c9060ff1681565b61021e6114e4565b61021e6105343660046122a2565b6118af565b61021e6105473660046122fb565b611996565b6105546119d1565b60005b815181101561066357600282828151811061057457610574612565565b6020026020010151604051610589919061257b565b9081526040519081900360200190205460ff1661065157600160028383815181106105b6576105b6612565565b60200260200101516040516105cb919061257b565b908152604051908190036020019020805491151560ff199092169190911790558151339083908390811061060157610601612565565b6020026020010151604051610616919061257b565b604051908190038120428252907f7fe370a25dc2a72737d82c7b84942440b8d587d9ff700505d16c1abe20ada9809060200160405180910390a35b8061065b81612597565b915050610557565b5050565b61069460405180608001604052806000815260200160008152602001600081526020016000151581525090565b50604080516080810182526007548152600854602082015260095491810191909152600a5460ff161515606082015290565b6106ce6119d1565b6001600160a01b03811660009081526005602052604090206004015460ff166107305760405162461bcd60e51b815260206004820152600f60248201526e55736572206e6f742061637469766560881b60448201526064015b60405180910390fd5b6001600160a01b038116600090815260056020526040812060048101805460ff1916905580549091908290610764906125be565b80601f0160208091040260200160405190810160405280929190818152602001828054610790906125be565b80156107dd5780601f106107b2576101008083540402835291602001916107dd565b820191906000526020600020905b8154815290600101906020018083116107c057829003601f168201915b5050604080516020808201835260008083526001600160a01b038b16815260039091529190912094955061081693509150839050612647565b506000600482604051610829919061257b565b90815260405190819003602001812080546001600160a01b039384166001600160a01b03199091161790559084169061086390839061257b565b604051908190038120428252907f22a19fd46d17f548b3dd51bc0e67e4d62ef6dbb21a3a825788a80b1cdcada8f89060200160405180910390a3505050565b6108aa6120de565b60006004836040516108bc919061257b565b908152604051908190036020019020546001600160a01b03169050806109195760405162461bcd60e51b8152602060048201526012602482015271115b585a5b081b9bdd081d995c9a599a595960721b6044820152606401610727565b6001600160a01b03811660009081526005602052604090819020815160e0810190925280548290829061094b906125be565b80601f0160208091040260200160405190810160405280929190818152602001828054610977906125be565b80156109c45780601f10610999576101008083540402835291602001916109c4565b820191906000526020600020905b8154815290600101906020018083116109a757829003601f168201915b505050918352505060018201546001600160a01b031660208201526002820154604082015260038201546060820152600482015460ff8082161515608084015261010090910416151560a082015260059091015460c0909101529392505050565b600660205260009081526040902080548190610a40906125be565b80601f0160208091040260200160405190810160405280929190818152602001828054610a6c906125be565b8015610ab95780601f10610a8e57610100808354040283529160200191610ab9565b820191906000526020600020905b815481529060010190602001808311610a9c57829003601f168201915b505050600184015460028501546003860154600487015460059097015495966001600160a01b0390931695919450925060ff808316926101009004169087565b610b016119d1565b600281604051610b11919061257b565b9081526040519081900360200190205460ff1615610b715760405162461bcd60e51b815260206004820152601960248201527f456d61696c20616c72656164792077686974656c6973746564000000000000006044820152606401610727565b6001600282604051610b83919061257b565b908152604051908190036020018120805492151560ff19909316929092179091553390610bb190839061257b565b604051908190038120428252907f7fe370a25dc2a72737d82c7b84942440b8d587d9ff700505d16c1abe20ada980906020015b60405180910390a350565b610bf76119fe565b600f5460ff16610c445760405162461bcd60e51b815260206004820152601860248201527715995c9a599a58d85d1a5bdb881a5cc8191a5cd8589b195960421b6044820152606401610727565b8060006001600160a01b0316600482604051610c60919061257b565b908152604051908190036020019020546001600160a01b031614610cbd5760405162461bcd60e51b8152602060048201526014602482015273456d61696c20616c726561647920696e2075736560601b6044820152606401610727565b3360008181526003602052604090208054610cd7906125be565b159050610d1e5760405162461bcd60e51b815260206004820152601560248201527457616c6c657420616c726561647920696e2075736560581b6044820152606401610727565b610d288333611a28565b5050610d3360018055565b50565b610d3e6119d1565b600b80546001600160a01b0319166001600160a01b0392909216919091179055565b600560205260009081526040902080548190610a40906125be565b610d836119d1565b600f805460ff1916911515919091179055565b610d9e6119d1565b600892909255600955600a805460ff1916911515919091179055565b610dc26119d1565b610dcc6000611e8f565b565b610dd66119fe565b600f5460ff16610e235760405162461bcd60e51b815260206004820152601860248201527715995c9a599a58d85d1a5bdb881a5cc8191a5cd8589b195960421b6044820152606401610727565b81600281604051610e34919061257b565b9081526040519081900360200190205460ff16610e8b5760405162461bcd60e51b8152602060048201526015602482015274115b585a5b081b9bdd081dda1a5d195b1a5cdd1959605a1b6044820152606401610727565b8260006001600160a01b0316600482604051610ea7919061257b565b908152604051908190036020019020546001600160a01b031614610f045760405162461bcd60e51b8152602060048201526014602482015273456d61696c20616c726561647920696e2075736560601b6044820152606401610727565b3360008181526003602052604090208054610f1e906125be565b159050610f655760405162461bcd60e51b815260206004820152601560248201527457616c6c657420616c726561647920696e2075736560581b6044820152606401610727565b60008533604051602001610f7a929190612707565b604051602081830303815290604052805190602001209050600081604051602001610fd191907f19457468657265756d205369676e6564204d6573736167653a0a3332000000008152601c810191909152603c0190565b6040516020818303038152906040528051906020012090506000610ff58288611edf565b90506001600160a01b03811633146110435760405162461bcd60e51b8152602060048201526011602482015270496e76616c6964207369676e617475726560781b6044820152606401610727565b61104d8833611a28565b50505050505061066360018055565b600060028260405161106e919061257b565b9081526040519081900360200190205460ff1692915050565b600360205260009081526040902080546110a0906125be565b80601f01602080910402602001604051908101604052809291908181526020018280546110cc906125be565b80156111195780601f106110ee57610100808354040283529160200191611119565b820191906000526020600020905b8154815290600101906020018083116110fc57829003601f168201915b505050505081565b6000806001600160a01b031660048360405161113d919061257b565b908152604051908190036020019020546001600160a01b0316141592915050565b6001600160a01b03811660009081526005602052604081206004015460ff1680156111a557506001600160a01b038281166000908152600560205260409020600101541615155b92915050565b6001600160a01b03821660009081526005602052604081206004015460ff1661120a5760405162461bcd60e51b8152602060048201526011602482015270155cd95c881b9bdd081d995c9a599a5959607a1b6044820152606401610727565b600b546001600160a01b03166112625760405162461bcd60e51b815260206004820152601a60248201527f4d6967726174696f6e20636f6e7472616374206e6f74207365740000000000006044820152606401610727565b600b5460405160009182916001600160a01b0390911690611289908790879060240161273e565b60408051601f198184030181529181526020820180516001600160e01b0316632b56ba9360e21b179052516112be919061257b565b600060405180830381855af49150503d80600081146112f9576040519150601f19603f3d011682016040523d82523d6000602084013e6112fe565b606091505b50915091508161135a5760405162461bcd60e51b815260206004820152602160248201527f4d6967726174696f6e2070726f6f662067656e65726174696f6e206661696c656044820152601960fa1b6064820152608401610727565b8080602001905181019061136e9190612762565b95945050505050565b61137f6120de565b6001600160a01b03821660009081526005602052604090819020815160e081019092528054829082906113b1906125be565b80601f01602080910402602001604051908101604052809291908181526020018280546113dd906125be565b801561142a5780601f106113ff5761010080835404028352916020019161142a565b820191906000526020600020905b81548152906001019060200180831161140d57829003601f168201915b505050918352505060018201546001600160a01b031660208201526002820154604082015260038201546060820152600482015460ff8082161515608084015261010090910416151560a082015260059091015460c09091015292915050565b6114926119d1565b600c80546001600160a01b0319166001600160a01b0392909216919091179055565b6001600160a01b038116600090815260036020526040812080548291906114da906125be565b9050119050919050565b6114ec6119fe565b336000818152600560205260409020600481015460ff166115435760405162461bcd60e51b8152602060048201526011602482015270155cd95c881b9bdd081d995c9a599a5959607a1b6044820152606401610727565b60008160050154116115975760405162461bcd60e51b815260206004820152601760248201527f4e6f20616c6c6f636174696f6e20617661696c61626c650000000000000000006044820152606401610727565b6004810154610100900460ff16156115ea5760405162461bcd60e51b8152602060048201526016602482015275151bdad95b9cc8185b1c9958591e4818db185a5b595960521b6044820152606401610727565b600c546001600160a01b03166116395760405162461bcd60e51b81526020600482015260146024820152731219585b1d1a081d1bdad95b881b9bdd081cd95d60621b6044820152606401610727565b60058082015460048301805461ff0019166101001790556001600160a01b03841660009081526020929092526040909120829080611677838261277b565b5060018281015490820180546001600160a01b0319166001600160a01b03909216919091179055600280830154818301556003808401549083015560048084018054918401805460ff938416151560ff19821681178355925461010090819004909416151590930261ff001990921661ffff199093169290921717905560059283015492909101919091558201546000908152600660205260409020829080611720838261277b565b5060018281015490820180546001600160a01b039283166001600160a01b0319909116179055600280840154908301556003808401549083015560048084018054828501805460ff19811660ff93841615159081178355935461ffff1990911661ff0019909416939093176101009384900490921615159092021790556005938401549390920192909255600c5460405163a9059cbb60e01b815286841692810192909252602482018490529091169063a9059cbb906044016020604051808303816000875af11580156117f8573d6000803e3d6000fd5b505050506040513d601f19601f8201168201806040525081019061181c9190612856565b6118605760405162461bcd60e51b8152602060048201526015602482015274151bdad95b881d1c985b9cd9995c8819985a5b1959605a1b6044820152606401610727565b604080518281524260208201526001600160a01b038516917f9923b4306c6c030f2bdfbf156517d5983b87e15b96176da122cd4f2effa4ba7b910160405180910390a2505050610dcc60018055565b6118b76119d1565b6002816040516118c7919061257b565b9081526040519081900360200190205460ff1661191f5760405162461bcd60e51b8152602060048201526016602482015275115b585a5b081b9bdd081a5b881dda1a5d195b1a5cdd60521b6044820152606401610727565b6000600282604051611931919061257b565b908152604051908190036020018120805492151560ff1990931692909217909155339061195f90839061257b565b604051908190038120428252907f8514a3441f6e99c8150799dac43140a550e8ae54631e6bb831a24667a64677fb90602001610be4565b61199e6119d1565b6001600160a01b0381166119c857604051631e4fbdf760e01b815260006004820152602401610727565b610d3381611e8f565b6000546001600160a01b03163314610dcc5760405163118cdaa760e01b8152336004820152602401610727565b600260015403611a2157604051633ee5aeb560e01b815260040160405180910390fd5b6002600155565b600e805460009182611a3983612597565b909155506040805160e0810182528581526001600160a01b038516602080830182905282840185905242606084015260016080840152600060a0840181905260c084018190529182526005905291909120815192935090918291908190611aa09082612647565b506020828101516001830180546001600160a01b039092166001600160a01b0319909216919091179055604080840151600284015560608401516003840155608084015160048401805460a087015115156101000261ff00199315159390931661ffff199091161791909117905560c090930151600590920191909155600084815260069091522081518291908190611b399082612647565b506020828101516001830180546001600160a01b039283166001600160a01b031990911617905560408085015160028501556060850151600380860191909155608086015160048601805460a089015115156101000261ff00199315159390931661ffff199091161791909117905560c090950151600590940193909355861660009081529290529020611bcd8582612647565b5082600485604051611bdf919061257b565b90815260405190819003602001902080546001600160a01b03929092166001600160a01b0319909216919091179055600a5460ff168015611c235750600854600754105b15611dcf5760095460c08201819052600060a083018190526007805491611c4983612597565b90915550506001600160a01b038416600090815260056020526040902082518391908190611c779082612647565b506020828101516001830180546001600160a01b039092166001600160a01b0319909216919091179055604080840151600284015560608401516003840155608084015160048401805460a087015115156101000261ff00199315159390931661ffff199091161791909117905560c090930151600590920191909155600085815260069091522082518391908190611d109082612647565b506020828101516001830180546001600160a01b039283166001600160a01b031990911617905560408085015160028501556060808601516003860155608086015160048601805460a089015115156101000261ff00199315159390931661ffff199091161791909117905560c09095015160059094019390935582518581529182018790524292820192909252908616917f6265c4408ac5b7c9b18d37b72535be33a793f145417cbbf3fd5ad07aa2184cc1910160405180910390a2505b600d8054906000611ddf83612597565b919050555081836001600160a01b031685604051611dfd919061257b565b604051908190038120428252907f13f42ee0de0ac9236ad9fd1edd06fb6b07f3e2423a2c0b6cb6dc732822fec14c9060200160405180910390a4826001600160a01b031684604051611e4f919061257b565b604051908190038120428252907f90dec1f4ffcc94b09eb3739c1c9d43f199bb65196004104dfb39a3da25c9afd99060200160405180910390a350505050565b600080546001600160a01b038381166001600160a01b0319831681178455604051919092169283917f8be0079c531659141344cd1fd0a4f28419497f9722a3daafe3b4186f6b6457e09190a35050565b600080600080611eef8686611f09565b925092509250611eff8282611f56565b5090949350505050565b60008060008351604103611f435760208401516040850151606086015160001a611f358882858561200f565b955095509550505050611f4f565b50508151600091506002905b9250925092565b6000826003811115611f6a57611f6a612873565b03611f73575050565b6001826003811115611f8757611f87612873565b03611fa55760405163f645eedf60e01b815260040160405180910390fd5b6002826003811115611fb957611fb9612873565b03611fda5760405163fce698f760e01b815260048101829052602401610727565b6003826003811115611fee57611fee612873565b03610663576040516335e2f38360e21b815260048101829052602401610727565b600080807f7fffffffffffffffffffffffffffffff5d576e7357a4501ddfe92f46681b20a084111561204a57506000915060039050826120d4565b604080516000808252602082018084528a905260ff891692820192909252606081018790526080810186905260019060a0016020604051602081039080840390855afa15801561209e573d6000803e3d6000fd5b5050604051601f1901519150506001600160a01b0381166120ca575060009250600191508290506120d4565b9250600091508190505b9450945094915050565b6040518060e001604052806060815260200160006001600160a01b031681526020016000815260200160008152602001600015158152602001600015158152602001600081525090565b634e487b7160e01b600052604160045260246000fd5b604051601f8201601f1916810167ffffffffffffffff8111828210171561216757612167612128565b604052919050565b600082601f83011261218057600080fd5b813567ffffffffffffffff81111561219a5761219a612128565b6121ad601f8201601f191660200161213e565b8181528460208386010111156121c257600080fd5b816020850160208301376000918101602001919091529392505050565b600060208083850312156121f257600080fd5b823567ffffffffffffffff8082111561220a57600080fd5b818501915085601f83011261221e57600080fd5b81358181111561223057612230612128565b8060051b61223f85820161213e565b918252838101850191858101908984111561225957600080fd5b86860192505b83831015612295578235858111156122775760008081fd5b6122858b89838a010161216f565b835250918601919086019061225f565b9998505050505050505050565b6000602082840312156122b457600080fd5b813567ffffffffffffffff8111156122cb57600080fd5b6122d78482850161216f565b949350505050565b80356001600160a01b03811681146122f657600080fd5b919050565b60006020828403121561230d57600080fd5b612316826122df565b9392505050565b60005b83811015612338578181015183820152602001612320565b50506000910152565b6000815180845261235981602086016020860161231d565b601f01601f19169290920160200192915050565b602081526000825160e0602084015261238a610100840182612341565b905060018060a01b03602085015116604084015260408401516060840152606084015160808401526080840151151560a084015260a0840151151560c084015260c084015160e08401528091505092915050565b6000602082840312156123f057600080fd5b5035919050565b60e08152600061240a60e083018a612341565b6001600160a01b0398909816602083015250604081019590955260608501939093529015156080840152151560a083015260c090910152919050565b8015158114610d3357600080fd5b60006020828403121561246657600080fd5b813561231681612446565b60008060006060848603121561248657600080fd5b8335925060208401359150604084013561249f81612446565b809150509250925092565b600080604083850312156124bd57600080fd5b823567ffffffffffffffff808211156124d557600080fd5b6124e18683870161216f565b935060208501359150808211156124f757600080fd5b506125048582860161216f565b9150509250929050565b6020815260006123166020830184612341565b6000806040838503121561253457600080fd5b61253d836122df565b9150602083013567ffffffffffffffff81111561255957600080fd5b6125048582860161216f565b634e487b7160e01b600052603260045260246000fd5b6000825161258d81846020870161231d565b9190910192915050565b6000600182016125b757634e487b7160e01b600052601160045260246000fd5b5060010190565b600181811c908216806125d257607f821691505b6020821081036125f257634e487b7160e01b600052602260045260246000fd5b50919050565b601f82111561264257600081815260208120601f850160051c8101602086101561261f5750805b601f850160051c820191505b8181101561263e5782815560010161262b565b5050505b505050565b815167ffffffffffffffff81111561266157612661612128565b6126758161266f84546125be565b846125f8565b602080601f8311600181146126aa57600084156126925750858301515b600019600386901b1c1916600185901b17855561263e565b600085815260208120601f198616915b828110156126d9578886015182559484019460019091019084016126ba565b50858210156126f75787850151600019600388901b60f8161c191681555b5050505050600190811b01905550565b6000835161271981846020880161231d565b60609390931b6bffffffffffffffffffffffff19169190920190815260140192915050565b6001600160a01b03831681526040602082018190526000906122d790830184612341565b60006020828403121561277457600080fd5b5051919050565b818103612786575050565b61279082546125be565b67ffffffffffffffff8111156127a8576127a8612128565b6127b68161266f84546125be565b6000601f8211600181146127ea57600083156127d25750848201545b600019600385901b1c1916600184901b17845561284f565b600085815260209020601f19841690600086815260209020845b838110156128245782860154825560019586019590910190602001612804565b50858310156128425781850154600019600388901b60f8161c191681555b50505060018360011b0184555b5050505050565b60006020828403121561286857600080fd5b815161231681612446565b634e487b7160e01b600052602160045260246000fdfea26469706673582212209daf931181bc45961443c98a8b286aea57f61cac07fa7831b9b1d199525a4beb64736f6c63430008140033",
  "linkReferences": {},
  "deployedLinkReferences": {}
}